:020000040800F2
:1000000000500020A90A0008A5090008AB09000853
:10001000B1090008B7090008BD0900080000000088
:10002000000000000000000000000000C3090008FC
:10003000CF09000800000000DB090008E7090008FC
:10004000F10A0008F10A0008F10A0008F10A0008A4
:10005000F10A0008F10A0008F10A0008F10A000894
:10006000F10A0008F10A0008F10A0008F10A000884
:10007000F10A0008F10A0008F10A0008F10A000874
:10008000F10A0008F10A0008F10A0008F10A000864
:10009000F5090008F10A0008F10A0008F10A000851
:1000A000F10A0008F10A0008F10A0008F10A000844
:1000B000F10A0008F10A0008F10A0008090A00081C
:1000C0001D0A0008F10A0008F10A0008F10A0008F8
:1000D000F10A0008F10A0008F10A0008F10A000814
:1000E000F10A0008F10A0008F10A00080000000007
:1000F0000000000000000000000000000000000000
:0C01000000000000000000005FF808F1A3
:10010C0010B5054C237833B9044B13B10448AFF345
:10011C0000800123237010BD20030020000000008C
:10012C00FCAA000808B5034B1BB103490348AFF305
:10013C00008008BD0000000024030020FCAA000879
:10014C0080B582B000AF00F0CFFC00F031F900F0C8
:10015C0023FA00F0F7F900F071F900F0C5F9854BBE
:10016C001B68854AC3F85C21824B1B68302283F8DC
:10017C006021824B1B68804AC3F85C217F4B1B6853
:10018C00312283F8602101224FF400417C4801F0B8
:10019C0009FD01224FF480717A4801F003FD754B83
:1001AC001B68184605F0F6FA724B1B68184605F0EA
:1001BC000BF8704B1B68184605F06AF96D4B1B6801
:1001CC007A1CB91C184605F0FFFF6A4B1B68FA1C19
:1001DC00391D184606F084FC664B1B680021184636
:1001EC0005F076FB634B1B6801220021184605F0D5
:1001FC00E7FD604B1B6801220121184605F0E0FD6C
:10020C005C4B1B6841F699120121184605F086FEDD
:10021C00584B1B684FF470120021184605F07EFEF7
:10022C00544B1B6848F2E801184605F0AEFB514BE5
:10023C001B6812220021184605F0CDFB4D4B1B68A4
:10024C000E220121184605F0C6FB4C4B1B681846C4
:10025C0005F0A0FA494B1B68184604F0B5FF474B54
:10026C001B68184605F014F9444B1B687A1CB91C22
:10027C00184605F0A9FF414B1B68FA1C391D18469E
:10028C0006F02EFC3D4B1B680021184605F020FBA8
:10029C003A4B1B6801220021184605F091FD374BA3
:1002AC001B6801220121184605F08AFD334B1B689F
:1002BC0041F699120121184605F030FE2F4B1B68B0
:1002CC004FF470120021184605F028FE48F2E801A0
:1002DC002D4805F05AFB294B1B68122200211846A9
:1002EC0005F079FB254B1B680E220121184605F001
:1002FC0072FB204B1B682549184606F007FA1F4B6A
:10030C001B682349184606F001FA204B1B891A4634
:10031C002049214809F032FF0346DAB21F4B1A700C
:10032C001B4B1B891A461E491B4809F027FF034625
:10033C00DAB21A4B1A70194B1B789AB2642316490D
:10034C00184804F0ADFD114B1B89DAB2164B1A702C
:10035C000F4B1B89DAB2154B1A70134B1B78134ACF
:10036C0012781146184600F0ADF94FF47A7000F08F
:10037C001DFCBEE7000000206403002004000020E8
:10038C0000100140000C0140D4050020640700203F
:10039C008007002014AB000800040020400400205B
:1003AC0024AB0008B80300204104002042040020C4
:1003BC0080B590B000AF07F1180328220021184631
:1003CC0009F0FCFE3B1D00221A605A609A60DA604C
:1003DC001A610123BB614FF48033FB6100233B6244
:1003EC000123BB6202237B634FF48033BB634FF466
:1003FC00E013FB6307F11803184604F0F1F8034609
:10040C00002B01D000F0A0F90F237B600223BB600E
:10041C000023FB604FF480633B6100237B613B1D39
:10042C000221184604F05EFB0346002B01D000F0BD
:10043C008BF900BF4037BD4680BD000080B58AB047
:10044C0000AF274B274A1A60254B04225A60244BD5
:10045C0000229A60224B4FF08072DA60204B4FF4EE
:10046C0040221A611E4B4FF440125A611C4B002261
:10047C001A761B4B00225A76194B00229A76184B8F
:10048C000022DA76164B00221A77154B00225A7787
:10049C00134800F0AFFB0346002B01D000F054F9D9
:1004AC0001233B620C237B6101233B614FF4A2537C
:1004BC003B6000237B604FF4A253BB600023FB60C6
:1004CC000023BB610123FB610D237B623B46194674
:1004DC00034800F08AFC00BF2837BD4680BD00BF32
:1004EC003C0300200064004080B500AF124B134A5F
:1004FC001A60114B124A5A600F4B00229A600E4B35
:10050C000022DA600C4B4FF480421A610A4B002235
:10051C005A61094B00229A61074B0022DA61064BA3
:10052C0000221A62044801F055FB0346002B01D04F
:10053C0000F00AF900BF80BD6403002000540040A5
:10054C00A086010080B500AF114B124A1A60104B07
:10055C004FF4E1325A600E4B00229A600C4B002291
:10056C00DA600B4B00221A61094B0C225A61084BC2
:10057C0000229A61064B0022DA61054804F040FC27
:10058C000346002B01D000F0DFF800BF80BD00BF98
:10059C00B80300200038014080B588B000AF07F1E7
:1005AC00100300221A605A609A60DA60424B9B6911
:1005BC00414A43F0100393613F4B9B6903F01003D6
:1005CC00FB60FB683C4B9B693B4A43F02003936107
:1005DC00394B9B6903F02003BB60BB68364B9B69AE
:1005EC00354A43F008039361334B9B6903F00803CE
:1005FC007B607B68304B9B692F4A43F0040393610B
:10060C002D4B9B6903F004033B603B6800224FF4C5
:10061C0000412A4801F0C6FA00224FF48C71284898
:10062C0001F0C0FA4FF480433B6100237B6100234F
:10063C00BB6107F110031946204801F02FF94FF464
:10064C0000433B6101237B610023BB610223FB61FF
:10065C0007F110031946194801F020F940F2032361
:10066C003B6100237B610023BB6107F1100319463A
:10067C00134801F013F918233B6101237B6100231C
:10068C00BB610323FB6107F1100319460C4801F011
:10069C0005F94FF480733B6101237B610023BB613F
:1006AC000223FB6107F110031946054801F0F6F827
:1006BC0000BF2037BD4680BD001002400010014035
:1006CC00000C014080B58AB000AF03460A46FB71AE
:1006DC001346BB711A4A07F1080392E8030083E83A
:1006EC000300FB79632B02D801233B7214E0FB79E6
:1006FC00642B04D900233B7201237B720CE0BB7981
:10070C00312B02D80123BB7206E0BB79642B03D9D1
:10071C000023BB720123FB7212233B610023BB61DC
:10072C000023FB6108233B6207F1080207F110016B
:10073C000023044800F022FC00BF2837BD4680BDD2
:10074C0034AB00083C03002080B400AF72B600BF8D
:10075C0000BFBD4680BC704780B485B000AF154B60
:10076C009B69144A43F001039361124B9B6903F09C
:10077C000103BB60BB680F4BDB690E4A43F080532F
:10078C00D3610C4BDB6903F080537B607B680A4BB5
:10079C005B68FB60FB6823F0E063FB60FB6843F085
:1007AC000073FB60044AFB68536000BF1437BD46FE
:1007BC0080BC7047001002400000014080B588B03A
:1007CC0000AF786007F1100300221A605A609A603B
:1007DC00DA607B681B68204A934239D11F4BDB6976
:1007EC001E4A43F00073D3611C4BDB6903F00073AA
:1007FC00FB60FB68194B9B69184A43F00403936137
:10080C00164B9B6903F00403BB60BB684FF4006399
:10081C003B6100237B610023BB6107F11003194688
:10082C000F4801F03BF84FF480533B6102237B618E
:10083C000323FB6107F110031946094801F02EF858
:10084C0000220021142000F06CFF142000F085FF22
:10085C0000BF2037BD4680BD006400400010024040
:10086C000008014080B588B000AF786007F1100334
:10087C0000221A605A609A60DA607B681B681D4A15
:10088C00934233D11C4B9B691B4A43F00803936181
:10089C00194B9B6903F00803FB60FB68C0233B61A9
:1008AC0012237B610323FB6107F1100319461348E4
:1008BC0000F0F4FF104BDB690F4A43F40013D361D3
:1008CC000D4BDB6903F40013BB60BB6800220021F5
:1008DC001F2000F026FF1F2000F03FFF0022002108
:1008EC00202000F01EFF202000F037FF00BF203733
:1008FC00BD4680BD0054004000100240000C014079
:10090C0080B588B000AF786007F1100300221A6040
:10091C005A609A60DA607B681B681C4A934231D13A
:10092C001B4B9B691A4A43F480439361184B9B6998
:10093C0003F48043FB60FB68154B9B69144A43F03E
:10094C0004039361124B9B6903F00403BB60BB6807
:10095C004FF400733B6102237B610323FB6107F1BE
:10096C00100319460B4800F099FF4FF480633B616C
:10097C0000237B610023BB6107F110031946054876
:10098C0000F08CFF00BF2037BD4680BD0038014011
:10099C00001002400008014080B400AFFEE780B4B4
:1009AC0000AFFEE780B400AFFEE780B400AFFEE717
:1009BC0080B400AFFEE780B400AF00BFBD4680BC82
:1009CC00704780B400AF00BFBD4680BC704780B498
:1009DC0000AF00BFBD4680BC704780B500AF00F0D3
:1009EC00C9F800BF80BD000080B500AF024800F020
:1009FC0094FB00BF80BD00BF3C03002080B500AF5E
:100A0C00024801F0A9FD00BF80BD00BF64030020B7
:100A1C0080B500AF024801F0F2FE00BF80BD00BF00
:100A2C006403002080B586B000AF7860144A154B83
:100A3C00D31A7B617B693B61134B1B68002B02D182
:100A4C00114B124A1A60104B1A687B6813443A69AE
:100A5C009A4207D209F0BAFB03460C221A604FF0F7
:100A6C00FF3309E0084B1B68FB60074B1A687B6877
:100A7C001344054A1360FB6818461837BD4680BD01
:100A8C0000500020000400009C07002030090020CA
:100A9C0080B400AF00BFBD4680BC7047FFF7F8FFC5
:100AAC000B480C490C4A002302E0D458C4500433C0
:100ABC00C4188C42F9D3094A094C002301E0136095
:100ACC000432A242FBD309F087FBFFF739FB7047D6
:100ADC000000002020030020A4AB0008200300200D
:100AEC002C090020FEE7000080B500AF084B1B6806
:100AFC00074A43F010031360032000F007FE0F2099
:100B0C0000F008F8FFF728FE0023184680BD00BF50
:100B1C000020024080B582B000AF7860124B1A689A
:100B2C00124B1B7819464FF47A73B3FBF1F3B2FBFB
:100B3C00F3F3184600F01FFE0346002B01D00123EF
:100B4C000EE07B680F2B0AD8002279684FF0FF303B
:100B5C0000F0E7FD064A7B681360002300E00123E8
:100B6C0018460837BD4680BD080000201000002044
:100B7C000C00002080B400AF054B1B781A46054BC7
:100B8C001B681344034A136000BFBD4680BC70470A
:100B9C0010000020A007002080B400AF024B1B689F
:100BAC001846BD4680BC7047A007002080B584B0B5
:100BBC0000AF7860FFF7F0FFB8607B68FB60FB6804
:100BCC00B3F1FF3F05D00A4B1B781A46FB68134460
:100BDC00FB6000BFFFF7E0FF0246BB68D31AFA6860
:100BEC009A42F7D800BF00BF1037BD4680BD00BF8A
:100BFC001000002080B584B000AF78607B68002BBB
:100C0C0001D10123EDE07B6893F82030DBB2002B9F
:100C1C0002D17868FFF7D2FD7B681B681A687B6885
:100C2C001B6842F001021A60FFF7B6FFF86012E091
:100C3C00FFF7B2FF0246FB68D31A0A2B0BD97B686D
:100C4C005B6A43F400327B685A627B68052283F846
:100C5C0020200123C5E07B681B685B6803F001035F
:100C6C00002BE5D07B681B681A687B681B6822F038
:100C7C0002021A60FFF790FFF86012E0FFF78CFF9A
:100C8C000246FB68D31A0A2B0BD97B685B6A43F4C8
:100C9C0000327B685A627B68052283F8202001238E
:100CAC009FE07B681B685B6803F00203002BE5D1B7
:100CBC007B681B7E012B08D17B681B681A687B68DC
:100CCC001B6842F080021A6007E07B681B681A6898
:100CDC007B681B6822F080021A607B685B7E012BAC
:100CEC0008D17B681B681A687B681B6842F040025D
:100CFC001A6007E07B681B681A687B681B6822F027
:100D0C0040021A607B689B7E012B08D17B681B68B4
:100D1C001A687B681B6842F020021A6007E07B6847
:100D2C001B681A687B681B6822F020021A607B68BB
:100D3C00DB7E012B08D17B681B681A687B681B68FB
:100D4C0022F010021A6007E07B681B681A687B6847
:100D5C001B6842F010021A607B681B7F012B08D1C4
:100D6C007B681B681A687B681B6842F008021A6073
:100D7C0007E07B681B681A687B681B6822F0080216
:100D8C001A607B685B7F012B08D17B681B681A6833
:100D9C007B681B6842F004021A6007E07B681B68E2
:100DAC001A687B681B6822F004021A607B689A68D8
:100DBC007B68DB681A437B681B691A437B685B6939
:100DCC0042EA03017B685B685A1E7B681B680A4316
:100DDC00DA617B6800225A627B68012283F820204A
:100DEC00002318461037BD4680BD80B487B000AFD5
:100DFC00786039607B681B687B617B6893F8203076
:100E0C00FB74FB7C012B03D0FB7C022B40F0AA80F3
:100E1C007B69D3F8003243F001027B69C3F80022EE
:100E2C003B685B6903F01F03012202FA03F3FB60CA
:100E3C007B69D3F81C22FB68DB431A407B69C3F83F
:100E4C001C223B68DB69002B23D17B69D3F80C2275
:100E5C00FB68DB431A407B69C3F80C223B68DB68F8
:100E6C0019043B685B689BB23A68526919437B6909
:100E7C00483243F832103B689B6819043B681B6886
:100E8C009AB23B685B690A4379694833DB000B44CF
:100E9C005A603B68DB69012B22D17B69D3F80C22A9
:100EAC00FB681A437B69C3F80C223B681B68190466
:100EBC003B685B689BB23A68526919437B6948325C
:100ECC0043F832103B689B6819043B68DB689AB2A4
:100EDC003B685B690A4379694833DB000B445A6011
:100EEC003B689B69002B09D17B69D3F80422FB6812
:100EFC00DB431A407B69C3F8042207E07B69D3F813
:100F0C000422FB681A437B69C3F804223B681B6903
:100F1C00002B09D17B69D3F81422FB68DB431A4000
:100F2C007B69C3F8142207E07B69D3F81422FB68B1
:100F3C001A437B69C3F814223B681B6A012B07D147
:100F4C007B69D3F81C22FB681A437B69C3F81C220B
:100F5C007B69D3F8003223F001027B69C3F80022CD
:100F6C00002306E07B685B6A43F480227B685A624C
:100F7C00012318461C37BD4680BC704780B489B02D
:100F8C0000AFF860B9607A603B60FB6893F8203082
:100F9C00FB77FB681B689B68BB61FB7F012B03D055
:100FAC00FB7F022B40F0AD80BB6903F08063002B0C
:100FBC000AD1BB6903F00063002B05D1BB6903F0B8
:100FCC008053002B00F09580BB691B0E03F00303CC
:100FDC007B6101227B699A403B681A60BB689B6805
:100FEC00002B0DD1BB681B685A05BB68DB68F96820
:100FFC0009681A437B6918331B010B441A600FE014
:10100C00BB685B68DA00BB689B681A43BB68DB682B
:10101C00F96809681A437B6918331B010B441A6081
:10102C00FB681968BB681A697B6918331B010B4490
:10103C0004331A60BB681B7D012B11D1FB681A6845
:10104C007B6918331B01134404331B68FA6811685D
:10105C0043F480727B6918331B010B4404331A6010
:10106C007B6807331B781A067B6806331B781B04D6
:10107C001A437B6805331B781B0213437A680432CE
:10108C0012781046FA68116843EA00027B691B016A
:10109C000B4403F5C6731A607B6803331B781A067E
:1010AC007B6802331B781B041A437B6801331B7863
:1010BC001B0213437A6812781046FA68116843EAE7
:1010CC0000027B691B010B4403F5C4731A60FB68B7
:1010DC001A687B6918331B0113441B68FA68116882
:1010EC0043F001027B6918331B010B441A60002387
:1010FC000EE0FB685B6A43F40012FB685A62012342
:10110C0006E0FB685B6A43F48022FB685A620123A9
:10111C0018462437BD4680BC704780B58AB000AFF6
:10112C00786000237B627B681B685B693B627B6831
:10113C001B685B68FB617B681B689B68BB617B6899
:10114C001B68DB687B617B681B681B693B617B6888
:10115C001B689B69FB603B6A03F00103002B7CD08E
:10116C00BB6903F00103002B23D07B681B680122B1
:10117C009A60BB6903F00203002B03D0786800F07F
:10118C0083F916E0BB6903F00403002B04D07B6ADF
:10119C0043F400637B620CE0BB6903F00803002B93
:1011AC0004D07B6A43F480537B6202E0786800F0E1
:1011BC0086F9BB6903F48073002B24D07B681B6811
:1011CC004FF480729A60BB6903F40073002B03D058
:1011DC00786800F062F916E0BB6903F48063002BB9
:1011EC0004D07B6A43F400537B620CE0BB6903F4CC
:1011FC000063002B04D07B6A43F480437B6202E0E3
:10120C00786800F065F9BB6903F48033002B24D0B7
:10121C007B681B684FF480329A60BB6903F400331F
:10122C00002B03D0786800F041F916E0BB6903F499
:10123C008023002B04D07B6A43F400437B620CE0D8
:10124C00BB6903F40023002B04D07B6A43F4803386
:10125C007B6202E0786800F044F93B6A03F0080313
:10126C00002B0CD07B6903F01003002B07D07B6A9A
:10127C0043F400737B627B681B681022DA603B6A64
:10128C0003F00403002B0BD07B6903F00803002B45
:10129C0006D07B681B680822DA60786800F033F9A6
:1012AC003B6A03F00203002B09D07B681B68DB68E8
:1012BC0003F00303002B02D0786800F01BF93B6AA3
:1012CC0003F04003002B0CD03B6903F01003002B00
:1012DC0007D07B6A43F480637B627B681B681022B7
:1012EC001A613B6A03F02003002B0BD03B6903F01F
:1012FC000803002B06D07B681B6808221A617868EB
:10130C0000F013F93B6A03F01003002B09D07B6843
:10131C001B681B6903F00303002B02D0786800F0F4
:10132C00FBF83B6A03F40033002B0BD0FB6903F092
:10133C001003002B06D07B681B6810225A6078685B
:10134C0000F0FCF83B6A03F48033002B0BD0FB69F4
:10135C0003F00803002B06D07B681B6808225A6038
:10136C00786800F0F4F83B6A03F40043002B7BD060
:10137C00FB6903F00403002B72D03B6A03F4807307
:10138C00002B08D0FB6803F00103002B03D07B6A11
:10139C0043F001037B623B6A03F40073002B08D01B
:1013AC00FB6803F00203002B03D07B6A43F00203BB
:1013BC007B623B6A03F48063002B08D0FB6803F06C
:1013CC000403002B03D07B6A43F004037B623B6A6B
:1013DC0003F40063002B43D0FB6803F07003002B75
:1013EC003ED0FB6803F07003602B2BD0602B2ED803
:1013FC00502B22D0502B2AD8402B19D0402B26D83A
:10140C00302B10D0302B22D8102B02D0202B05D013
:10141C001DE07B6A43F008037B6219E07B6A43F0B2
:10142C0010037B6214E07B6A43F020037B620FE0C5
:10143C007B6A43F040037B620AE07B6A43F08003E3
:10144C007B6205E07B6A43F480737B6200E000BF43
:10145C007B681B689A697B681B6822F070029A6132
:10146C007B681B6804225A607B6A002B08D07B685F
:10147C005A6A7B6A1A437B685A62786800F070F883
:10148C0000BF2837BD4680BD80B483B000AF786004
:10149C0000BF0C37BD4680BC704780B483B000AF32
:1014AC00786000BF0C37BD4680BC704780B483B0F9
:1014BC0000AF786000BF0C37BD4680BC704780B46D
:1014CC0083B000AF786000BF0C37BD4680BC70475E
:1014DC0080B483B000AF786000BF0C37BD4680BCD1
:1014EC00704780B483B000AF786000BF0C37BD4646
:1014FC0080BC704780B483B000AF786000BF0C37FD
:10150C00BD4680BC704780B483B000AF786000BF2C
:10151C000C37BD4680BC704780B483B000AF786098
:10152C0000BF0C37BD4680BC704780B483B000AFA1
:10153C00786000BF0C37BD4680BC704780B483B068
:10154C0000AF786000BF0C37BD4680BC704780B4DC
:10155C0083B000AF786000BF0C37BD4680BC7047CD
:10156C0080B483B000AF786000BF0C37BD4680BC40
:10157C007047000080B485B000AF78607B6803F0E2
:10158C000703FB600C4BDB68BB60BA684FF6FF03CC
:10159C001340BB60FB681A02BB68134343F0BF6384
:1015AC0043F40033BB60044ABB68D36000BF1437FC
:1015BC00BD4680BC704700BF00ED00E080B400AFBA
:1015CC00044BDB681B0A03F007031846BD4680BCBE
:1015DC00704700BF00ED00E080B483B000AF03465D
:1015EC00FB7197F90730002B0BDBFB7903F01F0223
:1015FC00064997F907305B09012000FA02F241F81D
:10160C00232000BF0C37BD4680BC704700E100E0D2
:10161C0080B483B000AF03463960FB7197F9073093
:10162C00002B0ADB3B68DAB20C4997F90730120140
:10163C00D2B20B4483F800230AE03B68DAB20849C3
:10164C00FB7903F00F03043B1201D2B20B441A7660
:10165C0000BF0C37BD4680BC704700BF00E100E006
:10166C0000ED00E080B489B000AFF860B9607A603A
:10167C00FB6803F00703FB61FB69C3F10703042B51
:10168C0028BF0423BB61FB690433062B02D9FB6919
:10169C00033B00E000237B614FF0FF32BB6902FA91
:1016AC0003F3DA43BB681A407B699A404FF0FF3171
:1016BC007B6901FA03F3D9437B680B40134318464B
:1016CC002437BD4680BC704780B582B000AF7860CF
:1016DC007B68013BB3F1807F01D301230FE00A4A01
:1016EC007B68013B53600F214FF0FF30FFF790FFF9
:1016FC00054B00229A60044B07221A6000231846FF
:10170C000837BD4680BD00BF10E000E080B582B058
:10171C0000AF78607868FFF72DFF00BF0837BD4633
:10172C0080BD80B586B000AF0346B9607A60FB73AC
:10173C0000237B61FFF742FF78617A68B9687869AA
:10174C00FFF790FF024697F90F3011461846FFF746
:10175C005FFF00BF1837BD4680BD80B582B000AFBB
:10176C000346FB7197F907301846FFF735FF00BFAA
:10177C000837BD4680BD80B582B000AF7860786810
:10178C00FFF7A2FF034618460837BD4680BD000090
:10179C0080B584B000AF78600023FB737B6893F84E
:1017AC002130DBB2022B05D07B6804229A63012323
:1017BC00FB7351E07B681B681A687B681B6822F01E
:1017CC000E021A607B681B681A687B681B6822F023
:1017DC0001021A607B681B68224A934229D07B68FD
:1017EC001B68214A934222D07B681B681F4A934294
:1017FC001AD07B681B681E4A934212D07B681B6808
:10180C001C4A93420AD07B681B681B4A934202D144
:10181C004FF480130EE04FF080730BE04FF48033E5
:10182C0008E04FF4805305E04FF4807302E010237E
:10183C0000E00123114A53607B68012283F82120C8
:10184C007B68002283F820207B685B6B002B03D025
:10185C007B685B6B78689847FB7B18461037BD46F6
:10186C0080BD00BF080002401C0002403000024056
:10187C0044000240580002406C000240000002404C
:10188C0080B483B000AF78607B6893F82130DBB212
:10189C0018460C37BD4680BC7047000080B48BB036
:1018AC0000AF7860396000237B6200233B6269E102
:1018BC0001227B6A02FA03F3FB613B681B68FA693D
:1018CC001340BB61BA69FB699A4240F058813B688E
:1018DC005B689A4A93425ED0984A934275D8984A6C
:1018EC00934258D0964A93426FD8964A934252D01C
:1018FC00944A934269D8944A93424CD0924A934268
:10190C0063D8924A934246D0904A93425DD8122BA8
:10191C002AD8122B59D801A252F823F0A319000887
:10192C007D1900088F190008D1190008D719000873
:10193C00D7190008D7190008D7190008D7190008BB
:10194C00D7190008D7190008D7190008D7190008AB
:10195C00D7190008D7190008D7190008D71900089B
:10196C008519000899190008794A934213D02CE084
:10197C003B68DB683B6229E03B68DB6804333B6215
:10198C0024E03B68DB6808333B621FE03B68DB68A4
:10199C000C333B621AE03B689B68002B02D104239A
:1019AC003B6213E03B689B68012B05D108233B622B
:1019BC007B68FA691A6109E008233B627B68FA6963
:1019CC005A6103E000233B6200E000BFBB69FF2BC0
:1019DC0001D87B6801E07B6804337B61BB69FF2B1A
:1019EC0002D87B6A9B0002E07B6A083B9B003B6150
:1019FC007B691A680F213B6901FA03F3DB431A4038
:101A0C00396A3B6901FA03F31A437B691A603B6834
:101A1C005B6803F08053002B00F0B1804D4B9B6949
:101A2C004C4A43F0010393614A4B9B6903F0010359
:101A3C00BB60BB68484A7B6A9B08023352F8233070
:101A4C00FB607B6A03F003039B000F2202FA03F393
:101A5C00DB43FA681340FB607B68404A934213D027
:101A6C007B683F4A93420DD07B683E4A934207D035
:101A7C007B683D4A934201D1032306E0042304E032
:101A8C00022302E0012300E000237A6A02F0030241
:101A9C0092009340FA681343FB602F497B6A9B08C2
:101AAC000233FA6841F823203B685B6803F4801327
:101ABC00002B06D02D4B9A682C49BB6913438B60C5
:101ACC0006E02A4B9A68BB69DB43284913408B60BC
:101ADC003B685B6803F40013002B06D0234BDA68D9
:101AEC002249BB691343CB6006E0204BDA68BB6923
:101AFC00DB431E491340CB603B685B6803F4003347
:101B0C00002B06D0194B5A681849BB6913434B601C
:101B1C0006E0164B5A68BB69DB43144913404B6013
:101B2C003B685B6803F48033002B21D00F4B1A68A1
:101B3C000E49BB6913430B6021E000BF000032105B
:101B4C0000003110000022100000211000001210C3
:101B5C00000011100010024000000140000801407C
:101B6C00000C014000100140001401400004014031
:101B7C000B4B1A68BB69DB43094913400B607B6A4A
:101B8C0001337B623B681A687B6A22FA03F3002BF1
:101B9C007FF48EAE00BF00BF2C37BD4680BC7047B3
:101BAC000004014080B483B000AF78600B467B80AA
:101BBC0013467B707B78002B03D07A887B681A6184
:101BCC0003E07B881A047B681A6100BF0C37BD46A2
:101BDC0080BC704780B584B000AF78607B68002B08
:101BEC0001D101232BE17B6893F83D30DBB2002B54
:101BFC0006D17B68002283F83C207868FEF732FE21
:101C0C007B68242283F83D207B681B681A687B68FC
:101C1C001B6822F001021A607B681B681A687B68DB
:101C2C001B6842F400421A607B681B681A687B6868
:101C3C001B6822F400421A6003F09CF8F8607B6881
:101C4C005B68814A934207D8FB68804A934294BFF1
:101C5C0001230023DBB206E0FB687D4A934294BF6C
:101C6C0001230023DBB2002B01D00123E7E0FB684A
:101C7C00784AA2FB03239B0CBB607B681B685B68E8
:101C8C0023F03F017B681B68BA680A435A607B6883
:101C9C001B681B6A23F03F017B685B686A4A9342AE
:101CAC0002D8BB68013309E0BB684FF4967202FBA3
:101CBC0003F3694AA2FB03239B0901337A68126878
:101CCC000B4313627B681B68DB6923F44F4222F0E1
:101CDC00FF027B685B685C498B4219D8FB68591E14
:101CEC007B685B685B00B1FBF3F3591C40F6FC733B
:101CFC000B40002B0AD0FB68591E7B685B685B00AD
:101D0C00B1FBF3F30133C3F30B0351E004234FE0B6
:101D1C007B689B68002B11D1FB68581E7B68596847
:101D2C000B465B000B44B0FBF3F30133C3F30B0323
:101D3C00002B0CBF01230023DBB212E0FB68581E02
:101D4C007B6859680B469B000B4499000B44B0FB15
:101D5C00F3F30133C3F30B03002B0CBF012300235C
:101D6C00DBB2002B01D0012322E07B689B68002BA7
:101D7C000ED1FB68581E7B6859680B465B000B4400
:101D8C00B0FBF3F30133C3F30B0343F400430FE055
:101D9C00FB68581E7B6859680B469B000B449900E6
:101DAC000B44B0FBF3F30133C3F30B0343F4404395
:101DBC00796809681343CB617B681B681B6823F047
:101DCC00C0017B68DA697B681B6A1A437B681B68F5
:101DDC000A431A607B681B689B6823F4034323F057
:101DEC00FF037A6811697A68D26811437A681268BD
:101DFC000B4393607B681B68DB6823F0FF017B68F7
:101E0C005A697B689B691A437B681B680A43DA60D2
:101E1C007B681B681A687B681B6842F001021A60B9
:101E2C007B6800221A647B68202283F83D207B6843
:101E3C0000221A637B68002283F83E200023184698
:101E4C001037BD4680BD00BFA08601007F841E00F8
:101E5C00FF083D0083DE1B43D34D621080B483B07A
:101E6C0000AF78607B681B685B6903F08003802B94
:101E7C0003D17B681B6800221A6100BF0C37BD467A
:101E8C0080BC704780B588B002AFF8607A601A46A3
:101E9C000B467B8113463B81FEF77EFE7861FB6827
:101EAC0093F83D30DBB2202B40F0E0807B6900934F
:101EBC00192301227049F86802F010F90346002B2F
:101ECC0001D00223D3E0FB6893F83C30012B01D105
:101EDC000223CCE0FB68012283F83C20FB681B68E2
:101EEC001B6803F00103012B07D0FB681B681A6801
:101EFC00FB681B6842F001021A60FB681B681A68D9
:101F0C00FB681B6822F400621A60FB68212283F8CC
:101F1C003D20FB68102283F83E20FB6800221A64E7
:101F2C00FB687A685A62FB683A895A85FB685B8D54
:101F3C009AB2FB681A85FB68504ADA6279897B6928
:101F4C003A6AF86801F0D2FE0346002B01D0012357
:101F5C008DE000233B61FB681B685B693B61FB68A0
:101F6C001B689B693B613B6966E07A69396AF86872
:101F7C0002F0CEF90346002B0DD0FB681B6C042B32
:101F8C0007D1FB681B681A68FB681B6842F4007277
:101F9C001A6001236BE0FB685B6A1A78FB681B68AC
:101FAC001A61FB685B6A5A1CFB685A62FB685B8DA2
:101FBC009BB2013B9AB2FB685A85FB681B8D013BB7
:101FCC009AB2FB681A85FB681B685B6903F0040313
:101FDC00042B1BD1FB681B8D002B17D0FB685B6A95
:101FEC001A78FB681B681A61FB685B6A5A1CFB68F1
:101FFC005A62FB685B8D9BB2013B9AB2FB685A85B7
:10200C00FB681B8D013B9AB2FB681A857A69396AA9
:10201C00F86802F0C5F90346002B0DD0FB681B6C69
:10202C00042B07D1FB681B681A68FB681B6842F419
:10203C0000721A6001231AE0FB681B8D002B94D1EF
:10204C00FB681B681A68FB681B6842F400721A6014
:10205C00FB68202283F83D20FB68002283F83E2099
:10206C00FB68002283F83C20002300E00223184682
:10207C001837BD4680BD00BF020010000000FFFFF6
:10208C0080B58CB002AFF8607A601A460B467B8143
:10209C0013463B8100233B62FEF77EFD7862FB68B2
:1020AC0093F83D30DBB2202B40F04B827B6A0093DF
:1020BC00192301227F49F86802F010F80346002B1F
:1020CC0001D002233EE2FB6893F83C30012B01D196
:1020DC00022337E2FB68012283F83C20FB681B6873
:1020EC001B6803F00103012B07D0FB681B681A68FF
:1020FC00FB681B6842F001021A60FB681B681A68D7
:10210C00FB681B6822F400621A60FB68222283F8C9
:10211C003D20FB68102283F83E20FB6800221A64E5
:10212C00FB687A685A62FB683A895A85FB685B8D52
:10213C009AB2FB681A85FB685F4ADA6279897B6A16
:10214C003A6BF86801F054FE0346002B01D00123D2
:10215C00F8E1FB681B8D002B13D10023FB61FB689E
:10216C001B685B69FB61FB681B689B69FB61FB6916
:10217C00FB681B681A68FB681B6842F400721A60E3
:10218C00CCE1FB681B8D012B1ED1FB681B681A6808
:10219C00FB681B6822F480621A6072B600BF0023D1
:1021AC00BB61FB681B685B69BB61FB681B689B6957
:1021BC00BB61BB69FB681B681A68FB681B6842F44F
:1021CC0000721A6062B635E0FB681B8D022B1ED1C3
:1021DC00FB681B681A68FB681B6842F400621A6093
:1021EC0072B600BF00237B61FB681B685B697B6177
:1021FC00FB681B689B697B617B69FB681B681A68C1
:10220C00FB681B6822F480621A6062B612E0FB68FD
:10221C001B681A68FB681B6842F480621A60002312
:10222C003B61FB681B685B693B61FB681B689B69D6
:10223C003B613B6972E1FB681B8D032B00F21F8134
:10224C00FB681B8D012B23D17A6A396BF86802F07D
:10225C0021F90346002B01D0012373E1FB681B68B5
:10226C001A69FB685B6AD2B21A70FB685B6A5A1C0B
:10227C00FB685A62FB681B8D013B9AB2FB681A859E
:10228C00FB685B8D9BB2013B9AB2FB685A8545E1BA
:10229C00FB681B8D022B52D17B6A00933B6B002297
:1022AC000649F86801F01AFF0346002B08D00123F9
:1022BC0048E100BF020010000000FFFF0400010015
:1022CC0072B600BFFB681B681A68FB681B6842F497
:1022DC0000721A60FB681B681A69FB685B6AD2B2F1
:1022EC001A70FB685B6A5A1CFB685A62FB681B8D90
:1022FC00013B9AB2FB681A85FB685B8D9BB2013B74
:10230C009AB2FB685A8562B600BFFB681B681A69F3
:10231C00FB685B6AD2B21A70FB685B6A5A1CFB687A
:10232C005A62FB681B8D013B9AB2FB681A85FB68ED
:10233C005B8D9BB2013B9AB2FB685A85EEE07B6ADF
:10234C0000933B6B00228149F86801F0C7FE0346FD
:10235C00002B01D00123F5E0FB681B681A68FB68B1
:10236C001B6822F480621A6072B600BFFB681B689F
:10237C001A69FB685B6AD2B21A70FB685B6A5A1CFA
:10238C00FB685A62FB681B8D013B9AB2FB681A858D
:10239C00FB685B8D9BB2013B9AB2FB685A856C4B18
:1023AC001B68DB086B4AA2FB03231A0A13469B002B
:1023BC001344DA00D31A3B623B6A013B3B623B6A33
:1023CC00002B18D1FB6800221A63FB68202283F8CB
:1023DC003D20FB68002283F83E20FB681B6C43F019
:1023EC002002FB681A6462B600BFFB68002283F807
:1023FC003C200123A6E0FB681B685B6903F0040327
:10240C00042BD9D1FB681B681A68FB681B6842F463
:10241C0000721A60FB681B681A69FB685B6AD2B2AF
:10242C001A70FB685B6A5A1CFB685A62FB681B8D4E
:10243C00013B9AB2FB681A85FB685B8D9BB2013B32
:10244C009AB2FB685A8562B600BFFB681B681A69B2
:10245C00FB685B6AD2B21A70FB685B6A5A1CFB6839
:10246C005A62FB681B8D013B9AB2FB681A85FB68AC
:10247C005B8D9BB2013B9AB2FB685A854EE07A6A3F
:10248C00396BF86802F006F80346002B01D00123E3
:10249C0058E0FB681B681A69FB685B6AD2B21A7059
:1024AC00FB685B6A5A1CFB685A62FB681B8D013B1C
:1024BC009AB2FB681A85FB685B8D9BB2013B9AB2A2
:1024CC00FB685A85FB681B685B6903F00403042BEB
:1024DC0024D1FB681B8D032B07D1FB681B681A6882
:1024EC00FB681B6822F480621A60FB681B681A691F
:1024FC00FB685B6AD2B21A70FB685B6A5A1CFB6899
:10250C005A62FB681B8D013B9AB2FB681A85FB680B
:10251C005B8D9BB2013B9AB2FB685A85FB681B8DA5
:10252C00002B7FF488AEFB68202283F83D20FB68EB
:10253C00002283F83E20FB68002283F83C20002315
:10254C0000E0022318462837BD4680BD0400010078
:10255C000800002089B5F81480B588B000AF786009
:10256C000023BB617B681B685B687B617B68DB6AF3
:10257C003B617B6893F83E30FB737B6893F83D308E
:10258C00BB73FB7B102B03D0FB7B402B40F0B1804B
:10259C007B681B689B69BB617B681B685B69FB6123
:1025AC00FB6903F00103002B0DD13B69B3F52A0F36
:1025BC0003D03B69B3F12A4F01D1012300E0002382
:1025CC00012B00F01481FB6903F00103002B0BD0ED
:1025DC007B6903F40073002B06D0786801F0E5FFEB
:1025EC00786800F060FD83E0FB6903F00803002BC2
:1025FC0008D07B6903F40073002B03D0786800F0DB
:10260C00D7FD75E0FB6903F00203002B08D07B6952
:10261C0003F40073002B03D0786800F0F2FD67E040
:10262C00BB6903F00403002B36D07B681B685B6826
:10263C0003F40063B3F5006F00F0DB80FB6903F07B
:10264C008003002B0DD07B6903F48063002B08D032
:10265C00FB6903F00403002B03D1786800F0D4F974
:10266C0046E0FB6903F00403002B00F0C2807B6999
:10267C0003F40073002B00F0BC80BB7B212B03D137
:10268C00786800F05DFAB4E0FB7B402B40F0B18041
:10269C00786800F0CBFAACE07B681B685B6803F4ED
:1026AC000063B3F5006F00F0A480FB6903F04003F6
:1026BC00002B0DD07B6903F48063002B08D0FB69E1
:1026CC0003F00403002B03D1786800F047FB0FE004
:1026DC00FB6903F00403002B00F08B807B6903F48F
:1026EC000073002B00F08580786800F0F2FB80E02E
:1026FC007FE07B681B6C002B04D07B681B685B69DC
:10270C00FB6107E07B681B689B69BB617B681B688E
:10271C005B69FB61FB6903F00203002B11D07B6941
:10272C0003F40073002B0CD07B681B6C002B03D0C4
:10273C007B681B689B69BB61B969786800F0B8FF5E
:10274C005AE0FB6903F01003002B08D07B6903F4FB
:10275C000073002B03D0786800F0F2FF4CE0BB7BD9
:10276C00212B02D0BB7B292B20D1FB6903F08003EA
:10277C00002B0DD07B6903F48063002B08D0FB6920
:10278C0003F00403002B03D1786800F0D5FE32E08F
:10279C00FB6903F00403002B2DD07B6903F4007359
:1027AC00002B28D0786800F004FF24E0FB6903F0CC
:1027BC004003002B0DD07B6903F48063002B08D001
:1027CC00FB6903F00403002B03D1786800F011FFC0
:1027DC0012E0FB6903F00403002B0DD07B6903F4BA
:1027EC000073002B08D0786800F041FF04E000BFB4
:1027FC0002E000BF00E000BF2037BD4680BD80B5C1
:10280C008AB000AF78607B681B685B693B627B6851
:10281C001B685B68FB6100237B627B6893F83E302E
:10282C00FB763B6A03F48073002B15D0FB6903F431
:10283C008073002B10D07B6A43F001037B627B68B2
:10284C001B686FF480725A617B681B681A687B681E
:10285C001B6842F400421A603B6A03F40073002BBD
:10286C000DD0FB6903F48073002B08D07B6A43F016
:10287C0002037B627B681B686FF400725A613B6ACF
:10288C0003F48063002B3ED0FB6903F48073002BB0
:10289C0039D0FB7EBB767B685B8D9BB27B617B68A2
:1028AC0093F83D30FB747B681B6BFB60BB7E202B6D
:1028BC0012D17B69002B0FD1FB7C212B08D0FB7C28
:1028CC00292B05D0FB7C282B06D1FB68212B03D1AF
:1028DC00786801F065F816E07B681B686FF480621D
:1028EC005A617B6A43F004037B62FB7E102B02D09F
:1028FC00FB7E402B07D17B681B681A687B681B68C2
:10290C0042F400721A603B6A03F40063002B0DD092
:10291C00FB6903F48073002B08D07B6A43F0080337
:10292C007B627B681B686FF400625A617B6A002BC8
:10293C0008D07B681A6C7B6A1A437B681A647868C7
:10294C0001F0A2F800BF2837BD4680BD80B483B02B
:10295C0000AF786000BF0C37BD4680BC704780B4B8
:10296C0083B000AF786000BF0C37BD4680BC7047A9
:10297C0080B483B000AF786000BF0C37BD4680BC1C
:10298C00704780B483B000AF786000BF0C37BD4691
:10299C0080BC704780B483B000AF78600B46FB708E
:1029AC0013463B8000BF0C37BD4680BC704780B4DB
:1029BC0083B000AF786000BF0C37BD4680BC704759
:1029CC0080B483B000AF786000BF0C37BD4680BCCC
:1029DC00704780B483B000AF786000BF0C37BD4641
:1029EC0080BC704780B483B000AF786000BF0C37F8
:1029FC00BD4680BC704780B483B000AF786000BF28
:102A0C000C37BD4680BC704780B584B000AF786091
:102A1C007B6893F83D30FB737B6893F83E30BB7357
:102A2C007B68DB6ABB607B681B8D002B50D1FB7B0A
:102A3C00212B4DD1BB68082B1DD0BB68202B1AD085
:102A4C00BB6813F5803F16D07B681B685A687B689F
:102A5C001B6822F4E0625A607B6811221A637B685F
:102A6C00002283F83E207B68202283F83D20786882
:102A7C00FFF76CFF60E07B681B685A687B681B681B
:102A8C0022F4E0625A607B681B681A687B681B68DA
:102A9C0042F400721A607B6800221A637B68202261
:102AAC0083F83D207B6893F83E30DBB2402B07D196
:102ABC007B68002283F83E207868FFF781FF3BE0BB
:102ACC007B68002283F83E207868FFF73FFF33E0F5
:102ADC00FB7B212B05D0BB7B402B2DD1FB7B222BF1
:102AEC002AD17B685B8D9BB2002B08D17B681B685D
:102AFC005A687B681B6822F480625A601CE07B6811
:102B0C0093F83E30DBB2402B03D1786800F08EF89E
:102B1C0012E07B685B6A1A787B681B681A617B68B9
:102B2C005B6A5A1C7B685A627B685B8D9BB2013B6B
:102B3C009AB27B685A85FFE700BF1037BD4680BD4F
:102B4C0080B584B000AF78607B68DB6AFB607B6823
:102B5C0093F83D30DBB2212B64D17B685B8D9BB24B
:102B6C00002B12D07B685B6A1A787B681B681A6131
:102B7C007B685B6A5A1C7B685A627B685B8D9BB274
:102B8C00013B9AB27B685A854CE0FB68082B1DD040
:102B9C00FB68202B1AD0FB6813F5803F16D07B689E
:102BAC001B685A687B681B6822F4E0625A607B6879
:102BBC0011221A637B68002283F83E207B68202256
:102BCC0083F83D207868FFF7C1FE2BE07B681B681B
:102BDC005A687B681B6822F4E0625A607B681B6849
:102BEC001A687B681B6842F400721A607B680022CA
:102BFC001A637B68202283F83D207B6893F83E3073
:102C0C00DBB2402B07D17B68002283F83E2078682A
:102C1C00FFF7D6FE06E07B68002283F83E2078683A
:102C2C00FFF794FE00BF1037BD4680BD80B584B061
:102C3C0000AF78607B6893F83D30FB737B681B6D4D
:102C4C00002B1DD17B68DB6C012B0BD17B689B6C43
:102C5C00DAB27B681B681A617B681B6D9A1C7B68F7
:102C6C001A6577E07B689B6C9BB21B12DAB27B68AF
:102C7C001B681A617B681B6D5A1C7B681A6569E0BE
:102C8C007B681B6D012B0BD17B689B6CDAB27B686C
:102C9C001B681A617B681B6D5A1C7B681A6559E0AE
:102CAC007B681B6D022B52D1FB7B222B0DD17B68D9
:102CBC001B681A687B681B6842F480721A607B6818
:102CCC001B6D5A1C7B681A6544E07B685B8D9BB25C
:102CDC00002B15D0FB7B212B12D17B685B6A1A78F9
:102CEC007B681B681A617B685B6A5A1C7B685A623A
:102CFC007B685B8D9BB2013B9AB27B685A8529E05D
:102D0C007B685B8D9BB2002B24D1FB7B212B21D1CB
:102D1C007B681B685A687B681B6822F4E0625A6007
:102D2C007B681B681A687B681B6842F400721A6027
:102D3C007B6800221A637B68202283F83D207B6825
:102D4C00002283F83E207868FFF73AFE02E07868AC
:102D5C00FFF784F800BF1037BD4680BD80B584B046
:102D6C0000AF78607B6893F83D30DBB2222B40F0EB
:102D7C00AC807B685B8D9BB2FB60FB68032B21D91D
:102D8C007B681B681A697B685B6AD2B21A707B68B5
:102D9C005B6A5A1C7B685A627B685B8D9BB2013BF9
:102DAC009AB27B685A857B685B8D9BB2032B40F093
:102DBC008C807B681B685A687B681B6822F4806275
:102DCC005A6082E07B68DB6A022B75D0FB68012BB2
:102DDC0002D0FB68002B6FD1786801F029FB034609
:102DEC00002B42D17B681B681A687B681B6822F435
:102DFC0080621A607B681B685A687B681B6822F4C7
:102E0C00E0625A607B681B681A697B685B6AD2B2A5
:102E1C001A707B685B6A5A1C7B685A627B685B8D94
:102E2C009BB2013B9AB27B685A857B68202283F85F
:102E3C003D207B6893F83E30DBB2402B0AD17B6897
:102E4C00002283F83E207B6800221A637868FFF723
:102E5C00C0FD3AE07B68002283F83E207B6812229A
:102E6C001A637868FFF77BFD2FE07B681B685A6854
:102E7C007B681B6822F4E0625A607B681B681A69E5
:102E8C007B685B6AD2B21A707B685B6A5A1C7B687F
:102E9C005A627B685B8D9BB2013B9AB27B685A8508
:102EAC007B68202283F83D207B68002283F83E203B
:102EBC007868FFF797FD08E07B681B685A687B68A9
:102ECC001B6822F480625A60FFE700BF1037BD46D2
:102EDC0080BD80B584B000AF78607B68DB6AFB6036
:102EEC007B685B8D9BB2042B1BD17B681B685A687B
:102EFC007B681B6822F480625A607B681B681A69C5
:102F0C007B685B6AD2B21A707B685B6A5A1C7B68FE
:102F1C005A627B685B8D9BB2013B9AB27B685A8587
:102F2C00BDE07B685B8D9BB2032B29D17B681B6852
:102F3C005A687B681B6822F480625A60FB68042B19
:102F4C000AD0FB68022B07D07B681B681A687B6869
:102F5C001B6822F480621A607B681B681A697B68A4
:102F6C005B6AD2B21A707B685B6A5A1C7B685A62C5
:102F7C007B685B8D9BB2013B9AB27B685A858EE075
:102F8C007B685B8D9BB2022B76D1FB68012B02D048
:102F9C00FB68102B08D17B681B681A687B681B6860
:102FAC0022F480621A6019E0FB68042B02D0FB68E3
:102FBC00022B08D17B681B681A687B681B6842F47B
:102FCC0080621A600AE0FB68102B07D07B681B68D4
:102FDC001A687B681B6842F400721A607B681B6875
:102FEC001A697B685B6AD2B21A707B685B6A5A1C7E
:102FFC007B685A627B685B8D9BB2013B9AB27B68A3
:10300C005A857B681B681A697B685B6AD2B21A7036
:10301C007B685B6A5A1C7B685A627B685B8D9BB2CF
:10302C00013B9AB27B685A857B681B685A687B683F
:10303C001B6822F440725A607B68202283F83D2082
:10304C007B6893F83E30DBB2402B0AD17B680022C0
:10305C0083F83E207B6800221A637868FFF7B9FC7E
:10306C001DE07B68002283F83E207B6812221A63E5
:10307C007868FFF774FC12E07B681B681A697B6840
:10308C005B6AD2B21A707B685B6A5A1C7B685A62A4
:10309C007B685B8D9BB2013B9AB27B685A8500BF03
:1030AC001037BD4680BD80B483B000AF78607B68BC
:1030BC0093F83E30DBB2402B17D17B681B6D002B95
:1030CC0009D17B685B6CDBB21A467B681B6802F02B
:1030DC00FE021A6167E07B685B6CDBB243F00103B4
:1030EC00DAB27B681B681A615DE07B681B69B3F51B
:1030FC00804F33D17B6893F83D30DBB2212B09D163
:10310C007B685B6CDBB21A467B681B6802F0FE02C4
:10311C001A6108E07B685B6CDBB243F00103DAB246
:10312C007B681B681A617B685B6B002B04D07B6827
:10313C005B6B9B6A002B08D17B689B6B002B32D09E
:10314C007B689B6B9B6A002B2DD07B681B685A6835
:10315C007B681B6842F400625A6024E07B681B6D3C
:10316C00002B0ED17B685B6C9BB2DB11DBB203F0E6
:10317C000603DBB263F00F03DAB27B681B681A61DB
:10318C0011E07B681B6D012B0DD17B685B6C9BB2D6
:10319C00DB11DBB203F00603DBB263F00E03DAB231
:1031AC007B681B681A6100BF0C37BD4680BC70473A
:1031BC0080B483B000AF78607B685B6CDAB27B68FC
:1031CC001B681A617B685B6B002B04D07B685B6BA4
:1031DC009B6A002B08D17B689B6B002B0CD07B6807
:1031EC009B6B9B6A002B07D07B681B685A687B68BB
:1031FC001B6842F400625A6000BF0C37BD4680BCAD
:10320C00704780B491B000AF78607B6893F83E3023
:10321C0087F83F307B68DB6ABB637B681B6B7B6327
:10322C007B6893F83D30DBB2222B40F074817B68D5
:10323C001B6D002B0FD197F83F30402B0BD1002387
:10324C003B637B681B685B693B637B681B689B69A2
:10325C003B633B6B6BE17B681B6D002B1DD17B686B
:10326C001B69B3F5404F18D10023FB627B681B68C8
:10327C005B69FB627B681B689B69FB62FB6A7B6812
:10328C001B681A687B681B6842F480721A607B6842
:10329C001B6D5A1C7B681A6549E17B685B8D9BB280
:1032AC00002B13D10023BB627B681B685B69BB627C
:1032BC007B681B689B69BB62BB6A7B681B681A686E
:1032CC007B681B6842F400721A6020E17B685B8D9E
:1032DC009BB2012B40F08A80BB6B13F5803F37D13A
:1032EC007B681B681A687B681B6822F480621A6012
:1032FC007B681B685B6803F40063B3F5006F13D144
:10330C007B681B681A687B681B6822F480621A60F1
:10331C0000237B627B681B685B697B627B681B6834
:10332C009B697B627B6AF2E000233B627B681B68D3
:10333C005B693B627B681B689B693B623B6A7B6891
:10334C001B681A687B681B6842F400721A60DEE026
:10335C00BB6B082B2ED0BB6B202B2BD07B6B122B7B
:10336C0002D1BB6B012B25D1BB6B042B0ED0BB6BDD
:10337C00022B0BD0BB6B102B08D07B681B681A6818
:10338C007B681B6822F480621A6007E07B681B680C
:10339C001A687B681B6842F480621A600023FB6128
:1033AC007B681B685B69FB617B681B689B69FB61C5
:1033BC00FB69ACE07B681B681A687B681B6822F4AD
:1033CC0080621A600023BB617B681B685B69BB6110
:1033DC007B681B689B69BB61BB697B681B681A684F
:1033EC007B681B6842F400721A6090E07B685B8D0E
:1033FC009BB2022B58D1BB6B042B21D0BB6B022B85
:10340C001ED0BB6B102B1BD07B681B681A687B68AB
:10341C001B6842F400621A6000237B617B681B68A6
:10342C005B697B617B681B689B697B617B697B68E3
:10343C001B681A687B681B6822F480621A6012E0B1
:10344C007B681B681A687B681B6842F480621A6090
:10345C0000233B617B681B685B693B617B681B6875
:10346C009B693B613B697B681B685B6803F4006389
:10347C00B3F5006F4BD1BB6B13F5803F0BD0BB6B1F
:10348C00012B08D0BB6B082B05D0BB6B102B02D0CB
:10349C00BB6B202B3BD17B681B685A687B681B6815
:1034AC0042F480525A6032E07B681B681A687B6871
:1034BC001B6842F480621A607B681B685B6803F4CB
:1034CC000063B3F5006F17D1BB6B13F5803F0BD0C6
:1034DC00BB6B012B08D0BB6B082B05D0BB6B102B27
:1034EC0002D0BB6B202B07D17B681B685A687B68AA
:1034FC001B6842F480525A600023FB607B681B6897
:10350C005B69FB607B681B689B69FB60FB687B6885
:10351C0000221A650BE00023BB607B681B685B69AB
:10352C00BB607B681B689B69BB60BB68FFE700BF27
:10353C004437BD4680BC704780B584B000AF78601E
:10354C007B6893F83D30FB737B685B8D9BB2002BE3
:10355C002BD07B685B6A1A787B681B681A617B6866
:10356C005B6A5A1C7B685A627B685B8D9BB2013B21
:10357C009AB27B685A857B685B8D9BB2002B14D109
:10358C00FB7B292B11D17B681B685A687B681B68F5
:10359C0022F480625A607B6821221A637B6828229D
:1035AC0083F83D207868FFF7E3F900BF1037BD467C
:1035BC0080BD80B483B000AF78607B685B8D9BB2BC
:1035CC00002B11D07B685B6A1A787B681B681A61C8
:1035DC007B685B6A5A1C7B685A627B685B8D9BB20A
:1035EC00013B9AB27B685A8500BF0C37BD4680BC44
:1035FC00704780B584B000AF78607B6893F83D303D
:10360C00FB737B685B8D9BB2002B2CD07B681B689B
:10361C001A697B685B6AD2B21A707B685B6A5A1C47
:10362C007B685A627B685B8D9BB2013B9AB27B686C
:10363C005A857B685B8D9BB2002B14D1FB7B2A2BAC
:10364C0011D17B681B685A687B681B6822F4806206
:10365C005A607B6822221A637B68282283F83D20FB
:10366C007868FFF78EF900BF1037BD4680BD80B477
:10367C0083B000AF78607B685B8D9BB2002B12D05F
:10368C007B681B681A697B685B6AD2B21A707B68AC
:10369C005B6A5A1C7B685A627B685B8D9BB2013BF0
:1036AC009AB27B685A8500BF0C37BD4680BC704708
:1036BC0080B584B000AF786039600023FB737B6801
:1036CC0093F83D30DBB203F02803282B25D17B681F
:1036DC001B685A687B681B6822F480625A603B68DE
:1036EC0003F00403002B01D10123FB733B6803F0AF
:1036FC008003002B03D17B68DB68BB8102E07B6815
:10370C009B69BB817B68002283F83C20BA89FB7BD8
:10371C0019467868FFF73EF90EE00023BB607B6822
:10372C001B685B69BB607B681B689B69BB60BB6883
:10373C007B68002283F83C2000BF1037BD4680BD5B
:10374C0080B584B000AF78607B6893F83D30FB7334
:10375C007B681B685A687B681B6822F4E0625A60BD
:10376C000023BB607B681B685B69BB607B681B6864
:10377C001A687B681B6842F001021A60BB687B68A0
:10378C001B681A687B681B6822F480621A607B686D
:10379C001B685B6803F40063B3F5006F72D1FB7BAD
:1037AC00222B02D0FB7B2A2B35D17B689B6B1B68B1
:1037BC005B689AB27B685A857B685B8D9BB2002BE9
:1037CC0005D07B681B6C43F004027B681A647B6831
:1037DC001B685A687B681B6822F400625A607B681D
:1037EC009B6B1846FEF74CF80346012B49D07B68BF
:1037FC009B6B694A5A637B689B6B1846FDF7C8FF45
:10380C000346002B3DD07B689B6B5B6B7A68926B9D
:10381C001046984735E07B685B6B1B685B689AB217
:10382C007B685A857B685B8D9BB2002B05D07B68CF
:10383C001B6C43F004027B681A647B681B685A6833
:10384C007B681B6822F400625A607B685B6B1846CD
:10385C00FEF716F80346012B14D07B685B6B4E4ABF
:10386C005A637B685B6B1846FDF792FF0346002B8F
:10387C0008D07B685B6B5B6B7A68526B1046984721
:10388C0000E000BF7B685B8D9BB2002B3ED07B6859
:10389C001B685B6903F00403042B12D17B681B6863
:1038AC001A697B685B6AD2B21A707B685B6A5A1CB5
:1038BC007B685A627B685B8D9BB2013B9AB27B68DA
:1038CC005A857B681B685B6903F04003402B12D15F
:1038DC007B681B681A697B685B6AD2B21A707B685A
:1038EC005B6A5A1C7B685A627B685B8D9BB2013B9E
:1038FC009AB27B685A857B685B8D9BB2002B05D096
:10390C007B681B6C43F004027B681A647B681B6C3D
:10391C00002B03D0786800F0B7F839E0FB7B2A2B3A
:10392C0009D17B6800221A637B68282283F83D202A
:10393C007868FFF726F87B6893F83D30DBB2282BCC
:10394C0011D17B68154ADA627B6800221A637B68A6
:10395C00202283F83D207B68002283F83E20786883
:10396C00FFF725F814E07B681B6B222B02D0FB7B46
:10397C00222B0DD17B6800221A637B68202283F8EE
:10398C003D207B68002283F83E207868FEF7F9FF23
:10399C0000BF1037BD4680BD993F00080000FFFFF7
:1039AC0080B584B000AF78607B6893F83D30FB73D2
:1039BC007B68DB6ABB60BB68082B02D0BB68202B22
:1039CC0029D1FB7B282B26D17B682E4ADA627B68B7
:1039DC001B685A687B681B6822F4E0625A607B683B
:1039EC001B686FF480625A617B681B681A687B687D
:1039FC001B6822F480621A607B6800221A637B6861
:103A0C00202283F83D207B68002283F83E207868D2
:103A1C00FEF7CDFF31E0FB7B212B29D17B68194AC6
:103A2C00DA627B6821221A637B68202283F83D20AE
:103A3C007B68002283F83E207B681B685A687B6891
:103A4C001B6822F4E0625A607B681B686FF480622A
:103A5C005A617B681B681A687B681B6822F4806259
:103A6C001A607868FEF7FAF97868FEF781FF04E0CF
:103A7C007B681B686FF480625A6100BF1037BD46CB
:103A8C0080BD00BF0000FFFF80B584B000AF786040
:103A9C007B6893F83D30FB737B6893F83E30BB73C7
:103AAC00BB7B102B02D0BB7B402B0AD1FB7B222B88
:103ABC0007D17B681B681A687B681B6822F400625C
:103ACC001A60FB7B03F02803282B07D17B680022AC
:103ADC001A637B68282283F83D2015E07B681B68FD
:103AEC005B6803F40063B3F5006F0AD0FB7B602BBB
:103AFC0007D07B68202283F83D207B68002283F866
:103B0C003E207B6800221A637B681B685B6803F4A9
:103B1C000063B3F5006F62D17B681B685A687B68E1
:103B2C001B6822F400625A607B685B6B93F821304F
:103B3C00DBB2012B20D07B685B6B6A4A5A637B68D3
:103B4C005B6B1846FDF724FE0346002B00F08980C2
:103B5C007B681B681A687B681B6822F001021A607C
:103B6C007B68202283F83D207B685B6B5B6B7A68FB
:103B7C00526B1046984774E07B689B6B594A5A63AA
:103B8C007B689B6B1846FDF703FE0346002B68D041
:103B9C007B681B685B6903F04003402B0BD17B688F
:103BAC001B681A697B685B6AD2B21A707B685B6AA5
:103BBC005A1C7B685A627B681B681A687B681B6896
:103BCC0022F001021A607B68202283F83D207B687A
:103BDC009B6B5B6B7A68926B1046984741E07B68F5
:103BEC0093F83D30DBB2602B25D17B68202283F823
:103BFC003D207B6800221A647B681B685B6903F0BC
:103C0C004003402B0BD17B681B681A697B685B6A8D
:103C1C00D2B21A707B685B6A5A1C7B685A627B68EA
:103C2C001B681A687B681B6822F001021A607868AE
:103C3C00FEF7E1FE15E07B681B685B6903F040034F
:103C4C00402B0BD17B681B681A697B685B6AD2B20C
:103C5C001A707B685B6A5A1C7B685A627868FEF73C
:103C6C00C1FE7B681B6CBB60BB6803F00103002BBF
:103C7C000ED1BB6803F00203002B09D1BB6803F023
:103C8C000403002B04D1BB6803F00803002B07D0FE
:103C9C007B681B685A687B681B6822F4E0625A6078
:103CAC007B6893F83D30FB737B681B6C03F004035B
:103CBC00042B13D1FB7B282B10D17B680A4ADA62C8
:103CCC007B6800221A637B68202283F83D207B6886
:103CDC00002283F83E207868FEF769FE00BF10379B
:103CEC00BD4680BD993F00080000FFFF80B588B03D
:103CFC0002AFF8607A603B600B467B81FB68DB6A45
:103D0C007B617B69082B06D07B69012B03D07B6917
:103D1C0013F5803F08D1FB681B681A68FB681B68A9
:103D2C0042F480721A600BE0FB681B6B122B07D1FC
:103D3C00FB681B681A68FB681B6842F480721A6087
:103D4C003B6800937B6800224FF00111F86800F08B
:103D5C00C5F90346002B0DD0FB681B681B6803F4E8
:103D6C008073B3F5807F03D1FB684FF400721A6443
:103D7C00032335E0FB681B69B3F5804F08D17B89C1
:103D8C00DBB21A46FB681B6802F0FE021A611BE0EC
:103D9C007B89DB11DBB203F00603DBB263F00F03AC
:103DAC00DAB2FB681B681A613B687A680E49F868DE
:103DBC0000F00EFA0346002B01D0012310E07B89A2
:103DCC00DAB2FB681B681A613B687A680749F868C5
:103DDC0000F0FEF90346002B01D0012300E0002384
:103DEC0018461837BD4680BD0800010002000100CE
:103DFC0080B588B002AFF8607A603B600B467B817F
:103E0C00FB68DB6A7B61FB681B681A68FB681B68D4
:103E1C0042F480621A607B69082B06D07B69012B07
:103E2C0003D07B6913F5803F08D1FB681B681A68C7
:103E3C00FB681B6842F480721A600BE0FB681B6B1A
:103E4C00112B07D1FB681B681A68FB681B6842F4CE
:103E5C0080721A603B6800937B6800224FF001115E
:103E6C00F86800F03BF90346002B0DD0FB681B688B
:103E7C001B6803F48073B3F5807F03D1FB684FF4A8
:103E8C0000721A64032379E0FB681B69B3F5804F59
:103E9C0008D17B89DBB243F00103DAB2FB681B6803
:103EAC001A615FE07B89DB11DBB203F00603DBB246
:103EBC0063F00F03DAB2FB681B681A613B687A681F
:103ECC003049F86800F084F90346002B01D0012337
:103EDC0054E07B89DAB2FB681B681A613B687A682C
:103EEC002949F86800F074F90346002B01D001232E
:103EFC0044E000233B61FB681B685B693B61FB682A
:103F0C001B689B693B613B69FB681B681A68FB6813
:103F1C001B6842F480721A603B6800937B68002235
:103F2C004FF00111F86800F0D9F80346002B0DD0C2
:103F3C00FB681B681B6803F48073B3F5807F03D1A7
:103F4C00FB684FF400721A64032317E07B89DB11C2
:103F5C00DBB203F00603DBB263F00E03DAB2FB68EC
:103F6C001B681A613B687A680749F86800F030F9F9
:103F7C000346002B01D0012300E00023184618371C
:103F8C00BD4680BD080001000200010080B586B06E
:103F9C0000AF78600023FB607B685B6A7B617B69A8
:103FAC0093F83D30FB744B4B1B68DB084A4AA2FB71
:103FBC0003231A0A13469B001344DA00D31AFB603E
:103FCC00FB68002B06D17B691B6C43F020027B69DC
:103FDC001A640AE0FB68013BFB607B691B681B6889
:103FEC0003F40073B3F5007FEAD07B695B6B002BA5
:103FFC0003D07B695B6B00229A627B699B6B002B05
:10400C0003D07B699B6B00229A627B691B681A68E0
:10401C007B691B6822F480621A607B6900225A85D6
:10402C007B695B6B002B03D07B695B6B00225A6353
:10403C007B699B6B002B03D07B699B6B00225A63C3
:10404C007B691B681A687B691B6822F001021A6085
:10405C007B6993F83D30DBB2602B0ED17B6920225B
:10406C0083F83D207B69002283F83E207B69002287
:10407C001A647869FEF7BFFC27E0FB7C03F0280389
:10408C00282B17D17B691B681A687B691B6842F067
:10409C0001021A607B691B681A687B691B6842F411
:1040AC0080621A607B6900221A637B69282283F87C
:1040BC003D2007E07B69202283F83D207B690022AC
:1040CC0083F83E207869FEF78DFC00BF1837BD469B
:1040DC0080BD00BF0800002089B5F81480B584B0FD
:1040EC0000AFF860B9603B601346FB7148E03B6879
:1040FC00B3F1FF3F44D0FCF74FFD0246BB69D31A26
:10410C003A689A4202D33B68002B39D1BB681B0C2E
:10411C00DBB2012B0DD1FB681B685B69DA43BB6812
:10412C0013409BB2002B0CBF01230023DBB21A46B9
:10413C000CE0FB681B689B69DA43BB6813409BB2BD
:10414C00002B0CBF01230023DBB21A46FB799A42E9
:10415C0016D1FB6800221A63FB68202283F83D20ED
:10416C00FB68002283F83E20FB681B6C43F02002A6
:10417C00FB681A64FB68002283F83C20012323E0CF
:10418C00BB681B0CDBB2012B0DD1FB681B685B6998
:10419C00DA43BB6813409BB2002B0CBF01230023F6
:1041AC00DBB21A460CE0FB681B689B69DA43BB6800
:1041BC0013409BB2002B0CBF01230023DBB21A4629
:1041CC00FB799A4293D0002318461037BD4680BD28
:1041DC0080B584B000AFF860B9607A603B6071E084
:1041EC00FB681B685B6903F48063B3F5806F23D1B4
:1041FC00FB681B681A68FB681B6842F400721A6043
:10420C00FB681B686FF480625A61FB6800221A63BA
:10421C00FB68202283F83D20FB68002283F83E20B7
:10422C00FB681B6C43F00402FB681A64FB680022F9
:10423C0083F83C20012367E07B68B3F1FF3F41D05A
:10424C00FCF7AAFC02463B68D31A7A689A4202D35E
:10425C007B68002B36D1BB681B0CDBB2012B0CD15D
:10426C00FB681B685B69DA43BB6813409BB2002B8D
:10427C0014BF01230023DBB20BE0FB681B689B69B6
:10428C00DA43BB6813409BB2002B14BF01230023FD
:10429C00DBB2002B16D0FB6800221A63FB682022CD
:1042AC0083F83D20FB68002283F83E20FB681B6CE2
:1042BC0043F02002FB681A64FB68002283F83C2060
:1042CC00012321E0BB681B0CDBB2012B0CD1FB687A
:1042DC001B685B69DA43BB6813409BB2002B14BFAD
:1042EC0001230023DBB20BE0FB681B689B69DA43FC
:1042FC00BB6813409BB2002B14BF01230023DBB21D
:10430C00002B7FF46DAF002318461037BD4680BDDF
:10431C0080B584B000AFF860B9607A6034E0F868BA
:10432C0000F015F90346002B01D0012334E0BB68E3
:10433C00B3F1FF3F28D0FCF72FFC02467B68D31A61
:10434C00BA689A4202D3BB68002B1DD1FB681B686C
:10435C005B6903F08003802B16D0FB6800221A6384
:10436C00FB68202283F83D20FB68002283F83E2066
:10437C00FB681B6C43F02002FB681A64FB6800228C
:10438C0083F83C20012307E0FB681B685B6903F0A2
:10439C008003802BC3D1002318461037BD4680BD47
:1043AC0080B584B000AFF860B9607A6034E0F8682A
:1043BC0000F0CDF80346002B01D0012334E0BB689C
:1043CC00B3F1FF3F28D0FCF7E7FB02467B68D31A1A
:1043DC00BA689A4202D3BB68002B1DD1FB681B68DC
:1043EC005B6903F00403042B16D0FB6800221A63EC
:1043FC00FB68202283F83D20FB68002283F83E20D6
:10440C00FB681B6C43F02002FB681A64FB680022FB
:10441C0083F83C20012307E0FB681B685B6903F011
:10442C000403042BC3D1002318461037BD4680BDAE
:10443C0080B485B000AF78600023FB60134B1B6821
:10444C00DB08134AA2FB03231A0A13469B001344EE
:10445C00FB60FB68013BFB60FB68002B07D17B68B2
:10446C001B6C43F020027B681A64012308E07B6814
:10447C001B681B6803F40073B3F5007FE9D00023BD
:10448C0018461437BD4680BC704700BF080000209A
:10449C0089B5F81480B584B000AFF860B9607A6063
:1044AC0049E0FB681B685B6903F01003102B19D102
:1044BC00FB681B686FF010025A61FB6800221A63DC
:1044CC00FB68202283F83D20FB68002283F83E2005
:1044DC00FB681A6CFB681A64FB68002283F83C20AA
:1044EC00012330E0FCF758FB02467B68D31ABA680C
:1044FC009A4202D3BB68002B1DD1FB681B685B6919
:10450C0003F04003402B16D0FB6800221A63FB68B3
:10451C00202283F83D20FB68002283F83E20FB68B4
:10452C001B6C43F02002FB681A64FB68002283F8C2
:10453C003C20012307E0FB681B685B6903F0400328
:10454C00402BAED1002318461037BD4680BD80B439
:10455C0083B000AF78607B681B685B6903F4806391
:10456C00B3F5806F1BD17B681B686FF480625A6156
:10457C007B6800221A637B68202283F83D207B68CD
:10458C00002283F83E207B681B6C43F004027B689E
:10459C001A647B68002283F83C20012300E000238E
:1045AC0018460C37BD4680BC704780B483B000AF52
:1045BC0078607B68DB6AB3F52A0F03D17B68012234
:1045CC00DA6207E07B68DB6AB3F12A4F02D17B68C1
:1045DC000822DA6200BF0C37BD4680BC7047000071
:1045EC0080B586B000AF78607B68002B01D10123C9
:1045FC0072E27B681B6803F00103002B00F08780DC
:10460C00924B5B6803F00C03042B0CD08F4B5B6854
:10461C0003F00C03082B12D18C4B5B6803F4803332
:10462C00B3F5803F0BD1894B1B6803F40033002B8F
:10463C006CD07B685B68002B68D101234CE27B68F3
:10464C005B68B3F5803F06D1804B1B687F4A43F40F
:10465C00803313602EE07B685B68002B0CD17B4BA6
:10466C001B687A4A23F480331360784B1B68774AB3
:10467C0023F4802313601DE07B685B68B3F5A02FE7
:10468C000CD1724B1B68714A43F4802313606F4B3F
:10469C001B686E4A43F4803313600BE06B4B1B6852
:1046AC006A4A23F480331360684B1B68674A23F40F
:1046BC00802313607B685B68002B13D0FCF76CFACB
:1046CC00386108E0FCF768FA02463B69D31A642BA0
:1046DC0001D9032300E25D4B1B6803F40033002B6C
:1046EC00F0D014E0FCF758FA386108E0FCF754FA03
:1046FC0002463B69D31A642B01D90323ECE1534BDB
:10470C001B6803F40033002BF0D100E000BF7B6882
:10471C001B6803F00203002B63D04C4B5B6803F067
:10472C000C03002B0BD0494B5B6803F00C03082BDC
:10473C001CD1464B5B6803F48033002B16D1434BE2
:10474C001B6803F00203002B05D07B681B69012B4F
:10475C0001D00123C0E13D4B1B6823F0F8027B68BC
:10476C005B69DB00394913430B603AE07B681B69DA
:10477C00002B20D0364B01221A60FCF70DFA386161
:10478C0008E0FCF709FA02463B69D31A022B01D95F
:10479C000323A1E12D4B1B6803F00203002BF0D087
:1047AC002A4B1B6823F0F8027B685B69DB00274906
:1047BC0013430B6015E0264B00221A60FCF7ECF952
:1047CC00386108E0FCF7E8F902463B69D31A022B82
:1047DC0001D9032380E11D4B1B6803F00203002B5E
:1047EC00F0D17B681B6803F00803002B3AD07B6880
:1047FC009B69002B19D0174B01221A60FCF7CCF9DE
:10480C00386108E0FCF7C8F902463B69D31A022B61
:10481C0001D9032360E10D4B5B6A03F00203002B0B
:10482C00F0D0012000F0CEFA1CE00A4B00221A60F6
:10483C00FCF7B2F938610FE0FCF7AEF902463B69C0
:10484C00D31A022B08D9032346E100BF0010024003
:10485C000000424280044242924B5B6A03F0020326
:10486C00002BE9D17B681B6803F00403002B00F0DC
:10487C00A6800023FB758B4BDB6903F08053002B68
:10488C000DD1884BDB69874A43F08053D361854B4C
:10489C00DB6903F08053BB60BB680123FB75824B63
:1048AC001B6803F48073002B18D17F4B1B687E4A66
:1048BC0043F480731360FCF76FF9386108E0FCF780
:1048CC006BF902463B69D31A642B01D9032303E12C
:1048DC00754B1B6803F48073002BF0D07B68DB688E
:1048EC00012B06D16F4B1B6A6E4A43F00103136216
:1048FC002DE07B68DB68002B0CD16A4B1B6A694A84
:10490C0023F001031362674B1B6A664A23F004030E
:10491C0013621CE07B68DB68052B0CD1614B1B6AB6
:10492C00604A43F0040313625E4B1B6A5D4A43F01A
:10493C00010313620BE05B4B1B6A5A4A23F0010321
:10494C001362584B1B6A574A23F0040313627B68AB
:10495C00DB68002B15D0FCF71FF938610AE0FCF777
:10496C001BF902463B69D31A41F28832934201D9B2
:10497C000323B1E04B4B1B6A03F00203002BEED078
:10498C0014E0FCF709F938610AE0FCF705F9024676
:10499C003B69D31A41F28832934201D903239BE03D
:1049AC00404B1B6A03F00203002BEED1FB7D012B65
:1049BC0005D13C4BDB693B4A23F08053D3617B68C8
:1049CC00DB69002B00F08780364B5B6803F00C032F
:1049DC00082B61D07B68DB69022B46D1334B00225C
:1049EC001A60FCF7D9F8386108E0FCF7D5F80246F4
:1049FC003B69D31A022B01D903236DE0294B1B68A9
:104A0C0003F00073002BF0D17B681B6AB3F5803F79
:104A1C0008D1244B5B6823F400327B689B682149E6
:104A2C0013434B601F4B5B6823F474127B68196A49
:104A3C007B685B6A0B431B4913434B601B4B012286
:104A4C001A60FCF7A9F8386108E0FCF7A5F80246F3
:104A5C003B69D31A022B01D903233DE0114B1B6890
:104A6C0003F00073002BF0D035E0104B00221A60DD
:104A7C00FCF792F8386108E0FCF78EF802463B69C7
:104A8C00D31A022B01D9032326E0064B1B6803F033
:104A9C000073002BF0D11EE07B68DB69012B07D182
:104AAC00012319E0001002400070004060004242F7
:104ABC000B4B5B68FB60FB6803F480327B681B6A02
:104ACC009A4206D1FB6803F470127B685B6A9A42C7
:104ADC0001D0012300E0002318461837BD4680BDE5
:104AEC000010024080B584B000AF786039607B68FC
:104AFC00002B01D10123D0E06A4B1B6803F00703A4
:104B0C003A689A4210D9674B1B6823F00702654933
:104B1C003B6813430B60634B1B6803F007033A6855
:104B2C009A4201D00123B8E07B681B6803F00203B2
:104B3C00002B20D07B681B6803F00403002B05D0EE
:104B4C00594B5B68584A43F4E06353607B681B68BD
:104B5C0003F00803002B05D0534B5B68524A43F417
:104B6C0060535360504B5B6823F0F0027B689B688A
:104B7C004D4913434B607B681B6803F00103002B0A
:104B8C0040D07B685B68012B07D1474B1B6803F453
:104B9C000033002B15D101237FE07B685B68022B6F
:104BAC0007D1414B1B6803F00073002B09D1012383
:104BBC0073E03D4B1B6803F00203002B01D1012372
:104BCC006BE0394B5B6823F003027B685B6836490A
:104BDC0013434B60FBF7E0FFF8600AE0FBF7DCFFE8
:104BEC000246FB68D31A41F28832934201D903235F
:104BFC0053E02D4B5B6803F00C027B685B689B00F9
:104C0C009A42EBD1274B1B6803F007033A689A4290
:104C1C0010D2244B1B6823F0070222493B68134334
:104C2C000B60204B1B6803F007033A689A4201D0D3
:104C3C00012332E07B681B6803F00403002B08D0CF
:104C4C00194B5B6823F4E0627B68DB6816491343FD
:104C5C004B607B681B6803F00803002B09D0124BD8
:104C6C005B6823F460527B681B69DB000E491343BD
:104C7C004B6000F021F802460B4B5B681B0903F0FC
:104C8C000F030A49CB5C22FA03F3094A1360094B60
:104C9C001B681846FBF73EFF002318461037BD462D
:104CAC0080BD00BF00200240001002403CAB000859
:104CBC00080000200C00002080B487B000AF002357
:104CCC00FB600023BB6000237B6100237B6000231F
:104CDC003B611E4B5B68FB60FB6803F00C03042B11
:104CEC0002D0082B03D027E0194B3B6127E0FB686F
:104CFC009B0C03F00F03174AD35C7B60FB6803F437
:104D0C008033002B10D0114B5B685B0C03F001035C
:104D1C00114AD35CBB607B680D4A03FB02F2BB6893
:104D2C00B2FBF3F37B6104E07B680C4A02FB03F3F8
:104D3C007B617B693B6102E0054B3B6100BF3B69DA
:104D4C0018461C37BD4680BC704700BF001002409F
:104D5C0000127A0054AB000864AB000800093D0057
:104D6C0080B400AF024B1B681846BD4680BC704730
:104D7C000800002080B500AFFFF7F2FF0246054B9C
:104D8C005B681B0A03F007030349CB5C22FA03F3AD
:104D9C00184680BD001002404CAB000880B500AF37
:104DAC00FFF7DEFF0246054B5B68DB0A03F00703E7
:104DBC000349CB5C22FA03F3184680BD0010024075
:104DCC004CAB000880B485B000AF78600A4B1B6810
:104DDC000A4AA2FB03235B0A7A6802FB03F3FB601B
:104DEC0000BFFB685A1EFA60002BF9D100BF00BF50
:104DFC001437BD4680BC704708000020D34D6210AC
:104E0C0080B582B000AF78607B68002B01D10123A4
:104E1C0042E07B6893F84130DBB2002B06D17B6813
:104E2C00002283F840207868FBF76AFD7B68242217
:104E3C0083F841207B681B68DA687B681B6822F466
:104E4C000052DA60786800F01DF97B681B681A69FB
:104E5C007B681B6822F490421A617B681B685A6954
:104E6C007B681B6822F02A025A617B681B68DA682F
:104E7C007B681B6842F40052DA607B6800225A643B
:104E8C007B68202283F841207B68202283F8422013
:104E9C007B6800225A63002318460837BD4680BD44
:104EAC0080B58AB002AFF860B9603B601346FB80F6
:104EBC0000237B61FB6893F84130DBB2202B6DD172
:104ECC00BB68002B02D0FB88002B01D1012366E0CC
:104EDC00FB6800225A64FB68212283F84120FBF70F
:104EEC005BFE7861FB68FA889A84FB68FA88DA843E
:104EFC00FB689B68B3F5805F08D1FB681B69002BCE
:104F0C0004D10023FB61BB68BB6103E0BB68FB61A0
:104F1C000023BB612AE03B6800937B69002280215F
:104F2C00F86800F040F80346002B01D0032336E06C
:104F3C00FB69002B0BD1BB691B881A46FB681B68ED
:104F4C00C2F308025A60BB690233BB6107E0FB691C
:104F5C001A78FB681B685A60FB690133FB61FB68BC
:104F6C00DB8C9BB2013B9AB2FB68DA84FB68DB8C6E
:104F7C009BB2002BCFD13B6800937B690022402170
:104F8C00F86800F010F80346002B01D0032306E06C
:104F9C00FB68202283F84120002300E002231846FE
:104FAC002037BD4680BD80B590B000AFF860B960C9
:104FBC003B601346FB7150E0BB6CB3F1FF3F4CD030
:104FCC00BB6C002B07D0FBF7E7FD02463B68D31AFE
:104FDC00BA6C9A4241D2FB681B680C33BB62BB6A49
:104FEC0053E8003F7B627B6A23F4D073FB63FB685E
:104FFC001B680C33FA6B7A633B63396B7A6B41E851
:10500C000023FB62FB6A002BE5D1FB681B681433A1
:10501C007B617B6953E8003F3B613B6923F00103F3
:10502C00BB63FB681B681433BA6B3A62FB61F969AA
:10503C003A6A41E80023BB61BB69002BE5D1FB68F0
:10504C00202283F84120FB68202283F84220FB6851
:10505C00002283F8402003230FE0FB681B681A68CA
:10506C00BB681340BA689A420CBF01230023DBB221
:10507C001A46FB799A429FD0002318464037BD460A
:10508C0080BD000080B584B000AF78607B681B6881
:10509C001B6923F440517B68DA687B681B680A4300
:1050AC001A617B689A687B681B691A437B685B6929
:1050BC001343BB607B681B68DB6823F4B05323F09D
:1050CC000C037A681268B9680B43D3607B681B6861
:1050DC005B6923F440717B689A697B681B680A439F
:1050EC005A617B681B682C4A934203D1FFF756FE2A
:1050FC00F86002E0FFF73EFEF860FA6813469B008A
:10510C0013449A001A447B685B689B00B2FBF3F370
:10511C00224AA2FB03235B091901FA6813469B0080
:10512C0013449A001A447B685B689B00B2FBF3F251
:10513C001A4BA3FB02035B09642000FB03F3D31A95
:10514C001B013233154AA2FB03235B0903F0F00366
:10515C001944FA6813469B0013449A001A447B685E
:10516C005B689B00B2FBF3F20C4BA3FB02035B09E5
:10517C00642000FB03F3D31A1B013233074AA2FB52
:10518C0003235B0903F00F027B681B680A449A60D7
:10519C0000BF1037BD4680BD003801401F85EB5164
:1051AC0080B584B000AF786039600023FB73396838
:1051BC00786801F0AAFC0346FB7397F90F30184688
:1051CC001037BD4680BD0000B0B596B000AF78601A
:1051DC00002387F8573097F95730002B07D100225E
:1051EC008821786804F09AFE034687F857307B686C
:1051FC00002283F8F0207B684FF47A72A3F85221D6
:10520C007B684FF4C872A3F854217B689E4AC3F89C
:10521C0058217B689D4AC3F8D4207B6800221A620F
:10522C0007F110031946786800F0C1FA034687F8B5
:10523C00573097F95730002B12D100233B740023C1
:10524C007B747B6803F1100407F110050FCD0FC4BC
:10525C000FCD0FC40FCD0FC495E80F0084E80F00DD
:10526C007B686422A3F834217B684FF46172A3F845
:10527C0036217B684FF4FA72A3F838217B684FF41F
:10528C002062A3F83C217B68012283F85021012283
:10529C008021786804F042FE03461A4697F857308E
:1052AC00134387F857300122FF21786804F036FE4B
:1052BC0003461A4697F85730134387F857300022A5
:1052CC000021786804F02AFE03461A4697F85730F6
:1052DC00134387F8573007F10F031A46912178686A
:1052EC0004F09EFE03461A4697F85730134387F88E
:1052FC005730FA7B7B6883F83A21012200217868C9
:10530C0004F00CFE03461A4697F85730134387F8FF
:10531C0057300022FF21786804F000FE03461A463D
:10532C0097F85730134387F857300022802178685C
:10533C0004F0F4FD03461A4697F85730134387F8E8
:10534C00573000233B6514E097F95730002B14D1EC
:10535C003B6D9BB201221946786800F031FD034683
:10536C001A4697F85730134387F857303B6D013383
:10537C003B653B6D052BE7DD00E000BF97F957302F
:10538C00002B07D100220221786800F019FD03469A
:10539C0087F8573097F95730002B07D1002203219B
:1053AC00786800F00DFD034687F8573097F95730B1
:1053BC00002B07D100220421786800F001FD034680
:1053CC0087F8573097F95730002B07D10022052169
:1053DC00786800F0F5FC034687F8573097F957309A
:1053EC00002B08D14FF490120021786800F096FD44
:1053FC00034687F8573097F95730002B08D14FF4F4
:10540C0080420121786800F089FD034687F8573007
:10541C0097F95730002B08D14FF40C120221786801
:10542C0000F07CFD034687F8573097F95730002B76
:10543C0007D100220321786800F070FD034687F83D
:10544C00573097F95730002B0FD17B68FF2283F828
:10545C003021FF220121786804F060FD034687F8B3
:10546C0057307B68012283F8322197F95730002B93
:10547C0003D17B68002283F8152197F95730184621
:10548C005837BD46B0BD00BF856B0100A470090044
:10549C00B0B59EB002AF7860002387F86F3007F18B
:1054AC001C0340220021184604F088FE00237B8355
:1054BC0000237B76002387F8673000233B660023AC
:1054CC003B7600237B61002387F85F3001217868ED
:1054DC0002F06DFA034687F86F307B6893F813314E
:1054EC003B667B6893F8143187F85F3097F85F3030
:1054FC00012B0DD897F85F30012B02D13B6E202B7E
:10550C0006D897F85F30002B0ED13B6E0C2B0BD9C5
:10551C0007F1180207F114031946786801F0EFFC43
:10552C00034687F86F3009E097F85F301A46396EFA
:10553C00786801F0F0FE034687F86F30944BBB6639
:10554C0097F96F30002B0FD17B6893F8503187F8A7
:10555C00673097F86730002B04D17B68D3F84C3157
:10556C00BB6601E08A4BBB6697F96F30002B06D106
:10557C00B96E786803F0BCFD034687F86F3097F975
:10558C006F30002B0AD1002300930423002200214A
:10559C00786801F0EBF8034687F86F3097F96F30B5
:1055AC00002B21D10122FF21786804F0B7FC0346BF
:1055BC0087F86F3007F11A031A468421786804F0D3
:1055CC0059FD03461A4697F86F30134387F86F302E
:1055DC000022FF21786804F0A1FC03461A4697F8D4
:1055EC006F30134387F86F3097F96F30002B05D16C
:1055FC007B8B1B011A467B68C3F8D42097F96F305C
:10560C00002B08D107F11C031946786800F0CFF87D
:10561C00034687F86F3097F96F30002B10D107F1E4
:10562C0019031946786800F091F9034687F86F3032
:10563C0097F96F30002B03D17A7E7B6883F8312188
:10564C0097F96F30002B0ED17B6803F1100407F132
:10565C001C050FCD0FC40FCD0FC40FCD0FC495E893
:10566C000F0084E80F0097F96F30002B11D107F170
:10567C0019031A460121786804F0D2FC034687F816
:10568C006F3097F96F30002B03D17A7E7B6883F8EB
:10569C00302197F96F30002B07D100220021786858
:1056AC0000F0C8F9034687F86F3097F96F30002B7C
:1056BC0007D100220221786800F0BCF9034687F874
:1056CC006F3097F96F30002B03D17B68032283F87E
:1056DC00322197F96F30002B09D107F113031A46C9
:1056EC000021786800F08FF9034687F86F3097F93E
:1056FC006F30002B03D1FA7C7B6883F8E82097F994
:10570C006F30002B09D107F113031A460121786879
:10571C0000F079F9034687F86F3097F96F30002B5A
:10572C0003D1FA7C7B6883F8E02097F96F30002B6B
:10573C0009D107F10C031A460321786802F0B6FE72
:10574C00034687F86F3097F96F30002B03D1FA6856
:10575C007B68C3F8E42097F96F30002B09D107F16F
:10576C000C031A460421786802F0A0FE034687F861
:10577C006F3097F96F30002B03D1FA687B68C3F850
:10578C00DC2097F96F3018467037BD46B0BD00BFAE
:10579C001400002080B485B000AF78609D23FB73AB
:1057AC0097F90F3018461437BD4680BC704780B54A
:1057BC0084B000AF786039600023FB733B681946F6
:1057CC00786800F0B1F80346FB7397F90F30002BA3
:1057DC0007D13B6808331946786800F075FA034620
:1057EC00FB7397F90F30002B02D13B6800221A7320
:1057FC0097F90F30002B07D13B68103319467868A6
:10580C0000F0AAFA0346FB7397F90F30002B07D16F
:10581C003B68143319467868FFF7C2FC0346FB73E8
:10582C0097F90F30002B34D10023BB602AE097F995
:10583C000F30002B2AD1BB6899B2BB6808339B0090
:10584C003A68134404331A46786800F0C9FB0346DF
:10585C001A46FB7B1343FB7397F90F30002B17D1C0
:10586C00BB6899B2BB6818333A6813441A46786817
:10587C0000F032FB03461A46FB7B1343FB73BB68F9
:10588C000133BB60BB68052BD1DD02E000BF00E03B
:10589C0000BF97F90F30002B07D13B683C331946FA
:1058AC00786800F02BFC0346FB7397F90F30002B44
:1058BC0007D13B6804331946786800F079F8034641
:1058CC00FB7397F90F3018461037BD4680BD0000AA
:1058DC0080B485B000AF78600B46FB700023FB737F
:1058EC00FB78152B8CBF01220022D2B2002A0FD1DB
:1058FC000C4A22FA03F303F00103002B14BF01231B
:10590C000023DBB2002B03D07B68FA781A7401E019
:10591C00F823FB7397F90F3018461437BD4680BC3B
:10592C00704700BF0B00300080B485B000AF7860CA
:10593C0039600023FB737B681A7C3B681A7097F9FB
:10594C000F3018461437BD4680BC704780B584B004
:10595C0000AF786039600023FB733A6809217868DE
:10596C0004F05EFB0346FB7397F90F30002B06D156
:10597C003B681B7803F00103DAB23B681A7097F9A5
:10598C000F3018461037BD4680BD80B584B000AFCF
:10599C00786039600023FB733968786803F017FA74
:1059AC000346FB7397F90F3018461037BD4680BD80
:1059BC0080B584B000AF786039600023FB73396820
:1059CC00786803F0E4FA0346FB7397F90F30184636
:1059DC001037BD4680BD80B584B000AF78600B46F3
:1059EC00FB701346BB700023FB73BA78FB78194627
:1059FC00786802F02EFF0346FB7397F90F301846B8
:105A0C001037BD4680BD80B586B000AFF8600B4640
:105A1C007A60FB720023FB75FB7A7A681946F8688A
:105A2C0003F09EF90346FB7597F9173018461837A3
:105A3C00BD4680BD80B586B000AF78600B46FB706C
:105A4C001346BB700023FB750023FB730023BB754F
:105A5C0007F10F031A460121786804F0E1FA0346B6
:105A6C00FB75FB7BBB7597F91730002B59D1BB78B5
:105A7C00012B2BD1FB78042B25D801A252F823F053
:105A8C00A15A0008AB5A0008B55A0008BF5A0008C2
:105A9C00C95A0008BB7D43F01003BB7541E0BB7DC8
:105AAC0043F02803BB753CE0BB7D43F00403BB759E
:105ABC0037E0BB7D43F04003BB7532E0BB7D63F048
:105ACC007F03BB752DE0FC23FB752AE0FB78042BD0
