:020000040800F2
:1000000000500020FD0B0008F9090008FF09000856
:10001000050A00080B0A0008110A00080000000089
:10002000000000000000000000000000170A0008A7
:10003000230A0008000000002F0A00083B0A0008FD
:10004000450C0008450C0008450C0008450C00084C
:10005000450C0008450C0008450C0008450C00083C
:10006000450C0008450C0008450C0008450C00082C
:10007000450C0008450C0008450C0008450C00081C
:10008000450C0008450C0008450C0008450C00080C
:10009000450C0008490A0008450C0008450C0008FA
:1000A000450C0008450C0008450C0008450C0008EC
:1000B0005D0A0008450C0008450C0008450C0008C6
:1000C000450C0008450C0008450C0008450C0008CC
:1000D000450C0008450C0008450C0008450C0008BC
:1000E000450C0008450C0008450C00080000000005
:1000F0000000000000000000000000000000000000
:0C01000000000000000000005FF808F1A3
:10010C0010B5054C237833B9044B13B10448AFF345
:10011C0000800123237010BD74000020000000003B
:10012C001041000808B5034B1BB103490348AFF35A
:10013C00008008BD0000000078000020104100087D
:10014C0080B489B000AF786039600023FB61002374
:10015C00BB610023FB6000237B6100233B61002318
:10016C007B612BE07B69002B02D10023BB6107E094
:10017C003A687B69D31A1A467B6813441B78BB61B7
:10018C00FA69BB695340FB6108233B6110E0FB69D2
:10019C00FB60FB695B00FB61FB6803F08003002BD9
:1001AC0003D0FB6983F01D03FB613B69013B3B61A1
:1001BC003B69002BEBDC7B6901337B617A693B6823
:1001CC009A42CFDBFB6918462437BD4680BC70478A
:1001DC0080B500AF1C4BA2221A601B4B00229A6008
:1001EC00194B0022DA60184B08221A6102F09CFFAE
:1001FC0003465A4203F00F0302F00F0258BF53425A
:10020C00DAB2124B1A7002F08FFF03465A4203F017
:10021C000F0302F00F0258BF5342DAB20B4B5A7065
:10022C000A4B9B795A1C0A4B83FB02131344D910BB
:10023C00D317C91A0B461B015B1AD11ACAB2034B4E
:10024C009A7100BF80BD00BFB800002000000020E4
:10025C008988888880B582B000AF7860084B094ADD
:10026C000949786800F078FF0346002B04D14FF45D
:10027C008061064801F052FE00BF0837BD4680BDC4
:10028C000800002000000020B8000020000C0140F5
:10029C0080B582B000AF78600D4B0E4A01217868B2
:1002AC0001F029F80346002B01D000F06BFA094B42
:1002BC001B68122B07D1084B01221A704FF4805186
:1002CC00064801F02BFE00BF0837BD4680BD00BFBD
:1002DC00940000209C00002090000020000C0140A5
:1002EC0080B582B000AF78607B681A68074B1B68DA
:1002FC009A4207D14FF40051054801F00FFE054B0F
:10030C0001221A7000BF0837BD4680BDF8000020DE
:10031C0000100140D001002080B582B000AF00F089
:10032C008DFC00F067F800F0A3F900F0A9F800F0DC
:10033C004BF900F073F900F0F9F8274802F068FA6D
:10034C00264800F0C5FE0346002B01D000F01AFA37
:10035C001021224801F0F0F8214B1B78012B0BD116
:10036C001F4B00221A70FFF733FF1C48FFF772FF78
:10037C004FF4FA6000F0C4FC1A4B1B78012BEBD144
:10038C00184B00221A70184B1A78184B1B789A428B
:10039C00E2D1154B5A78154B5B789A42DCD1124B53
:1003AC009B781A46114B1B781946104B5B780B4403
:1003BC009A42D1D107210C48FFF7C2FE0346FB71CC
:1003CC00094BDB79FA799A42C6D14FF4006108489F
:1003DC0001F0A4FDC0E700BFF8000020D000002011
:1003EC00D00100209000002094000020000000208C
:1003FC00000C014080B590B000AF07F11803282223
:10040C000021184602F0D3FF3B1D00221A605A60EF
:10041C009A60DA601A610123BB614FF48033FB618F
:10042C0000233B620123BB6202237B634FF48033C6
:10043C00BB634FF4E013FB6307F11803184601F09C
:10044C0087FD0346002B01D000F09CF90F237B6045
:10045C000223BB600023FB604FF480633B610023ED
:10046C007B613B1D0221184601F0F4FF0346002B73
:10047C0001D000F087F900BF4037BD4680BD0000B9
:10048C0080B58AB000AF274B274A1A60254B04224F
:10049C005A60244B00229A60224B4FF08072DA6033
:1004AC00204B4FF440221A611E4B4FF440125A61FC
:1004BC001C4B00221A761B4B00225A76194B002239
:1004CC009A76184B0022DA76164B00221A77154BC7
:1004DC0000225A77134800F037FC0346002B01D05A
:1004EC0000F050F901233B620C237B6101233B613B
:1004FC004FF410733B6000237B604FF41073BB60B0
:10050C000023FB600023BB610123FB610D237B6295
:10051C003B461946034800F012FD00BF2837BD4684
:10052C0080BD00BFD00000200064004080B586B0C4
:10053C0000AF07F1080300221A605A609A60DA6073
:10054C003B4600221A605A601E4B4FF080421A60E4
:10055C001C4B40F60F625A601A4B00229A60194BE2
:10056C0040F2E732DA60174B00221A61154B002279
:10057C009A61144802F0FCF80346002B01D000F0FD
:10058C0001F94FF48053BB6007F1080319460D487D
:10059C0002F098FA0346002B01D000F0F3F8002388
:1005AC003B6000237B603B461946064802F06EFC1C
:1005BC000346002B01D000F0E5F800BF1837BD460C
:1005CC0080BD00BFF800002080B500AF114B124A6F
:1005DC001A60104B4FF4E1325A600E4B00229A60B5
:1005EC000C4B0022DA600B4B00221A61094B0C22D7
:1005FC005A61084B00229A61064B0022DA610548C9
:10060C0002F0B4FC0346002B01D000F0BBF800BF95
:10061C0080BD00BF400100200038014080B500AF14
:10062C00114B124A1A60104B4FF4E1325A600E4BC8
:10063C0000229A600C4B0022DA600B4B00221A61EC
:10064C00094B0C225A61084B00229A61064B00227E
:10065C00DA61054802F08AFC0346002B01D000F059
:10066C0091F800BF80BD00BF88010020004400400D
:10067C0080B588B000AF07F1100300221A605A60F1
:10068C009A60DA603B4B9B693A4A43F010039361E2
:10069C00384B9B6903F01003FB60FB68354B9B697F
:1006AC00344A43F020039361324B9B6903F02003DF
:1006BC00BB60BB682F4B9B692E4A43F004039361CC
:1006CC002C4B9B6903F004037B607B68294B9B6973
:1006DC00284A43F008039361264B9B6903F00803F7
:1006EC003B603B6800224FF40051234801F0FEFBB5
:1006FC00012241F60841214801F0F8FB4FF4005368
:10070C003B6101237B610023BB610223FB6107F189
:10071C0010031946184801F065FA03233B610023C6
:10072C007B610023BB6107F110031946134801F0EC
:10073C0059FA41F608433B6101237B610023BB61FD
:10074C000223FB6107F1100319460C4801F04AFA29
:10075C004FF400733B610A4B7B610023BB6107F1D3
:10076C0010031946054801F03DFA00BF2037BD467D
:10077C0080BD00BF0010024000100140000C014081
:10078C000000111080B400AF72B600BFFEE700008D
:10079C0080B485B000AF154B9B69144A43F001033C
:1007AC009361124B9B6903F00103BB60BB680F4B59
:1007BC00DB690E4A43F08053D3610C4BDB6903F0C9
:1007CC0080537B607B680A4B5B68FB60FB6823F0A3
:1007DC00E063FB60FB6843F00073FB60044AFB685A
:1007EC00536000BF1437BD4680BC704700100240F8
:1007FC000000014080B588B000AF786007F11003AD
:10080C0000221A605A609A60DA607B681B68204A82
:10081C00934239D11F4BDB691E4A43F00073D361FD
:10082C001C4BDB6903F00073FB60FB68194B9B6985
:10083C00184A43F004039361164B9B6903F00403BD
:10084C00BB60BB684FF400633B6100237B610023FA
:10085C00BB6107F1100319460F4801F0C3F94FF4BF
:10086C0080533B6102237B610323FB6107F110037F
:10087C001946094801F0B6F900220021152001F0B3
:10088C007AF9152001F093F900BF2037BD4680BDE1
:10089C0000640040001002400008014080B584B0A4
:1008AC0000AF78607B681B68B3F1804F13D10C4BA1
:1008BC00DB690B4A43F00103D361094BDB6903F09D
:1008CC000103FB60FB68002200211C2001F053F99E
:1008DC001C2001F06CF900BF1037BD4680BD00BF75
:1008EC000010024080B58AB000AF786007F11803A1
:1008FC0000221A605A609A60DA607B681B68374A7B
:10090C00934232D1364B9B69354A43F48043936111
:10091C00334B9B6903F480437B617B69304B9B6950
:10092C002F4A43F0040393612D4B9B6903F004039E
:10093C003B613B694FF40073BB610223FB610323F2
:10094C007B6207F118031946264801F04BF94FF466
:10095C008063BB610023FB6100233B6207F118033A
:10096C001946204801F03EF934E07B681B681E4AAA
:10097C0093422FD11A4BDB69194A43F40033D361EC
:10098C00174BDB6903F40033FB60FB68144B9B696A
:10099C00134A43F004039361114B9B6903F0040366
:1009AC00BB60BB680423BB610223FB6103237B6236
:1009BC0007F1180319460B4801F014F90823BB6121
:1009CC000023FB6100233B6207F11803194605481D
:1009DC0001F008F900BF2837BD4680BD0038014042
:1009EC0000100240000801400044004080B400AFF9
:1009FC00FEE780B400AFFEE780B400AFFEE780B442
:100A0C0000AFFEE780B400AFFEE780B400AF00BFDC
:100A1C00BD4680BC704780B400AF00BFBD4680BCF3
:100A2C00704780B400AF00BFBD4680BC704780B536
:100A3C0000AF00F049F900BF80BD000080B500AFE9
:100A4C00024800F09EFD00BF80BD00BFD00000201A
:100A5C0080B500AF024801F02DFF00BF80BD00BF84
:100A6C00F800002080B400AF01231846BD4680BCBE
:100A7C00704780B582B000AF7860396002F0E6FC58
:100A8C00034616221A604FF0FF3318460837BD464E
:100A9C0080BD80B582B000AF78604FF0FF317868D0
:100AAC00FFF7E7FFFEE780B586B000AFF860B960EE
:100ABC007A6000237B610AE0AFF300800146BB68DB
:100ACC005A1CBA60CAB21A707B6901337B617A69AD
:100ADC007B689A42F0DB7B6818461837BD4680BDB0
:100AEC0080B586B000AFF860B9607A6000237B6196
:100AFC0009E0BB685A1CBA601B781846AFF300803B
:100B0C007B6901337B617A697B689A42F1DB7B6894
:100B1C0018461837BD4680BD80B483B000AF7860EE
:100B2C004FF0FF3318460C37BD4680BC704780B47D
:100B3C0083B000AF786039603B684FF400525A6064
:100B4C00002318460C37BD4680BC704780B483B078
:100B5C0000AF7860012318460C37BD4680BC704747
:100B6C0080B485B000AFF860B9607A600023184695
:100B7C001437BD4680BC704780B586B000AF786036
:100B8C00144A154BD31A7B617B693B61134B1B6871
:100B9C00002B02D1114B124A1A60104B1A687B6859
:100BAC0013443A699A4207D202F050FC03460C22D5
:100BBC001A604FF0FF3309E0084B1B68FB60074BD2
:100BCC001A687B681344054A1360FB68184618378B
:100BDC00BD4680BD0050002000040000D401002060
:100BEC002803002080B400AF00BFBD4680BC704716
:100BFC00FFF7F8FF0B480C490C4A002302E0D458CD
:100C0C00C4500433C4188C42F9D3094A094C00234C
:100C1C0001E013600432A242FBD302F01DFCFFF78B
:100C2C007BFB704700000020740000203842000855
:100C3C007400002028030020FEE7000080B500AF00
:100C4C00084B1B68074A43F010031360032000F0A5
:100C5C0087FF0F2000F008F8FFF79AFD00231846D5
:100C6C0080BD00BF0020024080B582B000AF78602C
:100C7C00124B1A68124B1B7819464FF47A73B3FB5C
:100C8C00F1F3B2FBF3F3184600F09FFF0346002B81
:100C9C0001D001230EE07B680F2B0AD80022796863
:100CAC004FF0FF3000F067FF064A7B6813600023AB
:100CBC0000E0012318460837BD4680BD0C0000201B
:100CCC00140000201000002080B400AF054B1B78EE
:100CDC001A46054B1B681344034A136000BFBD46FC
:100CEC0080BC704714000020D801002080B400AFF5
:100CFC00024B1B681846BD4680BC7047D8010020CB
:100D0C0080B584B000AF7860FFF7F0FFB8607B6807
:100D1C00FB60FB68B3F1FF3F05D00A4B1B781A460A
:100D2C00FB681344FB6000BFFFF7E0FF0246BB68A3
:100D3C00D31AFA689A42F7D800BF00BF1037BD46E5
:100D4C0080BD00BF1400002080B584B000AF786077
:100D5C007B68002B01D10123EDE07B6893F82030F8
:100D6C00DBB2002B02D17868FFF744FD7B681B686F
:100D7C001A687B681B6842F001021A60FFF7B6FF25
:100D8C00F86012E0FFF7B2FF0246FB68D31A0A2B99
:100D9C000BD97B685B6A43F400327B685A627B68D0
:100DAC00052283F820200123C5E07B681B685B6863
:100DBC0003F00103002BE5D07B681B681A687B6885
:100DCC001B6822F002021A60FFF790FFF86012E035
:100DDC00FFF78CFF0246FB68D31A0A2B0BD97B68F2
:100DEC005B6A43F400327B685A627B68052283F8A5
:100DFC00202001239FE07B681B685B6803F00203E3
:100E0C00002BE5D17B681B7E012B08D17B681B680E
:100E1C001A687B681B6842F080021A6007E07B68E6
:100E2C001B681A687B681B6822F080021A607B685A
:100E3C005B7E012B08D17B681B681A687B681B687A
:100E4C0042F040021A6007E07B681B681A687B68F6
:100E5C001B6822F040021A607B689B7E012B08D134
:100E6C007B681B681A687B681B6842F020021A605A
:100E7C0007E07B681B681A687B681B6822F02002FD
:100E8C001A607B68DB7E012B08D17B681B681A68B3
:100E9C007B681B6822F010021A6007E07B681B68F5
:100EAC001A687B681B6842F010021A607B681B7F13
:100EBC00012B08D17B681B681A687B681B6842F0A1
:100ECC0008021A6007E07B681B681A687B681B685D
:100EDC0022F008021A607B685B7F012B08D17B68CB
:100EEC001B681A687B681B6842F004021A6007E0F2
:100EFC007B681B681A687B681B6822F004021A6006
:100F0C007B689A687B68DB681A437B681B691A43A9
:100F1C007B685B6942EA03017B685B685A1E7B68ED
:100F2C001B680A43DA617B6800225A627B680122E3
:100F3C0083F82020002318461037BD4680BD80B4AE
:100F4C0087B000AF786039607B681B687B617B6819
:100F5C0093F82030FB74FB7C012B03D0FB7C022B21
:100F6C0040F0AA807B69D3F8003243F001027B6920
:100F7C00C3F800223B685B6903F01F03012202FAED
:100F8C0003F3FB607B69D3F81C22FB68DB431A403C
:100F9C007B69C3F81C223B68DB69002B23D17B697E
:100FAC00D3F80C22FB68DB431A407B69C3F80C2294
:100FBC003B68DB6819043B685B689BB23A68526912
:100FCC0019437B69483243F832103B689B6819041B
:100FDC003B681B689AB23B685B690A437969483382
:100FEC00DB000B445A603B68DB69012B22D17B6927
:100FFC00D3F80C22FB681A437B69C3F80C223B68BC
:10100C001B6819043B685B689BB23A6852691943C8
:10101C007B69483243F832103B689B6819043B6883
:10102C00DB689AB23B685B690A4379694833DB0039
:10103C000B445A603B689B69002B09D17B69D3F840
:10104C000422FB68DB431A407B69C3F8042207E0E7
:10105C007B69D3F80422FB681A437B69C3F804222A
:10106C003B681B69002B09D17B69D3F81422FB6800
:10107C00DB431A407B69C3F8142207E07B69D3F881
:10108C001422FB681A437B69C3F814223B681B6A61
:10109C00012B07D17B69D3F81C22FB681A437B69AF
:1010AC00C3F81C227B69D3F8003223F001027B6960
:1010BC00C3F80022002306E07B685B6A43F48022BD
:1010CC007B685A62012318461C37BD4680BC7047AA
:1010DC0080B584B000AF78607B6893F82030DBB2C9
:1010EC00012B2ED17B68022283F820207B681B68A1
:1010FC001A687B681B6822F001021A60FFF7F6FD84
:10110C00F86012E0FFF7F2FD0246FB68D31A0A2BD7
:10111C000BD97B685B6A43F400327B685A627B684C
:10112C00052283F82020012312E07B681B685B6892
:10113C0003F00103002BE5D17B6800225A620023E7
:10114C0006E07B685B6A43F400227B685A620123E9
:10115C0018461037BD4680BD80B489B000AFF8602A
:10116C00B9607A603B60FB6893F82030FB77FB68D2
:10117C001B689B68BB61FB7F012B03D0FB7F022BA1
:10118C0040F0AD80BB6903F08063002B0AD1BB69D2
:10119C0003F00063002B05D1BB6903F08053002BD7
:1011AC0000F09580BB691B0E03F003037B610122E9
:1011BC007B699A403B681A60BB689B68002B0DD119
:1011CC00BB681B685A05BB68DB68F96809681A4379
:1011DC007B6918331B010B441A600FE0BB685B681A
:1011EC00DA00BB689B681A43BB68DB68F96809685E
:1011FC001A437B6918331B010B441A60FB6819688E
:10120C00BB681A697B6918331B010B4404331A60E1
:10121C00BB681B7D012B11D1FB681A687B691833E5
:10122C001B01134404331B68FA68116843F4807281
:10123C007B6918331B010B4404331A607B6807333A
:10124C001B781A067B6806331B781B041A437B68D1
:10125C0005331B781B0213437A680432127810464C
:10126C00FA68116843EA00027B691B010B4403F521
:10127C00C6731A607B6803331B781A067B680233CB
:10128C001B781B041A437B6801331B781B02134326
:10129C007A6812781046FA68116843EA00027B6992
:1012AC001B010B4403F5C4731A60FB681A687B6955
:1012BC0018331B0113441B68FA68116843F00102D0
:1012CC007B6918331B010B441A6000230EE0FB688A
:1012DC005B6A43F40012FB685A62012306E0FB6868
:1012EC005B6A43F48022FB685A6201231846243758
:1012FC00BD4680BC704780B487B000AFF860B96061
:10130C007A603B60FB6893F82030FB75FB7D012B0A
:10131C0003D0FB7D022B40F00381BB68002B0ED168
:10132C00FB681B68DB6803F00303002B16D1FB681A
:10133C005B6A43F40012FB685A620123F7E0FB6816
:10134C001B681B6903F00303002B07D1FB685B6A66
:10135C0043F40012FB685A620123E8E0FB681A6848
:10136C00BB681B331B0113441B6803F004027B682E
:10137C009A607B689B68002B0CD1FB681A68BB6871
:10138C001B331B0113441B685B0DC3F30A027B6800
:10139C001A600BE0FB681A68BB681B331B01134413
:1013AC001B68DB0823F060427B685A60FB681A6894
:1013BC00BB681B331B0113441B6803F002027B68E0
:1013CC00DA60FB681A68BB681B331B0113440433D7
:1013DC001B6803F00803002B03D07B6808221A61FA
:1013EC000BE0FB681A68BB681B331B011344043306
:1013FC001B6803F00F027B681A61FB681A68BB68F4
:10140C001B331B01134404331B681B0ADAB27B68C1
:10141C009A61FB681A68BB681B331B0113440433C5
:10142C001B681B0C9AB27B685A61FB681A68BB6814
:10143C001B01134403F5DC731B68DAB23B681A70AA
:10144C00FB681A68BB681B01134403F5DC731B684B
:10145C001A0A3B680133D2B21A70FB681A68BB686F
:10146C001B01134403F5DC731B681A0C3B68023335
:10147C00D2B21A70FB681A68BB681B01134403F5DF
:10148C00DC731B681A0E3B680333D2B21A70FB680C
:10149C001A68BB681B01134403F5DE731A683B68BA
:1014AC000433D2B21A70FB681A68BB681B01134470
:1014BC0003F5DE731B681A0A3B680533D2B21A7047
:1014CC00FB681A68BB681B01134403F5DE731B68C9
:1014DC001A0C3B680633D2B21A70FB681A68BB68E8
:1014EC001B01134403F5DE731B681A0E3B680733AC
:1014FC00D2B21A70BB68002B08D1FB681B68DA6883
:10150C00FB681B6842F02002DA6007E0FB681B688E
:10151C001A69FB681B6842F020021A61002306E07E
:10152C00FB685B6A43F48022FB685A62012318460D
:10153C001C37BD4680BC704780B485B000AF786066
:10154C0039607B6893F82030FB73FB7B012B02D056
:10155C00FB7B022B09D17B681B6859697B681B6874
:10156C003A680A435A61002306E07B685B6A43F4DD
:10157C0080227B685A62012318461437BD4680BC12
:10158C00704780B58AB000AF786000237B627B68BF
:10159C001B685B693B627B681B685B68FB617B68F3
:1015AC001B689B68BB617B681B68DB687B617B6825
:1015BC001B681B693B617B681B689B69FB603B6A12
:1015CC0003F00103002B7CD0BB6903F00103002B5B
:1015DC0023D07B681B6801229A60BB6903F002036D
:1015EC00002B03D0786800F083F916E0BB6903F098
:1015FC000403002B04D07B6A43F400637B620CE091
:10160C00BB6903F00803002B04D07B6A43F48053BE
:10161C007B6202E0786800F086F9BB6903F48073A2
:10162C00002B24D07B681B684FF480729A60BB69D6
:10163C0003F40073002B03D0786800F062F916E015
:10164C00BB6903F48063002B04D07B6A43F4005322
:10165C007B620CE0BB6903F40063002B04D07B6A53
:10166C0043F480437B6202E0786800F065F9BB6963
:10167C0003F48033002B24D07B681B684FF480323A
:10168C009A60BB6903F40033002B03D0786800F038
:10169C0041F916E0BB6903F48023002B04D07B6A6C
:1016AC0043F400437B620CE0BB6903F40023002B82
:1016BC0004D07B6A43F480337B6202E0786800F0EC
:1016CC0044F93B6A03F00803002B0CD07B6903F050
:1016DC001003002B07D07B6A43F400737B627B689A
:1016EC001B681022DA603B6A03F00403002B0BD05A
:1016FC007B6903F00803002B06D07B681B6808226B
:10170C00DA60786800F033F93B6A03F00203002BCF
:10171C0009D07B681B68DB6803F00303002B02D045
:10172C00786800F01BF93B6A03F04003002B0CD0E7
:10173C003B6903F01003002B07D07B6A43F48063F2
:10174C007B627B681B6810221A613B6A03F02003E2
:10175C00002B0BD03B6903F00803002B06D07B68F1
:10176C001B6808221A61786800F00AF93B6A03F0DA
:10177C001003002B09D07B681B681B6903F0030363
:10178C00002B02D07868FEF783FD3B6A03F400332C
:10179C00002B0BD0FB6903F01003002B06D07B68E9
:1017AC001B6810225A60786800F0F3F83B6A03F467
:1017BC008033002B0BD0FB6903F00803002B06D001
:1017CC007B681B6808225A60786800F0EBF83B6A6B
:1017DC0003F40043002B7BD0FB6903F00403002BC4
:1017EC0072D03B6A03F48073002B08D0FB6803F0C3
:1017FC000103002B03D07B6A43F001037B623B6A3D
:10180C0003F40073002B08D0FB6803F00203002BD9
:10181C0003D07B6A43F002037B623B6A03F4806370
:10182C00002B08D0FB6803F00403002B03D07B6A69
:10183C0043F004037B623B6A03F40063002B43D048
:10184C00FB6803F07003002B3ED0FB6803F07003C1
:10185C00602B2BD0602B2ED8502B22D0502B2AD87B
:10186C00402B19D0402B26D8302B10D0302B22D81F
:10187C00102B02D0202B05D01DE07B6A43F008030F
:10188C007B6219E07B6A43F010037B6214E07B6A95
:10189C0043F020037B620FE07B6A43F040037B62E2
:1018AC000AE07B6A43F080037B6205E07B6A43F4C9
:1018BC0080737B6200E000BF7B681B689A697B6861
:1018CC001B6822F070029A617B681B6804225A60C4
:1018DC007B6A002B08D07B685A6A7B6A1A437B6848
:1018EC005A62786800F067F800BF2837BD4680BDA3
:1018FC0080B483B000AF786000BF0C37BD4680BCAD
:10190C00704780B483B000AF786000BF0C37BD4621
:10191C0080BC704780B483B000AF786000BF0C37D8
:10192C00BD4680BC704780B483B000AF786000BF08
:10193C000C37BD4680BC704780B483B000AF786074
:10194C0000BF0C37BD4680BC704780B483B000AF7D
:10195C00786000BF0C37BD4680BC704780B483B044
:10196C0000AF786000BF0C37BD4680BC704780B4B8
:10197C0083B000AF786000BF0C37BD4680BC7047A9
:10198C0080B483B000AF786000BF0C37BD4680BC1C
:10199C00704780B483B000AF786000BF0C37BD4691
:1019AC0080BC704780B483B000AF786000BF0C3748
:1019BC00BD4680BC704780B483B000AF786000BF78
:1019CC000C37BD4680BC704780B485B000AF7860E2
:1019DC007B6803F00703FB600C4BDB68BB60BA68E9
:1019EC004FF6FF031340BB60FB681A02BB6813433E
:1019FC0043F0BF6343F40033BB60044ABB68D3605D
:101A0C0000BF1437BD4680BC704700BF00ED00E03E
:101A1C0080B400AF044BDB681B0A03F007031846C5
:101A2C00BD4680BC704700BF00ED00E080B483B0C1
:101A3C0000AF0346FB7197F90730002B0BDBFB79EA
:101A4C0003F01F02064997F907305B09012000FAE1
:101A5C0002F241F8232000BF0C37BD4680BC704712
:101A6C0000E100E080B483B000AF03463960FB7145
:101A7C0097F90730002B0ADB3B68DAB20C4997F96F
:101A8C0007301201D2B20B4483F800230AE03B6802
:101A9C00DAB20849FB7903F00F03043B1201D2B20E
:101AAC000B441A7600BF0C37BD4680BC704700BF94
:101ABC0000E100E000ED00E080B489B000AFF86018
:101ACC00B9607A60FB6803F00703FB61FB69C3F143
:101ADC000703042B28BF0423BB61FB690433062BCB
:101AEC0002D9FB69033B00E000237B614FF0FF321E
:101AFC00BB6902FA03F3DA43BB681A407B699A406C
:101B0C004FF0FF317B6901FA03F3D9437B680B403B
:101B1C00134318462437BD4680BC704780B582B04D
:101B2C0000AF78607B68013BB3F1807F01D3012368
:101B3C000FE00A4A7B68013B53600F214FF0FF30E6
:101B4C00FFF790FF054B00229A60044B07221A60A6
:101B5C00002318460837BD4680BD00BF10E000E0EA
:101B6C0080B582B000AF78607868FFF72DFF00BFBA
:101B7C000837BD4680BD80B586B000AF0346B9605E
:101B8C007A60FB7300237B61FFF742FF78617A6810
:101B9C00B9687869FFF790FF024697F90F30114644
:101BAC001846FFF75FFF00BF1837BD4680BD80B5F4
:101BBC0082B000AF0346FB7197F907301846FFF768
:101BCC0035FF00BF0837BD4680BD80B582B000AF81
:101BDC0078607868FFF7A2FF034618460837BD46C1
:101BEC0080BD000080B48BB000AF786039600023FA
:101BFC007B6200233B6269E101227B6A02FA03F3F8
:101C0C00FB613B681B68FA691340BB61BA69FB69ED
:101C1C009A4240F058813B685B689A4A93425ED086
:101C2C00984A934275D8984A934258D0964A934210
:101C3C006FD8964A934252D0944A934269D8944AA8
:101C4C0093424CD0924A934263D8924A934246D0E4
:101C5C00904A93425DD8122B2AD8122B59D801A244
:101C6C0052F823F0EB1C0008C51C0008D71C000818
:101C7C00191D00081F1D00081F1D00081F1D00084E
:101C8C001F1D00081F1D00081F1D00081F1D000838
:101C9C001F1D00081F1D00081F1D00081F1D000828
:101CAC001F1D00081F1D0008CD1C0008E11C0008AA
:101CBC00794A934213D02CE03B68DB683B6229E005
:101CCC003B68DB6804333B6224E03B68DB68083329
:101CDC003B621FE03B68DB680C333B621AE03B68FD
:101CEC009B68002B02D104233B6213E03B689B688A
:101CFC00012B05D108233B627B68FA691A6109E064
:101D0C0008233B627B68FA695A6103E000233B625B
:101D1C0000E000BFBB69FF2B01D87B6801E07B684A
:101D2C0004337B61BB69FF2B02D87B6A9B0002E00A
:101D3C007B6A083B9B003B617B691A680F213B69FE
:101D4C0001FA03F3DB431A40396A3B6901FA03F3E6
:101D5C001A437B691A603B685B6803F08053002B65
:101D6C0000F0B1804D4B9B694C4A43F001039361E9
:101D7C004A4B9B6903F00103BB60BB68484A7B6A12
:101D8C009B08023352F82330FB607B6A03F0030399
:101D9C009B000F2202FA03F3DB43FA681340FB604B
:101DAC007B68404A934213D07B683F4A93420DD0E4
:101DBC007B683E4A934207D07B683D4A934201D1EF
:101DCC00032306E0042304E0022302E0012300E0E5
:101DDC0000237A6A02F0030292009340FA681343DC
:101DEC00FB602F497B6A9B080233FA6841F8232079
:101DFC003B685B6803F48013002B06D02D4B9A686C
:101E0C002C49BB6913438B6006E02A4B9A68BB696B
:101E1C00DB43284913408B603B685B6803F4001379
:101E2C00002B06D0234BDA682249BB691343CB60E5
:101E3C0006E0204BDA68BB69DB431E491340CB60DC
:101E4C003B685B6803F40033002B06D0194B5A68CF
:101E5C001849BB6913434B6006E0164B5A68BB69C3
:101E6C00DB43144913404B603B685B6803F48033DD
:101E7C00002B21D00F4B1A680E49BB6913430B6022
:101E8C0021E000BF000032100000311000002210D1
:101E9C000000211000001210000011100010024070
:101EAC000000014000080140000C014000100140FE
:101EBC0000140140000401400B4B1A68BB69DB4362
:101ECC00094913400B607B6A01337B623B681A68DB
:101EDC007B6A22FA03F3002B7FF48EAE00BF00BFA7
:101EEC002C37BD4680BC70470004014080B483B0E1
:101EFC0000AF78600B467B8013467B707B78002BA1
:101F0C0003D07A887B681A6103E07B881A047B68AB
:101F1C001A6100BF0C37BD4680BC704780B485B0D9
:101F2C0000AF78600B467B807B68DB68FB607A884F
:101F3C00FB6813401A04FB68D9437B880B401A4397
:101F4C007B681A6100BF1437BD4680BC7047000027
:101F5C0080B586B000AF78607B68002B01D101237F
:101F6C0072E27B681B6803F00103002B00F0878092
:101F7C00924B5B6803F00C03042B0CD08F4B5B680B
:101F8C0003F00C03082B12D18C4B5B6803F48033E9
:101F9C00B3F5803F0BD1894B1B6803F40033002B46
:101FAC006CD07B685B68002B68D101234CE27B68AA
:101FBC005B68B3F5803F06D1804B1B687F4A43F4C6
:101FCC00803313602EE07B685B68002B0CD17B4B5D
:101FDC001B687A4A23F480331360784B1B68774A6A
:101FEC0023F4802313601DE07B685B68B3F5A02F9E
:101FFC000CD1724B1B68714A43F4802313606F4BF6
:10200C001B686E4A43F4803313600BE06B4B1B6808
:10201C006A4A23F480331360684B1B68674A23F4C5
:10202C00802313607B685B68002B13D0FEF75EFE89
:10203C00386108E0FEF75AFE02463B69D31A642B5E
:10204C0001D9032300E25D4B1B6803F40033002B22
:10205C00F0D014E0FEF74AFE386108E0FEF746FEC9
:10206C0002463B69D31A642B01D90323ECE1534B91
:10207C001B6803F40033002BF0D100E000BF7B6839
:10208C001B6803F00203002B63D04C4B5B6803F01E
:10209C000C03002B0BD0494B5B6803F00C03082B93
:1020AC001CD1464B5B6803F48033002B16D1434B99
:1020BC001B6803F00203002B05D07B681B69012B06
:1020CC0001D00123C0E13D4B1B6823F0F8027B6873
:1020DC005B69DB00394913430B603AE07B681B6991
:1020EC00002B20D0364B01221A60FEF7FFFD386121
:1020FC0008E0FEF7FBFD02463B69D31A022B01D91F
:10210C000323A1E12D4B1B6803F00203002BF0D03D
:10211C002A4B1B6823F0F8027B685B69DB002749BC
:10212C0013430B6015E0264B00221A60FEF7DEFD10
:10213C00386108E0FEF7DAFD02463B69D31A022B40
:10214C0001D9032380E11D4B1B6803F00203002B14
:10215C00F0D17B681B6803F00803002B3AD07B6836
:10216C009B69002B19D0174B01221A60FEF7BEFD9C
:10217C00386108E0FEF7BAFD02463B69D31A022B20
:10218C0001D9032360E10D4B5B6A03F00203002BC2
:10219C00F0D0012000F0CEFA1CE00A4B00221A60AD
:1021AC00FEF7A4FD38610FE0FEF7A0FD02463B6987
:1021BC00D31A022B08D9032346E100BF00100240BA
:1021CC000000424280044242924B5B6A03F00203DD
:1021DC00002BE9D17B681B6803F00403002B00F093
:1021EC00A6800023FB758B4BDB6903F08053002B1F
:1021FC000DD1884BDB69874A43F08053D361854B03
:10220C00DB6903F08053BB60BB680123FB75824B19
:10221C001B6803F48073002B18D17F4B1B687E4A1C
:10222C0043F480731360FEF761FD386108E0FEF73C
:10223C005DFD02463B69D31A642B01D9032303E1EC
:10224C00754B1B6803F48073002BF0D07B68DB6844
:10225C00012B06D16F4B1B6A6E4A43F001031362CC
:10226C002DE07B68DB68002B0CD16A4B1B6A694A3A
:10227C0023F001031362674B1B6A664A23F00403C5
:10228C0013621CE07B68DB68052B0CD1614B1B6A6D
:10229C00604A43F0040313625E4B1B6A5D4A43F0D1
:1022AC00010313620BE05B4B1B6A5A4A23F00103D8
:1022BC001362584B1B6A574A23F0040313627B6862
:1022CC00DB68002B15D0FEF711FD38610AE0FEF734
:1022DC000DFD02463B69D31A41F28832934201D973
:1022EC000323B1E04B4B1B6A03F00203002BEED02F
:1022FC0014E0FEF7FBFC38610AE0FEF7F7FC02463F
:10230C003B69D31A41F28832934201D903239BE0F3
:10231C00404B1B6A03F00203002BEED1FB7D012B1B
:10232C0005D13C4BDB693B4A23F08053D3617B687E
:10233C00DB69002B00F08780364B5B6803F00C03E5
:10234C00082B61D07B68DB69022B46D1334B002212
:10235C001A60FEF7CBFC386108E0FEF7C7FC0246BA
:10236C003B69D31A022B01D903236DE0294B1B685F
:10237C0003F00073002BF0D17B681B6AB3F5803F30
:10238C0008D1244B5B6823F400327B689B6821499D
:10239C0013434B601F4B5B6823F474127B68196A00
:1023AC007B685B6A0B431B4913434B601B4B01223D
:1023BC001A60FEF79BFC386108E0FEF797FC0246BA
:1023CC003B69D31A022B01D903233DE0114B1B6847
:1023DC0003F00073002BF0D035E0104B00221A6094
:1023EC00FEF784FC386108E0FEF780FC02463B698E
:1023FC00D31A022B01D9032326E0064B1B6803F0EA
:10240C000073002BF0D11EE07B68DB69012B07D138
:10241C00012319E0001002400070004060004242AD
:10242C000B4B5B68FB60FB6803F480327B681B6AB8
:10243C009A4206D1FB6803F470127B685B6A9A427D
:10244C0001D0012300E0002318461837BD4680BD9B
:10245C000010024080B584B000AF786039607B68B2
:10246C00002B01D10123D0E06A4B1B6803F007035A
:10247C003A689A4210D9674B1B6823F007026549EA
:10248C003B6813430B60634B1B6803F007033A680C
:10249C009A4201D00123B8E07B681B6803F0020369
:1024AC00002B20D07B681B6803F00403002B05D0A5
:1024BC00594B5B68584A43F4E06353607B681B6874
:1024CC0003F00803002B05D0534B5B68524A43F4CE
:1024DC0060535360504B5B6823F0F0027B689B6841
:1024EC004D4913434B607B681B6803F00103002BC1
:1024FC0040D07B685B68012B07D1474B1B6803F40A
:10250C000033002B15D101237FE07B685B68022B25
:10251C0007D1414B1B6803F00073002B09D1012339
:10252C0073E03D4B1B6803F00203002B01D1012328
:10253C006BE0394B5B6823F003027B685B683649C0
:10254C0013434B60FEF7D2FBF8600AE0FEF7CEFBBC
:10255C000246FB68D31A41F28832934201D9032315
:10256C0053E02D4B5B6803F00C027B685B689B00AF
:10257C009A42EBD1274B1B6803F007033A689A4247
:10258C0010D2244B1B6823F0070222493B681343EB
:10259C000B60204B1B6803F007033A689A4201D08A
:1025AC00012332E07B681B6803F00403002B08D086
:1025BC00194B5B6823F4E0627B68DB6816491343B4
:1025CC004B607B681B6803F00803002B09D0124B8F
:1025DC005B6823F460527B681B69DB000E49134374
:1025EC004B6000F021F802460B4B5B681B0903F0B3
:1025FC000F030A49CB5C22FA03F3094A1360094B17
:10260C001B681846FEF730FB002318461037BD46F2
:10261C0080BD00BF0020024000100240284100088D
:10262C000C0000201000002080B487B000AF002305
:10263C00FB600023BB6000237B6100237B600023D5
:10264C003B611E4B5B68FB60FB6803F00C03042BC7
:10265C0002D0082B03D027E0194B3B6127E0FB6825
:10266C009B0C03F00F03174AD35C7B60FB6803F4ED
:10267C008033002B10D0114B5B685B0C03F0010313
:10268C00114AD35CBB607B680D4A03FB02F2BB684A
:10269C00B2FBF3F37B6104E07B680C4A02FB03F3AF
:1026AC007B617B693B6102E0054B3B6100BF3B6991
:1026BC0018461C37BD4680BC704700BF0010024056
:1026CC0000127A00404100085041000800093D000A
:1026DC0080B400AF024B1B681846BD4680BC7047E7
:1026EC000C00002080B500AFFFF7F2FF0246054B4F
:1026FC005B681B0A03F007030349CB5C22FA03F364
:10270C00184680BD001002403841000880B500AF6B
:10271C00FFF7DEFF0246054B5B68DB0A03F007039D
:10272C000349CB5C22FA03F3184680BD001002402B
:10273C003841000880B485B000AF78600A4B1B6844
:10274C000A4AA2FB03235B0A7A6802FB03F3FB60D1
:10275C0000BFFB685A1EFA60002BF9D100BF00BF06
:10276C001437BD4680BC70470C000020D34D62105E
:10277C0080B582B000AF78607B68002B01D101235B
:10278C0041E07B6893F83D30DBB2002B06D17B68CF
:10279C00002283F83C207868FEF780F87B680222E0
:1027AC0083F83D207B681A687B6804331946104611
:1027BC0000F074FA7B68012283F846207B680122C2
:1027CC0083F83E207B68012283F83F207B6801223E
:1027DC0083F840207B68012283F841207B6801222A
:1027EC0083F842207B68012283F843207B68012216
:1027FC0083F844207B68012283F845207B68012202
:10280C0083F83D20002318460837BD4680BD0000E4
:10281C0080B485B000AF78607B6893F83D30DBB254
:10282C00012B01D001233AE07B68022283F83D2082
:10283C007B681B68DA687B681B6842F00102DA600F
:10284C007B681B68184A93420ED07B681B68B3F1F7
:10285C00804F09D07B681B68144A934204D07B6874
:10286C001B68134A934211D17B681B689B6803F069
:10287C000703FB60FB68062B10D07B681B681A688B
:10288C007B681B6842F001021A6007E07B681B68DA
:10289C001A687B681B6842F001021A600023184614
:1028AC001437BD4680BC7047002C0140000400402A
:1028BC000008004080B582B000AF78607B681B6870
:1028CC001B6903F00203022B22D17B681B68DB68B7
:1028DC0003F00203022B1BD17B681B686FF0020212
:1028EC001A617B6801221A777B681B689B6903F06D
:1028FC000303002B03D0786800F0B4F905E0786886
:10290C0000F0A7F9786800F0B6F97B6800221A7716
:10291C007B681B681B6903F00403042B22D17B68C2
:10292C001B68DB6803F00403042B1BD17B681B685A
:10293C006FF004021A617B6802221A777B681B68AD
:10294C009B6903F44073002B03D0786800F08AF97C
:10295C0005E0786800F07DF9786800F08CF97B6808
:10296C0000221A777B681B681B6903F00803082B8D
:10297C0022D17B681B68DB6803F00803082B1BD192
:10298C007B681B686FF008021A617B6804221A7757
:10299C007B681B68DB6903F00303002B03D07868AA
:1029AC0000F060F905E0786800F053F9786800F001
:1029BC0062F97B6800221A777B681B681B6903F03D
:1029CC001003102B22D17B681B68DB6803F010030B
:1029DC00102B1BD17B681B686FF010021A617B688F
:1029EC0008221A777B681B68DB6903F44073002BA1
:1029FC0003D0786800F036F905E0786800F029F922
:102A0C00786800F038F97B6800221A777B681B68BD
:102A1C001B6903F00103012B0ED17B681B68DB687B
:102A2C0003F00103012B07D17B681B686FF00102D7
:102A3C001A617868FDF754FC7B681B681B6903F00E
:102A4C008003802B0ED17B681B68DB6803F080034E
:102A5C00802B07D17B681B686FF080021A61786845
:102A6C0000F07BFA7B681B681B6903F04003402B6A
:102A7C000ED17B681B68DB6803F04003402B07D149
:102A8C007B681B686FF040021A61786800F0FCF8F4
:102A9C007B681B681B6903F02003202B0ED17B681D
:102AAC001B68DB6803F02003202B07D17B681B68B5
:102ABC006FF020021A61786800F046FA00BF083700
:102ACC00BD4680BD80B584B000AF7860396000230E
:102ADC00FB737B6893F83C30012B01D10223B4E0EB
:102AEC007B68012283F83C207B68022283F83D201E
:102AFC007B681B689B68BB60BB6823F07703BB607B
:102B0C00BB6823F47F43BB607B681B68BA689A6020
:102B1C003B681B68B3F5005F3ED0B3F5005F00F275
:102B2C008780B3F5805F00F08680B3F5805F7FD837
:102B3C00702B1AD0702B7BD8602B50D0602B77D891
:102B4C00502B3CD0502B73D8402B58D0402B6FD8E7
:102B5C00302B64D0302B6BD8202B60D0202B67D837
:102B6C00002B5CD0102B5AD062E07B6818683B6855
:102B7C0099683B685A683B68DB6800F068F97B68C9
:102B8C001B689B68BB60BB6843F07703BB607B68CA
:102B9C001B68BA689A604FE07B6818683B68996854
:102BAC003B685A683B68DB6800F051F97B681B682E
:102BBC009A687B681B6842F480429A603CE07B68B0
:102BCC0018683B6859683B68DB681A4600F0C8F81F
:102BDC007B681B685021184600F01FF92CE07B68BD
:102BEC0018683B6859683B68DB681A4600F0E6F8E1
:102BFC007B681B686021184600F00FF91CE07B68AD
:102C0C0018683B6859683B68DB681A4600F0A8F8FE
:102C1C007B681B684021184600F0FFF80CE07B68CD
:102C2C001A683B681B681946104600F0F6F803E07A
:102C3C000123FB7300E000BF7B68012283F83D2079
:102C4C007B68002283F83C20FB7B18461037BD467E
:102C5C0080BD80B483B000AF786000BF0C37BD4638
:102C6C0080BC704780B483B000AF786000BF0C3775
:102C7C00BD4680BC704780B483B000AF786000BFA5
:102C8C000C37BD4680BC704780B483B000AF786011
:102C9C0000BF0C37BD4680BC7047000080B485B0C7
:102CAC0000AF786039607B681B68FB607B68294AE1
:102CBC0093420BD07B68B3F1804F07D07B68264AD8
:102CCC00934203D07B68254A934208D1FB6823F0DA
:102CDC007003FB603B685B68FA681343FB607B68BE
:102CEC001C4A93420BD07B68B3F1804F07D07B68B2
:102CFC00194A934203D07B68184A934208D1FB6867
:102D0C0023F44073FB603B68DB68FA681343FB6099
:102D1C00FB6823F080023B685B691343FB607B68B4
:102D2C00FA681A603B689A687B68DA623B681A68D2
:102D3C007B689A627B68074A934203D13B681A69A5
:102D4C007B681A637B6801225A6100BF1437BD4649
:102D5C0080BC7047002C014000040040000800407B
:102D6C0080B487B000AFF860B9607A60FB681B6A0A
:102D7C007B61FB681B6A23F00102FB681A62FB682B
:102D8C009B693B613B6923F0F0033B617B681B0152
:102D9C003A6913433B617B6923F00A037B617A69CF
:102DAC00BB6813437B61FB683A699A61FB687A697B
:102DBC001A6200BF1C37BD4680BC704780B487B018
:102DCC0000AFF860B9607A60FB681B6A7B61FB68D6
:102DDC001B6A23F01002FB681A62FB689B693B615B
:102DEC003B6923F470433B617B681B033A691343D3
:102DFC003B617B6923F0A0037B61BB681B017A6993
:102E0C0013437B61FB683A699A61FB687A691A62C1
:102E1C0000BF1C37BD4680BC704780B485B000AF86
:102E2C00786039607B689B68FB60FB6823F07003FB
:102E3C00FB603A68FB68134343F00703FB607B6855
:102E4C00FA689A6000BF1437BD4680BC704780B4E6
:102E5C0087B000AFF860B9607A603B60FB689B6834
:102E6C007B617B6923F47F437B613B681A027B683F
:102E7C001A43BB6813437A6913437B61FB687A6915
:102E8C009A6000BF1C37BD4680BC704780B485B0CB
:102E9C0000AF786039607B6893F83C30012B01D12E
:102EAC00022346E07B68012283F83C207B680222E7
:102EBC0083F83D207B681B685B68FB607B681B6844
:102ECC009B68BB60FB6823F07003FB603B681B686E
:102EDC00FA681343FB607B681B68FA685A607B686E
:102EEC001B68164A93420ED07B681B68B3F1804F67
:102EFC0009D07B681B68124A934204D07B681B681C
:102F0C00104A93420CD1BB6823F08003BB603B6832
:102F1C005B68BA681343BB607B681B68BA689A60CD
:102F2C007B68012283F83D207B68002283F83C20DB
:102F3C00002318461437BD4680BC7047002C014056
:102F4C00000400400008004080B483B000AF7860FB
:102F5C0000BF0C37BD4680BC704780B483B000AF57
:102F6C00786000BF0C37BD4680BC704780B582B01E
:102F7C0000AF78607B68002B01D1012342E07B68B5
:102F8C0093F84130DBB2002B06D17B68002283F82A
:102F9C0040207868FDF7A6FC7B68242283F841204A
:102FAC007B681B68DA687B681B6822F40052DA6065
:102FBC00786800F02BF87B681B681A697B681B68C3
:102FCC0022F490421A617B681B685A697B681B6803
:102FDC0022F02A025A617B681B68DA687B681B68DE
:102FEC0042F40052DA607B6800225A647B6820222B
:102FFC0083F841207B68202283F842207B680022E2
:10300C005A63002318460837BD4680BD80B584B08E
:10301C0000AF78607B681B681B6923F440517B68A8
:10302C00DA687B681B680A431A617B689A687B685C
:10303C001B691A437B685B691343BB607B681B6825
:10304C00DB6823F4B05323F00C037A681268B96878
:10305C000B43D3607B681B685B6923F440717B680E
:10306C009A697B681B680A435A617B681B682C4A07
:10307C00934203D1FFF74AFBF86002E0FFF732FB03
:10308C00F860FA6813469B0013449A001A447B6854
:10309C005B689B00B2FBF3F3224AA2FB03235B09A0
:1030AC001901FA6813469B0013449A001A447B6872
:1030BC005B689B00B2FBF3F21A4BA3FB02035B09A8
:1030CC00642000FB03F3D31A1B013233154AA2FB15
:1030DC0003235B0903F0F0031944FA6813469B00C1
:1030EC0013449A001A447B685B689B00B2FBF3F2B2
:1030FC000C4BA3FB02035B09642000FB03F3D31A04
:10310C001B013233074AA2FB03235B0903F00F02B6
:10311C007B681B680A449A6000BF1037BD4680BDAF
:10312C00003801401F85EB51164B10B51C68236B02
:10313C00B3B9182000F01EFA0246206320B95221C0
:10314C00114B124800F0B0F91149124BC0E90013B1
:10315C00114B002183600B2383810120C2E9040100
:10316C00216B0E480B694C6958430D4A02FB040055
:10317C00A3FB0232013340EB0200C1E9043020F022
:10318C00004010BD70000020524100086941000849
:10319C000E33CDAB34126DE6ECDE05002DF4515838
:1031AC002D7F954C002310B50446C0E90033C0E9CF
:1031BC000433836081814366C2818361194608228E
:1031CC005C3000F0F4F80D4B246263620C4BA3628C
:1031DC000C4BE3620C4B23630C4B9C4206D003F16B
:1031EC006802944202D0D0339C4205D104F15800BD
:1031FC00BDE8104000F054B910BD00BF35330008D5
:10320C00573300088F330008B3330008DC0100206B
:10321C00024A0349034800F069B800BF18000020B7
:10322C00ED3700082400002041680C4B10B5994282
:10323C00044601D000F0D4FAA168094B994202D09F
:10324C00204600F0CDFAE168064B994204D02046A6
:10325C00BDE8104000F0C4BA10BD00BFDC01002076
:10326C0044020020AC02002010B50B4B0B4C0C4A56
:10327C0020461A6004210022FFF794FF04F1680035
:10328C0001220921FFF78EFF04F1D0000222BDE8D4
:10329C0010401221FFF786BF14030020DC01002030
:1032AC001D320008014800F0FCB800BF1D030020CF
:1032BC00014800F0F7B800BF1D03002010B504460C
:1032CC00FFF7F0FF236A1BB1BDE81040FFF7F0BF1A
:1032DC00044B2362044B1B68002BF5D1FFF7C4FF92
:1032EC00F2E700BF35320008140300202DE9F84343
:1032FC000746884614460026D4E90195B9F1010920
:10330C0005D52468002CF7D13046BDE8F883AB898D
:10331C00012B07D9B5F90E30013303D029463846B5
:10332C00C04706436835E9E710B50C46B1F90E10F5
:10333C0000F068F80028ABBF636DA3891B1823F459
:10334C008053ACBF6365A38110BD2DE9F0411F46CE
:10335C008B890546DB050C46164605D50223002253
:10336C00B1F90E1000F03CF8A389324623F48053D7
:10337C00A38128463B46B4F90E10BDE8F04100F09D
:10338C0053B810B50C46B1F90E1000F029F8431CD7
:10339C00A38915BF606523F4805343F48053A38144
:1033AC0018BFA38110BDB1F90E1000F009B8034687
:1033BC000244934200D1704703F8011BF9E7000067
:1033CC0038B50023054D044608462B60FDF7A4FBD9
:1033DC00431C02D12B6803B1236038BD18030020B5
:1033EC0038B50446084611460022054D2A601A4697
:1033FC00FDF7B6FB431C02D12B6803B1236038BD2B
:10340C001803002038B50446084611460022054D25
:10341C002A601A46FDF747FB431C02D12B6803B107
:10342C00236038BD1803002038B504460846114601
:10343C000022054D2A601A46FDF752FB431C02D1AF
:10344C002B6803B1236038BD18030020014B1868AA
:10345C00704700BF7000002070B500260C4D0D4C5D
:10346C00641BA410A64209D100F04CFE00260A4DA4
:10347C000A4C641BA410A64205D170BD55F8043B40
:10348C0098470136EEE755F8043B98470136F2E7CA
:10349C003042000830420008304200083442000834
:1034AC0070477047704700001FB514461A46094B09
:1034BC0005461B68D8684CB1074BCDE90134009127
:1034CC002B46064900F0B4F900F0D4F9044B1C4625
:1034DC00F3E700BF70000020C1410008CE41000896
:1034EC00FC41000838B50546002940D051F8043C91
:1034FC000C1F002BB8BFE41800F0E4F81C4A13684A
:10350C0033B9636014602846BDE8384000F0E0B879
:10351C00A34208D9206821188B4201BF19685B6847
:10352C0009182160EDE71A465B680BB1A342FAD982
:10353C0011685018A0420BD12068014450188342E6
:10354C001160E0D118685B68084410605360DAE7DA
:10355C0002D90C232B60D6E7206821188B4201BFBF
:10356C0019685B680918216063605460CBE738BD4B
:10357C0020030020024B0146186800F023B800BF5E
:10358C007000002070B50E4E0C463168054611B91E
:10359C0000F060F930602146284600F05BF9431CCE
:1035AC000AD0C41C24F00304A04207D0211A2846D8
:1035BC0000F050F9013001D14FF0FF34204670BDBE
:1035CC00240300202DE9F843CD1C25F00305083514
:1035DC000C2D38BF0C25002D074601DBA94205D95F
:1035EC000C2300263B603046BDE8F883DFF8D08022
:1035FC0000F068F8D8F800301C465CBB2946384609
:10360C00FFF7C0FF431C044655D1D8F800402646AE
:10361C00002E45D1002C48D023683146384604EBA7
:10362C00030900F017F981453FD1216838466D1A1E
:10363C002946FFF7A7FF013037D023682B442360BE
:10364C00D8F80030002B38D05A68A2422BD1002277
:10365C005A600FE02268521B1FD40B2A17D961192C
:10366C00A342256018BF5960636808BFC8F80010F2
:10367C0062514B60384604F10B0600F029F826F035
:10368C000706231DF21AAED09B1BA350ABE7A34237
:10369C006268DDD1C8F80020ECE723466468ACE72B
:1036AC0034467668B4E71346CCE70C2338463B60C7
:1036BC0000F00EF897E72560DCE75B60FFDE00BFEB
:1036CC00200300200148FFF7ECBE00BF1C030020C4
:1036DC000148FFF7E7BE00BF1C0300208A89F8B53C
:1036EC00054610070C4657D44B68002B04DC0B6CBA
:1036FC00002B01DC0020F8BDE66A002EFAD0002376
:10370C0012F480522F68216A2B6032D0606DA3892D
:10371C005A0705D56368C01A636B0BB1236CC01ACA
:10372C0000230246E66A2846216AB047431CA38957
:10373C0006D129681D292BD8284A0A41D60727D437
:10374C00002262602269D904226004D5421C01D196
:10375C002B6803B96065616B2F600029CAD004F136
:10376C004403994202D02846FFF7BCFE0020606358
:10377C00C1E701232846B047411CC8D12B68002B58
:10378C00C5D01D2B01D0162B01D12F60B2E7A38918
:10379C0043F04003A381AEE70F69002FAAD0930733
:1037AC0018BF00230E6808BF4B69F61B0F608B60B7
:1037BC00002E9FDD33463A462846216AD4F828C0AD
:1037CC00E047002806DCA3894FF0FF3043F04003AC
:1037DC00A38190E70744361AEAE700BFFEFFBFDF7C
:1037EC0038B50B6905460C4613B90025284638BD7B
:1037FC0018B1036A0BB9FFF761FDB4F90C30002B5B
:10380C00F3D0626ED00704D4990502D4A06DFFF7F3
:10381C0048FE28462146FFF761FF636E0546DA072E
:10382C00E4D4A3899B05E1D4A06DFFF73BFEDDE753
:10383C000EB403B5014603AB054853F8042B0068DE
:10384C00019300F045F802B05DF804EB03B070474B
:10385C007000002038B50023054D044608462B6047
:10386C00FDF78AF9431C02D12B6803B1236038BDE4
:10387C0018030020062008B500F096FB0120FDF788
:10388C0008F9936810B4013B002B936007DA946934
:10389C00A34201DB0A2902D110BC00F0C7BA13689D
:1038AC00581C10601970084610BC7047F8B50646D5
:1038BC000F461446D518AC4201D1002007E03A4619
:1038CC00304614F8011BFFF7DCFF431CF3D1F8BDA5
:1038DC002DE9F04F0D461446984606469DB018B19A
:1038EC00036A0BB9FFF7EAFC6B6ED90705D4AB89F9
:1038FC009A0502D4A86DFFF7D4FDAB891B0701D53F
:10390C002B699BB92946304600F0CEFA70B16B6E2C
:10391C00DC0704D54FF0FF301DB0BDE8F08FAB894C
:10392C009805F7D4A86DFFF7BDFDF3E700230993C5
:10393C0020238DF8293030234FF00109CDF80C806D
:10394C00DFF8AC818DF82A3023469A4613F8012B08
:10395C000AB1252AF9D1BAEB040B0BD05B462246EF
:10396C0029463046FFF7A2FF013000F0A980099AE2
:10397C005A4409929AF80030002B00F0A1800023E1
:10398C004FF0FF32CDE905230AF1010A04930793A6
:10399C008DF853301A935446052214F8011B5448E1
:1039AC0000F01EFB049AD8B9D10644BF20238DF831
:1039BC005330130744BF2B238DF853309AF8003043
:1039CC002A2B15D0544600204FF00A0C079A21469A
:1039DC0011F8013B303B092B4DD9B0B1079214E0E3
:1039EC00A0EB080309FA03F31343A2460493D2E7AE
:1039FC00039B191D1B680391002BBBBF5B4242F05C
:103A0C00020207930793B8BF049223782E2B0CD194
:103A1C0063782A2B34D1039B02341A1D1B68039242
:103A2C00002BB8BF4FF0FF330593DFF8C8A003227B
:103A3C005046217800F0D4FA38B14022049BA0EB18
:103A4C000A00824013430134049314F8011B06222C
:103A5C0029488DF8281000F0C3FA00283FD0274BD6
:103A6C001BBB039B073323F0070308330393099B0A
:103A7C003B44099368E70C4601200CFB0232A6E795
:103A8C0000234FF00A0C194601340593204610F818
:103A9C00012B303A092A03D9002BC6D00591C4E773
:103AAC00044601230CFB0121F0E703AB00932A46EB
:103ABC003046134B04A9AFF300800746781CD6D1CF
:103ACC006B6ED90705D4AB899A0502D4A86DFFF7A4
:103ADC00E9FCAB895B063FF51DAF09981CE703AB0E
:103AEC0000932A463046064B04A900F07DF8E4E723
:103AFC00FD410008034200080742000800000000D6
:103B0C00B93800082DE9F047164699468A680B69C2
:103B1C0007469342B8BF1346336091F843200C46D6
:103B2C00DDF820800AB1013333602368990642BF67
:103B3C00336802333360256815F0060506D104F1AD
:103B4C00190AE36832689B1AAB422BDC94F84320C9
:103B5C00131E226818BF0123920630D449463846FA
:103B6C0004F14302C047013023D02368226903F0DB
:103B7C000603042B14BF002533684FF0000608BF62
:103B8C00E56804F11A0408BFED1A54F8123C08BF9A
:103B9C0025EAE5759342C4BF9B1AED18B5421AD1BC
:103BAC00002008E00123524649463846C047013000
:103BBC0003D14FF0FF30BDE8F0870135C1E730206D
:103BCC00E11881F843005A1C94F845102244023342
:103BDC0082F84310C2E70123224649463846C047C3
:103BEC000130E6D00136D9E72DE9FF470F7E91462B
:103BFC00782F80460C469A460C9D01F1430207D85B
:103C0C00622F0AD8002F00F0D580582F00F0C18009
:103C1C0004F1420584F842703AE0A7F16303152BD6
:103C2C00F6D801A151F823F08D3C0008A13C000806
:103C3C001D3C00081D3C00081D3C00081D3C0008F4
:103C4C00A13C00081D3C00081D3C00081D3C000860
:103C5C001D3C0008A73D0008CD3C0008613D000854
:103C6C001D3C00081D3C0008C93D00081D3C000817
:103C7C00CD3C00081D3C00081D3C0008693D0008B7
:103C8C002B681A1D1B682A6004F1420584F8423027
:103C9C000123A0E020682B68070603F104012960CA
:103CAC0001D51E6803E04606FBD5B3F90060002E73
:103CBC0003DA2D23764284F843300A23594812E064
:103CCC002B682068191D2960050601D51E6802E0C5
:103CDC004106FBD51E886F2F0CBF08230A235148C1
:103CEC00002184F843106568002DA8BF2168A560E9
:103CFC00A4BF21F0040121600EB9002D4BD0154654
:103D0C00B6FBF3F103FB1167C75D05F8017D374680
:103D1C00BB420E46F4D9082B0BD12368DE0708D51D
:103D2C00236961689942DEBF302305F8013C05F137
:103D3C00FF35521B22614B4621464046CDF800A070
:103D4C0003AAFFF7DFFE01304AD14FF0FF3004B079
:103D5C00BDE8F087236843F02003236078273248BE
:103D6C0084F84570236829681F0651F8046B02D447
:103D7C005F0648BFB6B2DF0748BF43F02003296097
:103D8C0048BF23601EB9236823F02003236010234F
:103D9C00A6E72448E4E71546BDE72B682668181DFE
:103DAC006169286035061B6801D5196002E0700650
:103DBC00FBD51980002315462361BCE72B68002135
:103DCC001A1D2A601D686268284600F009F908B1BE
:103DDC00401B606063682361002384F84330AAE7CA
:103DEC002A46494640462369D0470130ADD0236866
:103DFC009B0713D4E068039B9842B8BF1846A6E70C
:103E0C000123324649464046D04701309DD001350A
:103E1C00E36803995B1AAB42F2DCEBE7002504F193
:103E2C001906F5E70E4200081F420008F8B50E46C9
:103E3C001446054618B1036A0BB9FFF73FFAA3699C
:103E4C00A360A3891A0725D523691BB323682269AC
:103E5C00F6B2981A63693746834204DC2146284639
:103E6C00FFF7BEFCE0B9A368013BA36023685A1CB2
:103E7C0022601E706269431C9A4204D0A389DB073E
:103E8C0006D50A2E04D121462846FFF7A9FC38B9DD
:103E9C003846F8BD2146284600F006F80028D5D053
:103EAC004FF0FF37F4E7000038B52A4B0546186889
:103EBC000C4618B1036A0BB9FFF700FAA389B4F9E1
:103ECC000C20180722D4D90607D409232B6042F002
:103EDC0040034FF0FF30A38134E0580712D5616BDB
:103EEC0041B104F14403994202D02846FFF7FAFA93
:103EFC0000236363A38923F02403A381002363605D
:103F0C0023692360A38943F00803A38123694BB978
:103F1C00A38903F42073B3F5007F03D02146284610
:103F2C0000F091F8A089B4F90C2010F001030AD02C
:103F3C000023A36063695B42A361236943B910F05A
:103F4C008000C4D138BD810758BF6369A360F4E712
:103F5C000020F7E7700000201F2938B504460D46F5
:103F6C0004D9162303604FF0FF3038BDC26B12B179
:103F7C0052F821304BB9204600F030F82A46014661
:103F8C002046BDE8384000F017B8012B0AD0591C68
:103F9C0003D1162303600120E7E70024284642F8EA
:103FAC00254098470020E0E7024B01461868FFF7D0
:103FBC00D3BF00BF7000002038B50023064D044667
:103FCC00084611462B60FCF754FD431C02D12B68AC
:103FDC0003B1236038BD00BF18030020FCF742BDBD
:103FEC00034610B5C9B202449342184601D10020D1
:103FFC0003E0047801338C42F6D110BD70B50C4649
:10400C00B1F90E10154600291E4696B00CDAA3899C
:10401C00002113F0800F0CBF4FF48063402300206D
:10402C0031602B6016B070BD6A4600F049F800286C
:10403C00EDDB019901F47041A1F50053594259414E
:10404C004FF48063EBE78B8973B59D0706460C46EE
:10405C0007D504F14703236023610123636102B098
:10406C0070BD6A4601ABFFF7C9FF009905463046A3
:10407C00FFF7A8FA48B9B4F90C309A05EFD423F03D
:10408C00030343F00203A381E3E7A389206043F019
:10409C008003A381009B20616361019B5BB130466F
:1040AC00B4F90E1000F01EF828B1A38923F0030315
:1040BC0043F00103A381A3891D43A581CFE7000031
:1040CC0038B50023064D0446084611462B60FCF714
:1040DC002EFD431C02D12B6803B1236038BD00BFF9
:1040EC001803002038B50023054D044608462B6004
:1040FC00FCF72CFD431C02D12B6803B1236038BDA7
:10410C0018030020F8B500BFF8BC08BC9E467047E9
:0C411C00F8B500BFF8BC08BC9E46704718
:10412800000000000000000001020304060708095F
:104138000000000001020304020304050607080941
:104148000A0B0C0D0E0F101001025245454E54205B
:104158006D616C6C6F63207375636365656465641A
:10416800002F6275696C642F676E752D746F6F6CA4
:10417800732D666F722D73746D33325F31312E3348
:104188002E72656C312E32303233303931322D3166
:104198003630302F7372632F6E65776C69622F6EBD
:1041A80065776C69622F6C6962632F7374646C69DC
:1041B800622F72616E642E63002C2066756E6374C4
:1041C800696F6E3A2000617373657274696F6E204F
:1041D80022257322206661696C65643A2066696CE1
:1041E8006520222573222C206C696E6520256425A4
:1041F8007325730A00232D302B2000686C4C006552
:1042080066674546470030313233343536373839FA
:10421800414243444546003031323334353637382D
:08422800396162636465660000
:044230003101000850
:044234000D01000870
:104238000102000000000000010000000024F4005A
:104248001000000001000000000000000300000052
:10425800DC01002000000000DC01002044020020F6
:10426800AC02002000000000000000000000000078
:104278000000000000000000000000000000000036
:104288000000000000000000000000000000000026
:104298000000000000000000000000000000000016
:0442A80024000020CE
:0400000508000BFDE7
:00000001FF
