:020000040800F2
:1000000000500020510B0008B90A0008BF0A000880
:10001000C50A0008CB0A0008D10A00080000000049
:10002000000000000000000000000000D70A0008E7
:10003000E30A000800000000EF0A0008FB0A0008BD
:10004000990B0008990B0008990B0008990B000800
:10005000990B0008990B0008990B0008990B0008F0
:10006000990B0008990B0008990B0008990B0008E0
:10007000990B0008990B0008990B0008990B0008D0
:10008000990B0008990B0008990B0008990B0008C0
:10009000990B0008090B0008990B0008990B000840
:1000A000990B0008990B0008990B0008990B0008A0
:1000B0001D0B0008310B0008990B0008990B000874
:1000C000990B0008990B0008990B0008990B000880
:1000D000990B0008990B0008990B0008990B000870
:1000E000990B0008990B0008990B0008000000000C
:1000F0000000000000000000000000000000000000
:0C01000000000000000000005FF808F1A3
:10010C0010B5054C237833B9044B13B10448AFF345
:10011C0000800123237010BD10000020000000009F
:10012C006833000808B5034B1BB103490348AFF310
:10013C00008008BD00000000140000206833000897
:10014C0080B489B000AF786039600023FB61002374
:10015C00BB610023FB6000237B6100233B61002318
:10016C007B612BE07B69002B02D10023BB6107E094
:10017C003A687B69D31A1A467B6813441B78BB61B7
:10018C00FA69BB695340FB6108233B6110E0FB69D2
:10019C00FB60FB695B00FB61FB6803F08003002BD9
:1001AC0003D0FB6983F01D03FB613B69013B3B61A1
:1001BC003B69002BEBDC7B6901337B617A693B6823
:1001CC009A42CFDBFB6918462437BD4680BC70478A
:1001DC0080B582B000AF00237B600BE0174A7B68D0
:1001EC0013441978164A7B6813440A461A707B68C4
:1001FC0001337B607B68072BF0DD104B1A780F4BBB
:10020C005B781344DAB20E4B9A7007210C48FFF757
:10021C0097FF0346DAB20A4BDA710A4B12221A60C4
:10022C00084B00229A60074B0022DA60054B08222B
:10023C001A6100BF0837BD4680BD00BF30000020EA
:10024C006C0000205400002080B582B000AF7860B4
:10025C00084B094A0949786800F028FF0346002B2F
:10026C0003D12021064801F003FE00BF0837BD462C
:10027C0080BD00BF000000206C0000205400002056
:10028C00000C014080B582B000AF78600C4B0D4A79
:10029C000121786800F0D9FF0346002B01D000F053
:1002AC0099FA084B1B68A22B06D1074B01221A7036
:1002BC000821064801F0DCFD00BF0837BD4680BDB3
:1002CC0030000020380000202C000020000C0140E1
:1002DC0080B582B000AF78607B681A68074B1B68EA
:1002EC009A4207D14FF40051054801F0C1FD054B6E
:1002FC0001221A6000BF0837BD4680BDF000002007
:10030C0000100140C801002080B500AF00F040FC97
:10031C0000F03CF800F0C8F900F0D4F800F000F957
:10032C0000F04AF900F096F900F076F8134800F066
:10033C0079FE0346002B01D000F04CFA10210F4837
:10034C0001F0A4F80E4802F051FB0E4B1B68012B78
:10035C00FBD10C4B00221A60094802F047FB00BF8E
:10036C00094B1B68012BFBD1FFF732FF0348FFF74A
:10037C006BFF4FF4FA6000F06DFCE6E774000020B0
:10038C00F00000202C000020C801002080B590B0A7
:10039C0000AF07F1180328220021184602F0B2FF23
:1003AC003B1D00221A605A609A60DA601A610123C0
:1003BC00BB614FF48033FB6100233B620123BB62C2
:1003CC0002237B634FF48033BB634FF4E013FB6376
:1003DC0007F11803184601F0A9FE0346002B01D0C3
:1003EC0000F0F8F90F237B600223BB600023FB6055
:1003FC004FF480633B6100237B613B1D0221184657
:10040C0002F016F90346002B01D000F0E3F900BF0F
:10041C004037BD4680BD000080B58AB000AF274B89
:10042C00274A1A60254B04225A60244B00229A60FA
:10043C00224B4FF08072DA60204B4FF440221A614D
:10044C001E4B4FF440125A611C4B00221A761B4B68
:10045C0000225A76194B00229A76184B0022DA7633
:10046C00164B00221A77154B00225A77134800F0CE
:10047C0015FC0346002B01D000F0ACF901233B62C4
:10048C000C237B6101233B614FF4A2533B6000239F
:10049C007B604FF4A253BB600023FB600023BB6165
:1004AC000123FB610D237B623B461946034800F098
:1004BC00F0FC00BF2837BD4680BD00BF7400002093
:1004CC000064004080B500AF124B134A1A60114B08
:1004DC00124A5A600F4B00229A600E4B0022DA60CF
:1004EC000C4B4FF480421A610A4B00225A61094BA3
:1004FC0000229A61074B0022DA61064B00221A6235
:10050C00044801F0CFFC0346002B01D000F062F947
:10051C0000BF80BD9C00002000580040A086010058
:10052C0080B586B000AF07F1080300221A605A604C
:10053C009A60DA603B4600221A605A601D4B4FF0FD
:10054C0080421A601B4B41F61F425A60194B002225
:10055C009A60184BC722DA60164B00221A61154BB1
:10056C0000229A61134802F0F1F90346002B01D0E6
:10057C0000F030F94FF48053BB6007F108031946C3
:10058C000C4802F08DFB0346002B01D000F022F941
:10059C0000233B6000237B603B461946054802F074
:1005AC0063FD0346002B01D000F014F900BF18378F
:1005BC00BD4680BDF000002080B586B000AF07F1CD
:1005CC00080300221A605A609A60DA603B460022E7
:1005DC001A605A601D4B1E4A1A601C4B48F69F420B
:1005EC005A601A4B00229A60184BC722DA60174BDC
:1005FC0000221A61154B00229A61144802F0A6F9E8
:10060C000346002B01D000F0E5F84FF48053BB609B
:10061C0007F1080319460D4802F042FB0346002B74
:10062C0001D000F0D7F800233B6000237B603B46F1
:10063C001946064802F018FD0346002B01D000F0C5
:10064C00C9F800BF1837BD4680BD00BF3801002077
:10065C000004004080B500AF114B124A1A60104BD9
:10066C004FF4E1325A600E4B00229A600C4B002280
:10067C00DA600B4B00221A61094B0C225A61084BB1
:10068C0000229A61064B0022DA61054802F05CFDFB
:10069C000346002B01D000F09DF800BF80BD00BFC9
:1006AC00800100200038014080B588B000AF07F110
:1006BC00100300221A605A609A60DA60414B9B6901
:1006CC00404A43F0100393613E4B9B6903F01003C7
:1006DC00FB60FB683B4B9B693A4A43F020039361F8
:1006EC00384B9B6903F02003BB60BB68354B9B699F
:1006FC00344A43F004039361324B9B6903F00403C7
:10070C007B607B682F4B9B692E4A43F008039361F7
:10071C002C4B9B6903F008033B603B6800224FF4B1
:10072C000051294801F08CFB00224FF488712748B6
:10073C0001F086FB00224FF44041254801F080FB7C
:10074C0001223821224801F07BFB4FF400533B611E
:10075C0001237B610023BB610223FB6107F11003C2
:10076C001946194801F0E8F94FF488733B610123ED
:10077C007B610023BB610223FB6107F11003194667
:10078C00124801F0D9F903233B6100237B6100235C
:10079C00BB6107F1100319460D4801F0CDF94CF27D
:1007AC0038033B6101237B610023BB610223FB61A6
:1007BC0007F110031946064801F0BEF900BF2037B7
:1007CC00BD4680BD001002400010014000080140F1
:1007DC00000C014080B400AF72B600BFFEE7000011
:1007EC0080B485B000AF154B9B69144A43F00103EC
:1007FC009361124B9B6903F00103BB60BB680F4B09
:10080C00DB690E4A43F08053D3610C4BDB6903F078
:10081C0080537B607B680A4B5B68FB60FB6823F052
:10082C00E063FB60FB6843F00073FB60044AFB6809
:10083C00536000BF1437BD4680BC704700100240A7
:10084C000000014080B58AB000AF786007F1140356
:10085C0000221A605A609A60DA607B681B68294A29
:10086C0093424BD1284BDB69274A43F00073D36189
:10087C00254BDB6903F000733B613B69224B9B69A1
:10088C00214A43F0080393611F4B9B6903F0080353
:10089C00FB60FB684FF480737B610023BB6100231A
:1008AC00FB6107F114031946184801F045F94FF4A0
:1008BC0000737B610223BB6103233B6207F11403CA
:1008CC001946124801F038F9114B5B687B627B6A60
:1008DC0023F4C0437B627B6A43F0E0637B627B6AF8
:1008EC0043F480437B620A4A7B6A536000220021F6
:1008FC00152001F0EAF8152001F003F900BF2837A4
:10090C00BD4680BD0064004000100240000C014058
:10091C000000014080B588B000AF786007F110038B
:10092C0000221A605A609A60DA607B681B68164A6B
:10093C00934224D1154B9B69144A43F008039361ED
:10094C00124B9B6903F00803FB60FB684FF4406398
:10095C003B6112237B610323FB6107F110031946F2
:10096C000B4801F0E9F8094BDB69084A43F48003B2
:10097C00D361064BDB6903F48003BB60BB6800BF2B
:10098C002037BD4680BD00BF00580040001002401B
:10099C00000C014080B584B000AF78607B681B68A8
:1009AC00B3F1804F14D1194BDB69184A43F00103A2
:1009BC00D361164BDB6903F00103FB60FB6800227B
:1009CC0000211C2001F081F81C2001F09AF818E09D
:1009DC007B681B680E4A934213D10C4BDB690B4AA4
:1009EC0043F00203D361094BDB6903F00203BB60E4
:1009FC00BB68002200211D2001F067F81D2001F0CA
:100A0C0080F800BF1037BD4680BD00BF001002400B
:100A1C000004004080B588B000AF786007F1100387
:100A2C0000221A605A609A60DA607B681B681C4A64
:100A3C00934231D11B4B9B691A4A43F48043936117
:100A4C00184B9B6903F48043FB60FB68154B9B6957
:100A5C00144A43F004039361124B9B6903F00403A3
:100A6C00BB60BB684FF400733B6102237B610323C3
:100A7C00FB6107F1100319460B4801F05DF84FF4C8
:100A8C0080633B6100237B610023BB6107F1100392
:100A9C001946054801F050F800BF2037BD4680BD0F
:100AAC0000380140001002400008014080B400AF43
:100ABC00FEE780B400AFFEE780B400AFFEE780B481
:100ACC0000AFFEE780B400AFFEE780B400AF00BF1C
:100ADC00BD4680BC704780B400AF00BFBD4680BC33
:100AEC00704780B400AF00BFBD4680BC704780B576
:100AFC0000AF00F093F800BF80BD000080B500AFE0
:100B0C00024800F0E8FC00BF80BD00BF740000206C
:100B1C0080B500AF024801F0BBFF00BF80BD00BF35
:100B2C00F000002080B500AF024801F0B1FF00BF1B
:100B3C0080BD00BF3801002080B400AF00BFBD46AF
:100B4C0080BC7047FFF7F8FF0B480C490C4A002398
:100B5C0002E0D458C4500433C4188C42F9D3094A67
:100B6C00094C002301E013600432A242FBD302F0D3
:100B7C00D1FBFFF7C9FB70470000002010000020DC
:100B8C00B433000810000020D0010020FEE7000064
:100B9C0080B500AF084B1B68074A43F01003136085
:100BAC00032000F087FF0F2000F008F8FFF718FE75
:100BBC000023184680BD00BF0020024080B582B0E3
:100BCC0000AF7860124B1A68124B1B7819464FF421
:100BDC007A73B3FBF1F3B2FBF3F3184600F09FFF0B
:100BEC000346002B01D001230EE07B680F2B0AD8A3
:100BFC00002279684FF0FF3000F067FF064A7B68EF
:100C0C001360002300E0012318460837BD4680BD61
:100C1C00040000200C0000200800002080B400AF6D
:100C2C00054B1B781A46054B1B681344034A13608B
:100C3C0000BFBD4680BC70470C000020CC010020DA
:100C4C0080B400AF024B1B681846BD4680BC704791
:100C5C00CC01002080B584B000AF7860FFF7F0FFC6
:100C6C00B8607B68FB60FB68B3F1FF3F05D00A4BB3
:100C7C001B781A46FB681344FB6000BFFFF7E0FFCC
:100C8C000246BB68D31AFA689A42F7D800BF00BF75
:100C9C001037BD4680BD00BF0C00002080B584B06D
:100CAC0000AF78607B68002B01D10123EDE07B68FD
:100CBC0093F82030DBB2002B02D17868FFF7C2FD2D
:100CCC007B681B681A687B681B6842F001021A601B
:100CDC00FFF7B6FFF86012E0FFF7B2FF0246FB68C1
:100CEC00D31A0A2B0BD97B685B6A43F400327B68FE
:100CFC005A627B68052283F820200123C5E07B68BB
:100D0C001B685B6803F00103002BE5D07B681B6854
:100D1C001A687B681B6822F002021A60FFF790FFCA
:100D2C00F86012E0FFF78CFF0246FB68D31A0A2B1F
:100D3C000BD97B685B6A43F400327B685A627B6830
:100D4C00052283F8202001239FE07B681B685B68E9
:100D5C0003F00203002BE5D17B681B7E012B08D12D
:100D6C007B681B681A687B681B6842F080021A60FB
:100D7C0007E07B681B681A687B681B6822F080029E
:100D8C001A607B685B7E012B08D17B681B681A6834
:100D9C007B681B6842F040021A6007E07B681B68A6
:100DAC001A687B681B6822F040021A607B689B7E85
:100DBC00012B08D17B681B681A687B681B6842F0A2
:100DCC0020021A6007E07B681B681A687B681B6846
:100DDC0022F020021A607B68DB7E012B08D17B6835
:100DEC001B681A687B681B6822F010021A6007E007
:100DFC007B681B681A687B681B6842F010021A60DB
:100E0C007B681B7F012B08D17B681B681A687B6889
:100E1C001B6842F008021A6007E07B681B681A68BE
:100E2C007B681B6822F008021A607B685B7F012BD1
:100E3C0008D17B681B681A687B681B6842F0040247
:100E4C001A6007E07B681B681A687B681B6822F0D5
:100E5C0004021A607B689A687B68DB681A437B68BB
:100E6C001B691A437B685B6942EA03017B685B6818
:100E7C005A1E7B681B680A43DA617B6800225A623F
:100E8C007B68012283F82020002318461037BD46CA
:100E9C0080BD80B487B000AF786039607B681B6818
:100EAC007B617B6893F82030FB74FB7C012B03D0B7
:100EBC00FB7C022B40F0AA807B69D3F8003243F014
:100ECC0001027B69C3F800223B685B6903F01F03D6
:100EDC00012202FA03F3FB607B69D3F81C22FB6846
:100EEC00DB431A407B69C3F81C223B68DB69002B8F
:100EFC0023D17B69D3F80C22FB68DB431A407B6956
:100F0C00C3F80C223B68DB6819043B685B689BB236
:100F1C003A68526919437B69483243F832103B688E
:100F2C009B6819043B681B689AB23B685B690A436F
:100F3C0079694833DB000B445A603B68DB69012B51
:100F4C0022D17B69D3F80C22FB681A437B69C3F866
:100F5C000C223B681B6819043B685B689BB23A68BF
:100F6C00526919437B69483243F832103B689B68DD
:100F7C0019043B68DB689AB23B685B690A43796980
:100F8C004833DB000B445A603B689B69002B09D14A
:100F9C007B69D3F80422FB68DB431A407B69C3F8F6
:100FAC00042207E07B69D3F80422FB681A437B69AF
:100FBC00C3F804223B681B69002B09D17B69D3F869
:100FCC001422FB68DB431A407B69C3F8142207E048
:100FDC007B69D3F81422FB681A437B69C3F814228B
:100FEC003B681B6A012B07D17B69D3F81C22FB6879
:100FFC001A437B69C3F81C227B69D3F8003223F0B7
:10100C0001027B69C3F80022002306E07B685B6A5F
:10101C0043F480227B685A62012318461C37BD4674
:10102C0080BC704780B584B000AF78607B6893F863
:10103C002030DBB2012B2ED17B68022283F82020DA
:10104C007B681B681A687B681B6822F001021A60B7
:10105C00FFF7F6FDF86012E0FFF7F2FD0246FB68C1
:10106C00D31A0A2B0BD97B685B6A43F400327B687A
:10107C005A627B68052283F82020012312E07B68EA
:10108C001B685B6803F00103002BE5D17B68002231
:10109C005A62002306E07B685B6A43F400227B689B
:1010AC005A62012318461037BD4680BD80B489B002
:1010BC0000AFF860B9607A603B60FB6893F8203051
:1010CC00FB77FB681B689B68BB61FB7F012B03D024
:1010DC00FB7F022B40F0AD80BB6903F08063002BDB
:1010EC000AD1BB6903F00063002B05D1BB6903F087
:1010FC008053002B00F09580BB691B0E03F003039B
:10110C007B6101227B699A403B681A60BB689B68D3
:10111C00002B0DD1BB681B685A05BB68DB68F968EE
:10112C0009681A437B6918331B010B441A600FE0E2
:10113C00BB685B68DA00BB689B681A43BB68DB68FA
:10114C00F96809681A437B6918331B010B441A6050
:10115C00FB681968BB681A697B6918331B010B445F
:10116C0004331A60BB681B7D012B11D1FB681A6814
:10117C007B6918331B01134404331B68FA6811682C
:10118C0043F480727B6918331B010B4404331A60DF
:10119C007B6807331B781A067B6806331B781B04A5
:1011AC001A437B6805331B781B0213437A6804329D
:1011BC0012781046FA68116843EA00027B691B0139
:1011CC000B4403F5C6731A607B6803331B781A064D
:1011DC007B6802331B781B041A437B6801331B7832
:1011EC001B0213437A6812781046FA68116843EAB6
:1011FC0000027B691B010B4403F5C4731A60FB6886
:10120C001A687B6918331B0113441B68FA68116850
:10121C0043F001027B6918331B010B441A60002355
:10122C000EE0FB685B6A43F40012FB685A62012310
:10123C0006E0FB685B6A43F48022FB685A62012378
:10124C0018462437BD4680BC704780B487B000AFC9
:10125C00F860B9607A603B60FB6893F82030FB75EE
:10126C00FB7D012B03D0FB7D022B40F00381BB687F
:10127C00002B0ED1FB681B68DB6803F00303002B0B
:10128C0016D1FB685B6A43F40012FB685A620123B7
:10129C00F7E0FB681B681B6903F00303002B07D105
:1012AC00FB685B6A43F40012FB685A620123E8E0B6
:1012BC00FB681A68BB681B331B0113441B6803F0E3
:1012CC0004027B689A607B689B68002B0CD1FB68DE
:1012DC001A68BB681B331B0113441B685B0DC3F3FB
:1012EC000A027B681A600BE0FB681A68BB681B3348
:1012FC001B0113441B68DB0823F060427B685A60B7
:10130C00FB681A68BB681B331B0113441B6803F092
:10131C0002027B68DA60FB681A68BB681B331B012E
:10132C00134404331B6803F00803002B03D07B68C1
:10133C0008221A610BE0FB681A68BB681B331B019F
:10134C00134404331B6803F00F027B681A61FB68BB
:10135C001A68BB681B331B01134404331B681B0A3C
:10136C00DAB27B689A61FB681A68BB681B331B0195
:10137C00134404331B681B0C9AB27B685A61FB68DC
:10138C001A68BB681B01134403F5DC731B68DAB2E3
:10139C003B681A70FB681A68BB681B01134403F5A1
:1013AC00DC731B681A0A3B680133D2B21A70FB68F3
:1013BC001A68BB681B01134403F5DC731B681A0C19
:1013CC003B680233D2B21A70FB681A68BB681B0107
:1013DC00134403F5DC731B681A0E3B680333D2B25B
:1013EC001A70FB681A68BB681B01134403F5DE73A3
:1013FC001A683B680433D2B21A70FB681A68BB686F
:10140C001B01134403F5DE731B681A0A3B68053392
:10141C00D2B21A70FB681A68BB681B01134403F53F
:10142C00DE731B681A0C3B680633D2B21A70FB6869
:10143C001A68BB681B01134403F5DE731B681A0E94
:10144C003B680733D2B21A70BB68002B08D1FB681B
:10145C001B68DA68FB681B6842F02002DA6007E060
:10146C00FB681B681A69FB681B6842F020021A6152
:10147C00002306E0FB685B6A43F48022FB685A6237
:10148C00012318461C37BD4680BC704780B485B01C
:10149C0000AF786039607B6893F82030FB73FB7B7E
:1014AC00012B02D0FB7B022B09D17B681B6859698D
:1014BC007B681B683A680A435A61002306E07B6824
:1014CC005B6A43F480227B685A6201231846143706
:1014DC00BD4680BC704780B58AB000AF78600023F1
:1014EC007B627B681B685B693B627B681B685B6823
:1014FC00FB617B681B689B68BB617B681B68DB6856
:10150C007B617B681B681B693B617B681B689B6903
:10151C00FB603B6A03F00103002B7CD0BB6903F03A
:10152C000103002B23D07B681B6801229A60BB69E6
:10153C0003F00203002B03D0786800F083F916E067
:10154C00BB6903F00403002B04D07B6A43F40063F3
:10155C007B620CE0BB6903F00803002B04D07B6AB0
:10156C0043F480537B6202E0786800F086F9BB6933
:10157C0003F48073002B24D07B681B684FF48072BB
:10158C009A60BB6903F40073002B03D0786800F0F9
:10159C0062F916E0BB6903F48063002B04D07B6A0C
:1015AC0043F400537B620CE0BB6903F40063002B33
:1015BC0004D07B6A43F480437B6202E0786800F0DD
:1015CC0065F9BB6903F48033002B24D07B681B685E
:1015DC004FF480329A60BB6903F40033002B03D0C4
:1015EC00786800F041F916E0BB6903F48023002B06
:1015FC0004D07B6A43F400437B620CE0BB6903F4C8
:10160C000023002B04D07B6A43F480337B6202E01E
:10161C00786800F044F93B6A03F00803002B0CD007
:10162C007B6903F01003002B07D07B6A43F4007333
:10163C007B627B681B681022DA603B6A03F0040350
:10164C00002B0BD07B6903F00803002B06D07B68C2
:10165C001B680822DA60786800F033F93B6A03F003
:10166C000203002B09D07B681B68DB6803F00303C3
:10167C00002B02D0786800F01BF93B6A03F04003A2
:10168C00002B0CD03B6903F01003002B07D07B6AB6
:10169C0043F480637B627B681B6810221A613B6A8F
:1016AC0003F02003002B0BD03B6903F00803002B45
:1016BC0006D07B681B6808221A61786800F00AF96A
:1016CC003B6A03F01003002B09D07B681B681B6975
:1016DC0003F00303002B02D07868FEF7D3FD3B6ABE
:1016EC0003F40033002B0BD0FB6903F01003002B29
:1016FC0006D07B681B6810225A60786800F0F3F8FB
:10170C003B6A03F48033002B0BD0FB6903F0080316
:10171C00002B06D07B681B6808225A60786800F0A2
:10172C00EBF83B6A03F40043002B7BD0FB6903F01E
:10173C000403002B72D03B6A03F48073002B08D097
:10174C00FB6803F00103002B03D07B6A43F0010319
:10175C007B623B6A03F40073002B08D0FB6803F038
:10176C000203002B03D07B6A43F002037B623B6ACB
:10177C0003F48063002B08D0FB6803F00403002BF8
:10178C0003D07B6A43F004037B623B6A03F400637F
:10179C00002B43D0FB6803F07003002B3ED0FB689A
:1017AC0003F07003602B2BD0602B2ED8502B22D043
:1017BC00502B2AD8402B19D0402B26D8302B10D0A8
:1017CC00302B22D8102B02D0202B05D01DE07B6AA9
:1017DC0043F008037B6219E07B6A43F010037B62E1
:1017EC0014E07B6A43F020037B620FE07B6A43F0DA
:1017FC0040037B620AE07B6A43F080037B6205E076
:10180C007B6A43F480737B6200E000BF7B681B68DB
:10181C009A697B681B6822F070029A617B681B686E
:10182C0004225A607B6A002B08D07B685A6A7B6A58
:10183C001A437B685A62786800F067F800BF283753
:10184C00BD4680BD80B483B000AF786000BF0C375C
:10185C00BD4680BC704780B483B000AF786000BFD9
:10186C000C37BD4680BC704780B483B000AF786045
:10187C0000BF0C37BD4680BC704780B483B000AF4E
:10188C00786000BF0C37BD4680BC704780B483B015
:10189C0000AF786000BF0C37BD4680BC704780B489
:1018AC0083B000AF786000BF0C37BD4680BC70477A
:1018BC0080B483B000AF786000BF0C37BD4680BCED
:1018CC00704780B483B000AF786000BF0C37BD4662
:1018DC0080BC704780B483B000AF786000BF0C3719
:1018EC00BD4680BC704780B483B000AF786000BF49
:1018FC000C37BD4680BC704780B483B000AF7860B5
:10190C0000BF0C37BD4680BC704780B483B000AFBD
:10191C00786000BF0C37BD4680BC704780B485B082
:10192C0000AF78607B6803F00703FB600C4BDB684F
:10193C00BB60BA684FF6FF031340BB60FB681A022A
:10194C00BB68134343F0BF6343F40033BB60044AEA
:10195C00BB68D36000BF1437BD4680BC704700BF66
:10196C0000ED00E080B400AF044BDB681B0A03F011
:10197C0007031846BD4680BC704700BF00ED00E071
:10198C0080B483B000AF0346FB7197F90730002B8E
:10199C000BDBFB7903F01F02064997F907305B0953
:1019AC00012000FA02F241F8232000BF0C37BD469B
:1019BC0080BC704700E100E080B483B000AF034608
:1019CC003960FB7197F90730002B0ADB3B68DAB200
:1019DC000C4997F907301201D2B20B4483F800235B
:1019EC000AE03B68DAB20849FB7903F00F03043BC9
:1019FC001201D2B20B441A7600BF0C37BD4680BC24
:101A0C00704700BF00E100E000ED00E080B489B059
:101A1C0000AFF860B9607A60FB6803F00703FB6104
:101A2C00FB69C3F10703042B28BF0423BB61FB69CB
:101A3C000433062B02D9FB69033B00E000237B61D6
:101A4C004FF0FF32BB6902FA03F3DA43BB681A406A
:101A5C007B699A404FF0FF317B6901FA03F3D9435C
:101A6C007B680B40134318462437BD4680BC704737
:101A7C0080B582B000AF78607B68013BB3F1807FAA
:101A8C0001D301230FE00A4A7B68013B53600F210D
:101A9C004FF0FF30FFF790FF054B00229A60044B8C
:101AAC0007221A60002318460837BD4680BD00BFC8
:101ABC0010E000E080B582B000AF78607868FFF786
:101ACC002DFF00BF0837BD4680BD80B586B000AF86
:101ADC000346B9607A60FB7300237B61FFF742FF1A
:101AEC0078617A68B9687869FFF790FF024697F9D0
:101AFC000F3011461846FFF75FFF00BF1837BD4681
:101B0C0080BD80B582B000AF0346FB7197F90730FA
:101B1C001846FFF735FF00BF0837BD4680BD80B5BE
:101B2C0082B000AF78607868FFF7A2FF03461846D2
:101B3C000837BD4680BD000080B48BB000AF786024
:101B4C00396000237B6200233B6269E101227B6ADE
:101B5C0002FA03F3FB613B681B68FA691340BB6133
:101B6C00BA69FB699A4240F058813B685B689A4AB3
:101B7C0093425ED0984A934275D8984A934258D073
:101B8C00964A93426FD8964A934252D0944A9342C3
:101B9C0069D8944A93424CD0924A934263D8924A61
:101BAC00934246D0904A93425DD8122B2AD8122BDE
:101BBC0059D801A252F823F03F1C0008191C000848
:101BCC002B1C00086D1C0008731C0008731C0008FB
:101BDC00731C0008731C0008731C0008731C00089D
:101BEC00731C0008731C0008731C0008731C00088D
:101BFC00731C0008731C0008731C0008211C0008CF
:101C0C00351C0008794A934213D02CE03B68DB6802
:101C1C003B6229E03B68DB6804333B6224E03B68B1
:101C2C00DB6808333B621FE03B68DB680C333B62CC
:101C3C001AE03B689B68002B02D104233B6213E043
:101C4C003B689B68012B05D108233B627B68FA69D2
:101C5C001A6109E008233B627B68FA695A6103E068
:101C6C0000233B6200E000BFBB69FF2B01D87B68FF
:101C7C0001E07B6804337B61BB69FF2B02D87B6A74
:101C8C009B0002E07B6A083B9B003B617B691A6806
:101C9C000F213B6901FA03F3DB431A40396A3B69B4
:101CAC0001FA03F31A437B691A603B685B6803F023
:101CBC008053002B00F0B1804D4B9B694C4A43F094
:101CCC00010393614A4B9B6903F00103BB60BB6842
:101CDC00484A7B6A9B08023352F82330FB607B6ACC
:101CEC0003F003039B000F2202FA03F3DB43FA68B1
:101CFC001340FB607B68404A934213D07B683F4A99
:101D0C0093420DD07B683E4A934207D07B683D4A94
:101D1C00934201D1032306E0042304E0022302E0F2
:101D2C00012300E000237A6A02F003029200934040
:101D3C00FA681343FB602F497B6A9B080233FA68ED
:101D4C0041F823203B685B6803F48013002B06D01A
:101D5C002D4B9A682C49BB6913438B6006E02A4BC8
:101D6C009A68BB69DB43284913408B603B685B680E
:101D7C0003F40013002B06D0234BDA682249BB690D
:101D8C001343CB6006E0204BDA68BB69DB431E498A
:101D9C001340CB603B685B6803F40033002B06D028
:101DAC00194B5A681849BB6913434B6006E0164B34
:101DBC005A68BB69DB43144913404B603B685B6852
:101DCC0003F48033002B21D00F4B1A680E49BB69EA
:101DDC0013430B6021E000BF0000321000003110F3
:101DEC000000221000002110000012100000111041
:101DFC00001002400000014000080140000C0140AE
:101E0C000010014000140140000401400B4B1A6803
:101E1C00BB69DB43094913400B607B6A01337B626E
:101E2C003B681A687B6A22FA03F3002B7FF48EAEB0
:101E3C0000BF00BF2C37BD4680BC7047000401407A
:101E4C0080B483B000AF78600B467B8013467B7008
:101E5C007B78002B03D07A887B681A6103E07B883F
:101E6C001A047B681A6100BF0C37BD4680BC7047F2
:101E7C0080B485B000AF78600B467B807B68DB68F4
:101E8C00FB607A88FB6813401A04FB68D9437B8893
:101E9C000B401A437B681A6100BF1437BD4680BCE7
:101EAC007047000080B584B000AF78607B68002B71
:101EBC0001D101232BE17B6893F83D30DBB2002B81
:101ECC0006D17B68002283F83C207868FEF722FD5F
:101EDC007B68242283F83D207B681B681A687B682A
:101EEC001B6822F001021A607B681B681A687B6809
:101EFC001B6842F400421A607B681B681A687B6896
:101F0C001B6822F400421A6000F0DAFCF8607B686F
:101F1C005B68814A934207D8FB68804A934294BF1E
:101F2C0001230023DBB206E0FB687D4A934294BF99
:101F3C0001230023DBB2002B01D00123E7E0FB6877
:101F4C00784AA2FB03239B0CBB607B681B685B6815
:101F5C0023F03F017B681B68BA680A435A607B68B0
:101F6C001B681B6A23F03F017B685B686A4A9342DB
:101F7C0002D8BB68013309E0BB684FF4967202FBD0
:101F8C0003F3694AA2FB03239B0901337A681268A5
:101F9C000B4313627B681B68DB6923F44F4222F00E
:101FAC00FF027B685B685C498B4219D8FB68591E41
:101FBC007B685B685B00B1FBF3F3591C40F6FC7368
:101FCC000B40002B0AD0FB68591E7B685B685B00DA
:101FDC00B1FBF3F30133C3F30B0351E004234FE0E4
:101FEC007B689B68002B11D1FB68581E7B68596875
:101FFC000B465B000B44B0FBF3F30133C3F30B0351
:10200C00002B0CBF01230023DBB212E0FB68581E2F
:10201C007B6859680B469B000B4499000B44B0FB42
:10202C00F3F30133C3F30B03002B0CBF0123002389
:10203C00DBB2002B01D0012322E07B689B68002BD4
:10204C000ED1FB68581E7B6859680B465B000B442D
:10205C00B0FBF3F30133C3F30B0343F400430FE082
:10206C00FB68581E7B6859680B469B000B44990013
:10207C000B44B0FBF3F30133C3F30B0343F44043C2
:10208C00796809681343CB617B681B681B6823F074
:10209C00C0017B68DA697B681B6A1A437B681B6822
:1020AC000A431A607B681B689B6823F4034323F084
:1020BC00FF037A6811697A68D26811437A681268EA
:1020CC000B4393607B681B68DB6823F0FF017B6824
:1020DC005A697B689B691A437B681B680A43DA6000
:1020EC007B681B681A687B681B6842F001021A60E7
:1020FC007B6800221A647B68202283F83D207B6871
:10210C0000221A637B68002283F83E2000231846C5
:10211C001037BD4680BD00BFA08601007F841E0025
:10212C00FF083D0083DE1B43D34D621080B586B0A3
:10213C0000AF78607B68002B01D1012372E27B68D1
:10214C001B6803F00103002B00F08780924B5B6847
:10215C0003F00C03042B0CD08F4B5B6803F00C03C7
:10216C00082B12D18C4B5B6803F48033B3F5803FA2
:10217C000BD1894B1B6803F40033002B6CD07B68AC
:10218C005B68002B68D101234CE27B685B68B3F57C
:10219C00803F06D1804B1B687F4A43F48033136029
:1021AC002EE07B685B68002B0CD17B4B1B687A4A5A
:1021BC0023F480331360784B1B68774A23F4802315
:1021CC0013601DE07B685B68B3F5A02F0CD1724BDC
:1021DC001B68714A43F4802313606F4B1B686E4A73
:1021EC0043F4803313600BE06B4B1B686A4A23F497
:1021FC0080331360684B1B68674A23F48023136099
:10220C007B685B68002B13D0FEF71AFD386108E081
:10221C00FEF716FD02463B69D31A642B01D9032342
:10222C0000E25D4B1B6803F40033002BF0D014E08C
:10223C00FEF706FD386108E0FEF702FD02463B6939
:10224C00D31A642B01D90323ECE1534B1B6803F421
:10225C000033002BF0D100E000BF7B681B6803F05B
:10226C000203002B63D04C4B5B6803F00C03002B78
:10227C000BD0494B5B6803F00C03082B1CD1464B6D
:10228C005B6803F48033002B16D1434B1B6803F0BF
:10229C000203002B05D07B681B69012B01D00123A5
:1022AC00C0E13D4B1B6823F0F8027B685B69DB00E7
:1022BC00394913430B603AE07B681B69002B20D033
:1022CC00364B01221A60FEF7BBFC386108E0FEF7C2
:1022DC00B7FC02463B69D31A022B01D90323A1E1B7
:1022EC002D4B1B6803F00203002BF0D02A4B1B680C
:1022FC0023F0F8027B685B69DB00274913430B6012
:10230C0015E0264B00221A60FEF79AFC386108E0B3
:10231C00FEF796FC02463B69D31A022B01D9032324
:10232C0080E11D4B1B6803F00203002BF0D17B688E
:10233C001B6803F00803002B3AD07B689B69002BC9
:10234C0019D0174B01221A60FEF77AFC386108E0AD
:10235C00FEF776FC02463B69D31A022B01D9032304
:10236C0060E10D4B5B6A03F00203002BF0D00120FF
:10237C0000F0CEFA1CE00A4B00221A60FEF760FC5B
:10238C0038610FE0FEF75CFC02463B69D31A022B66
:10239C0008D9032346E100BF00100240000042426E
:1023AC0080044242924B5B6A03F00203002BE9D19A
:1023BC007B681B6803F00403002B00F0A68000234D
:1023CC00FB758B4BDB6903F08053002B0DD1884BD5
:1023DC00DB69874A43F08053D361854BDB6903F09B
:1023EC008053BB60BB680123FB75824B1B6803F4F5
:1023FC008073002B18D17F4B1B687E4A43F480738B
:10240C001360FEF71DFC386108E0FEF719FC02466C
:10241C003B69D31A642B01D9032303E1754B1B6869
:10242C0003F48073002BF0D07B68DB68012B06D1A2
:10243C006F4B1B6A6E4A43F0010313622DE07B68FD
:10244C00DB68002B0CD16A4B1B6A694A23F0010331
:10245C001362674B1B6A664A23F0040313621CE089
:10246C007B68DB68052B0CD1614B1B6A604A43F01F
:10247C00040313625E4B1B6A5D4A43F00103136253
:10248C000BE05B4B1B6A5A4A23F001031362584B57
:10249C001B6A574A23F0040313627B68DB68002B2A
:1024AC0015D0FEF7CDFB38610AE0FEF7C9FB0246FA
:1024BC003B69D31A41F28832934201D90323B1E02C
:1024CC004B4B1B6A03F00203002BEED014E0FEF71B
:1024DC00B7FB38610AE0FEF7B3FB02463B69D31A3F
:1024EC0041F28832934201D903239BE0404B1B6A93
:1024FC0003F00203002BEED1FB7D012B05D13C4BED
:10250C00DB693B4A23F08053D3617B68DB69002B8A
:10251C0000F08780364B5B6803F00C03082B61D00E
:10252C007B68DB69022B46D1334B00221A60FEF725
:10253C0087FB386108E0FEF783FB02463B69D31A40
:10254C00022B01D903236DE0294B1B6803F00073A8
:10255C00002BF0D17B681B6AB3F5803F08D1244B6C
:10256C005B6823F400327B689B68214913434B6002
:10257C001F4B5B6823F474127B68196A7B685B6A77
:10258C000B431B4913434B601B4B01221A60FEF794
:10259C0057FB386108E0FEF753FB02463B69D31A40
:1025AC00022B01D903233DE0114B1B6803F0007390
:1025BC00002BF0D035E0104B00221A60FEF740FBE8
:1025CC00386108E0FEF73CFB02463B69D31A022B4C
:1025DC0001D9032326E0064B1B6803F00073002B84
:1025EC00F0D11EE07B68DB69012B07D1012319E0D8
:1025FC000010024000700040600042420B4B5B68D0
:10260C00FB60FB6803F480327B681B6A9A4206D13C
:10261C00FB6803F470127B685B6A9A4201D0012359
:10262C0000E0002318461837BD4680BD001002405C
:10263C0080B584B000AF786039607B68002B01D125
:10264C000123D0E06A4B1B6803F007033A689A42F7
:10265C0010D9674B1B6823F0070265493B6813438D
:10266C000B60634B1B6803F007033A689A4201D076
:10267C000123B8E07B681B6803F00203002B20D019
:10268C007B681B6803F00403002B05D0594B5B6877
:10269C00584A43F4E06353607B681B6803F00803FB
:1026AC00002B05D0534B5B68524A43F46053536084
:1026BC00504B5B6823F0F0027B689B684D491343D9
:1026CC004B607B681B6803F00103002B40D07B68D8
:1026DC005B68012B07D1474B1B6803F40033002BBD
:1026EC0015D101237FE07B685B68022B07D1414B3E
:1026FC001B6803F00073002B09D1012373E03D4BE1
:10270C001B6803F00203002B01D101236BE0394B52
:10271C005B6823F003027B685B68364913434B60AC
:10272C00FEF78EFAF8600AE0FEF78AFA0246FB68BA
:10273C00D31A41F28832934201D9032353E02D4B33
:10274C005B6803F00C027B685B689B009A42EBD1E0
:10275C00274B1B6803F007033A689A4210D2244BAC
:10276C001B6823F0070222493B6813430B60204B84
:10277C001B6803F007033A689A4201D0012332E048
:10278C007B681B6803F00403002B08D0194B5B68B3
:10279C0023F4E0627B68DB68164913434B607B686B
:1027AC001B6803F00803002B09D0124B5B6823F461
:1027BC0060527B681B69DB000E4913434B6000F0D1
:1027CC0021F802460B4B5B681B0903F00F030A4907
:1027DC00CB5C22FA03F3094A1360094B1B681846B9
:1027EC00FEF7ECF9002318461037BD4680BD00BF3C
:1027FC00002002400010024080330008040000203A
:10280C000800002080B487B000AF0023FB600023D9
:10281C00BB6000237B6100237B6000233B611E4B6C
:10282C005B68FB60FB6803F00C03042B02D0082BE5
:10283C0003D027E0194B3B6127E0FB689B0C03F0AE
:10284C000F03174AD35C7B60FB6803F48033002BC7
:10285C0010D0114B5B685B0C03F00103114AD35C85
:10286C00BB607B680D4A03FB02F2BB68B2FBF3F35F
:10287C007B6104E07B680C4A02FB03F37B617B69A0
:10288C003B6102E0054B3B6100BF3B6918461C37BE
:10289C00BD4680BC704700BF0010024000127A0099
:1028AC0098330008A833000800093D0080B400AF3D
:1028BC00024B1B681846BD4680BC704704000020C4
:1028CC0080B500AFFFF7F2FF0246054B5B681B0AB1
:1028DC0003F007030349CB5C22FA03F3184680BDCF
:1028EC00001002409033000880B500AFFFF7DEFF08
:1028FC000246054B5B68DB0A03F007030349CB5C1C
:10290C0022FA03F3184680BD0010024090330008F1
:10291C0080B485B000AF78600A4B1B680A4AA2FBF2
:10292C0003235B0A7A6802FB03F3FB6000BFFB68BE
:10293C005A1EFA60002BF9D100BF00BF1437BD46F8
:10294C0080BC704704000020D34D621080B582B06B
:10295C0000AF78607B68002B01D1012341E07B68DC
:10296C0093F83D30DBB2002B06D17B68002283F854
:10297C003C207868FEF70EF87B68022283F83D2035
:10298C007B681A687B6804331946104600F074FAA9
:10299C007B68012283F846207B68012283F83E2065
:1029AC007B68012283F83F207B68012283F840205A
:1029BC007B68012283F841207B68012283F8422046
:1029CC007B68012283F843207B68012283F8442032
:1029DC007B68012283F845207B68012283F83D2027
:1029EC00002318460837BD4680BD000080B485B072
:1029FC0000AF78607B6893F83D30DBB2012B01D0DF
:102A0C0001233AE07B68022283F83D207B681B6837
:102A1C00DA687B681B6842F00102DA607B681B682D
:102A2C00184A93420ED07B681B68B3F1804F09D0D3
:102A3C007B681B68144A934204D07B681B68134A5A
:102A4C00934211D17B681B689B6803F00703FB6002
:102A5C00FB68062B10D07B681B681A687B681B68A8
:102A6C0042F001021A6007E07B681B681A687B68F9
:102A7C001B6842F001021A60002318461437BD4649
:102A8C0080BC7047002C014000040040000800404E
:102A9C0080B582B000AF78607B681B681B6903F05F
:102AAC000203022B22D17B681B68DB6803F0020354
:102ABC00022B1BD17B681B686FF002021A617B68CA
:102ACC0001221A777B681B689B6903F00303002BB8
:102ADC0003D0786800F0B4F905E0786800F0A7F945
:102AEC00786800F0B6F97B6800221A777B681B685F
:102AFC001B6903F00403042B22D17B681B68DB6881
:102B0C0003F00403042B1BD17B681B686FF00402D9
:102B1C001A617B6802221A777B681B689B6903F435
:102B2C004073002B03D0786800F08AF905E07868D0
:102B3C0000F07DF9786800F08CF97B6800221A7738
:102B4C007B681B681B6903F00803082B22D17B6888
:102B5C001B68DB6803F00803082B1BD17B681B6820
:102B6C006FF008021A617B6804221A777B681B6875
:102B7C00DB6903F00303002B03D0786800F060F9E5
:102B8C0005E0786800F053F9786800F062F97B682A
:102B9C0000221A777B681B681B6903F01003102B4B
:102BAC0022D17B681B68DB6803F01003102B1BD150
:102BBC007B681B686FF010021A617B6808221A7719
:102BCC007B681B68DB6903F44073002B03D07868C7
:102BDC0000F036F905E0786800F029F9786800F023
:102BEC0038F97B6800221A777B681B681B6903F035
:102BFC000103012B0ED17B681B68DB6803F001031A
:102C0C00012B07D17B681B686FF001021A61786891
:102C1C00FDF75EFB7B681B681B6903F08003802B50
:102C2C000ED17B681B68DB6803F08003802B07D117
:102C3C007B681B686FF080021A61786800F07BFA81
:102C4C007B681B681B6903F04003402B0ED17B682B
:102C5C001B68DB6803F04003402B07D17B681B68C3
:102C6C006FF040021A61786800F0FCF87B681B6812
:102C7C001B6903F02003202B0ED17B681B68DB68DB
:102C8C0003F02003202B07D17B681B686FF0200218
:102C9C001A61786800F046FA00BF0837BD4680BD5F
:102CAC0080B584B000AF786039600023FB737B681B
:102CBC0093F83C30012B01D10223B4E07B68012254
:102CCC0083F83C207B68022283F83D207B681B68DC
:102CDC009B68BB60BB6823F07703BB60BB6823F4C5
:102CEC007F43BB607B681B68BA689A603B681B6853
:102CFC00B3F5005F3ED0B3F5005F00F28780B3F50B
:102D0C00805F00F08680B3F5805F7FD8702B1AD07F
:102D1C00702B7BD8602B50D0602B77D8502B3CD0AD
:102D2C00502B73D8402B58D0402B6FD8302B64D0FD
:102D3C00302B6BD8202B60D0202B67D8002B5CD08D
:102D4C00102B5AD062E07B6818683B6899683B6826
:102D5C005A683B68DB6800F068F97B681B689B6805
:102D6C00BB60BB6843F07703BB607B681B68BA68C9
:102D7C009A604FE07B6818683B6899683B685A68B2
:102D8C003B68DB6800F051F97B681B689A687B68CC
:102D9C001B6842F480429A603CE07B6818683B6890
:102DAC0059683B68DB681A4600F0C8F87B681B68FA
:102DBC005021184600F01FF92CE07B6818683B681E
:102DCC0059683B68DB681A4600F0E6F87B681B68BC
:102DDC006021184600F00FF91CE07B6818683B680E
:102DEC0059683B68DB681A4600F0A8F87B681B68DA
:102DFC004021184600F0FFF80CE07B681A683B682D
:102E0C001B681946104600F0F6F803E00123FB732B
:102E1C0000E000BF7B68012283F83D207B68002224
:102E2C0083F83C20FB7B18461037BD4680BD80B430
:102E3C0083B000AF786000BF0C37BD4680BC7047D4
:102E4C0080B483B000AF786000BF0C37BD4680BC47
:102E5C00704780B483B000AF786000BF0C37BD46BC
:102E6C0080BC704780B483B000AF786000BF0C3773
:102E7C00BD4680BC7047000080B485B000AF786060
:102E8C0039607B681B68FB607B68294A93420BD0D6
:102E9C007B68B3F1804F07D07B68264A934203D0FE
:102EAC007B68254A934208D1FB6823F07003FB60D2
:102EBC003B685B68FA681343FB607B681C4A93426F
:102ECC000BD07B68B3F1804F07D07B68194A9342D3
:102EDC0003D07B68184A934208D1FB6823F44073F3
:102EEC00FB603B68DB68FA681343FB60FB6823F00C
:102EFC0080023B685B691343FB607B68FA681A606D
:102F0C003B689A687B68DA623B681A687B689A62ED
:102F1C007B68074A934203D13B681A697B681A6342
:102F2C007B6801225A6100BF1437BD4680BC7047D4
:102F3C00002C0140000400400008004080B487B021
:102F4C0000AFF860B9607A60FB681B6A7B61FB6854
:102F5C001B6A23F00102FB681A62FB689B693B61E8
:102F6C003B6923F0F0033B617B681B013A69134317
:102F7C003B617B6923F00A037B617A69BB6813436D
:102F8C007B61FB683A699A61FB687A691A6200BFD7
:102F9C001C37BD4680BC704780B487B000AFF8606A
:102FAC00B9607A60FB681B6A7B61FB681B6A23F063
:102FBC001002FB681A62FB689B693B613B6923F456
:102FCC0070433B617B681B033A6913433B617B692C
:102FDC0023F0A0037B61BB681B017A6913437B61FF
:102FEC00FB683A699A61FB687A691A6200BF1C3700
:102FFC00BD4680BC704780B485B000AF7860396046
:10300C007B689B68FB60FB6823F07003FB603A688D
:10301C00FB68134343F00703FB607B68FA689A6014
:10302C0000BF1437BD4680BC704780B487B000AF7A
:10303C00F860B9607A603B60FB689B687B617B6978
:10304C0023F47F437B613B681A027B681A43BB689D
:10305C0013437A6913437B61FB687A699A6000BFFA
:10306C001C37BD4680BC704780B485B000AF78601B
:10307C0039607B6893F83C30012B01D1022346E088
:10308C007B68012283F83C207B68022283F83D2078
:10309C007B681B685B68FB607B681B689B68BB601C
:1030AC00FB6823F07003FB603B681B68FA681343F2
:1030BC00FB607B681B68FA685A607B681B68164A61
:1030CC0093420ED07B681B68B3F1804F09D07B68AC
:1030DC001B68124A934204D07B681B68104A9342C7
:1030EC000CD1BB6823F08003BB603B685B68BA689B
:1030FC001343BB607B681B68BA689A607B680122CB
:10310C0083F83D207B68002283F83C20002318467E
:10311C001437BD4680BC7047002C014000040040B1
:10312C000008004080B483B000AF786000BF0C375B
:10313C00BD4680BC704780B483B000AF786000BFE0
:10314C000C37BD4680BC704780B582B000AF78604C
:10315C007B68002B01D1012342E07B6893F841305E
:10316C00DBB2002B06D17B68002283F84020786804
:10317C00FDF750FC7B68242283F841207B681B6898
:10318C00DA687B681B6822F40052DA60786800F019
:10319C002BF87B681B681A697B681B6822F49042C9
:1031AC001A617B681B685A697B681B6822F02A02CB
:1031BC005A617B681B68DA687B681B6842F40052B2
:1031CC00DA607B6800225A647B68202283F84120F5
:1031DC007B68202283F842207B6800225A630023FC
:1031EC0018460837BD4680BD80B584B000AF786006
:1031FC007B681B681B6923F440517B68DA687B6829
:10320C001B680A431A617B689A687B681B691A43BE
:10321C007B685B691343BB607B681B68DB6823F4CA
:10322C00B05323F00C037A681268B9680B43D3606F
:10323C007B681B685B6923F440717B689A697B68C7
:10324C001B680A435A617B681B682C4A934203D162
:10325C00FFF74AFBF86002E0FFF732FBF860FA6810
:10326C0013469B0013449A001A447B685B689B00CE
:10327C00B2FBF3F3224AA2FB03235B091901FA68A0
:10328C0013469B0013449A001A447B685B689B00AE
:10329C00B2FBF3F21A4BA3FB02035B09642000FBA5
:1032AC0003F3D31A1B013233154AA2FB03235B0928
:1032BC0003F0F0031944FA6813469B0013449A0078
:1032CC001A447B685B689B00B2FBF3F20C4BA3FBCC
:1032DC0002035B09642000FB03F3D31A1B01323396
:1032EC00074AA2FB03235B0903F00F027B681B68F0
:1032FC000A449A6000BF1037BD4680BD00380140BB
:10330C001F85EB5103460244934200D1704703F8EA
:10331C00011BF9E770B500260C4D0D4C641BA41075
:10332C00A64209D100F01AF800260A4D0A4C641B7B
:10333C00A410A64205D170BD55F8043B9847013640
:10334C00EEE755F8043B98470136F2E7AC3300083A
:10335C00AC330008AC330008B0330008F8B500BF3C
:10336C00F8BC08BC9E467047F8B500BFF8BC08BC5A
:04337C009E467047B2
:103380000000000000000000010203040607080915
:1033900000000000010203040203040506070809F7
:0C33A0000A0B0C0D0E0F101001020000B3
:0433AC0031010008E3
:0433B0000D01000803
:1033B400020000000024F4001000000001000000DE
:0400000508000B5193
:00000001FF
